{
  "address": "0xF48a7416D114212B49629730b93048C460bE0dcC",
  "abi": [
    {
      "inputs": [
        {
          "internalType": "address",
          "name": "treasuryAddress",
          "type": "address"
        },
        {
          "internalType": "address",
          "name": "teamWalletAddress",
          "type": "address"
        }
      ],
      "stateMutability": "nonpayable",
      "type": "constructor"
    },
    {
      "inputs": [],
      "name": "AccessDenied",
      "type": "error"
    },
    {
      "inputs": [],
      "name": "TokenExists",
      "type": "error"
    },
    {
      "inputs": [],
      "name": "TokenHasPendingBets",
      "type": "error"
    },
    {
      "inputs": [],
      "name": "TokenNotPaused",
      "type": "error"
    },
    {
      "inputs": [],
      "name": "WrongAddress",
      "type": "error"
    },
    {
      "inputs": [
        {
          "internalType": "uint16",
          "name": "splitSum",
          "type": "uint16"
        }
      ],
      "name": "WrongHouseEdgeSplit",
      "type": "error"
    },
    {
      "anonymous": false,
      "inputs": [
        {
          "indexed": false,
          "internalType": "address",
          "name": "token",
          "type": "address"
        }
      ],
      "name": "AddToken",
      "type": "event"
    },
    {
      "anonymous": false,
      "inputs": [
        {
          "indexed": true,
          "internalType": "address",
          "name": "token",
          "type": "address"
        },
        {
          "indexed": false,
          "internalType": "uint256",
          "name": "bank",
          "type": "uint256"
        },
        {
          "indexed": false,
          "internalType": "uint256",
          "name": "dividend",
          "type": "uint256"
        },
        {
          "indexed": false,
          "internalType": "uint256",
          "name": "partner",
          "type": "uint256"
        },
        {
          "indexed": false,
          "internalType": "uint256",
          "name": "treasury",
          "type": "uint256"
        },
        {
          "indexed": false,
          "internalType": "uint256",
          "name": "team",
          "type": "uint256"
        }
      ],
      "name": "AllocateHouseEdgeAmount",
      "type": "event"
    },
    {
      "anonymous": false,
      "inputs": [
        {
          "indexed": true,
          "internalType": "address",
          "name": "token",
          "type": "address"
        },
        {
          "indexed": false,
          "internalType": "uint256",
          "name": "newBalance",
          "type": "uint256"
        },
        {
          "indexed": false,
          "internalType": "uint256",
          "name": "amount",
          "type": "uint256"
        }
      ],
      "name": "CashIn",
      "type": "event"
    },
    {
      "anonymous": false,
      "inputs": [
        {
          "indexed": true,
          "internalType": "address",
          "name": "token",
          "type": "address"
        },
        {
          "indexed": false,
          "internalType": "uint256",
          "name": "amount",
          "type": "uint256"
        }
      ],
      "name": "Deposit",
      "type": "event"
    },
    {
      "anonymous": false,
      "inputs": [
        {
          "indexed": true,
          "internalType": "address",
          "name": "token",
          "type": "address"
        },
        {
          "indexed": false,
          "internalType": "uint256",
          "name": "amount",
          "type": "uint256"
        }
      ],
      "name": "HarvestDividend",
      "type": "event"
    },
    {
      "anonymous": false,
      "inputs": [
        {
          "indexed": true,
          "internalType": "address",
          "name": "token",
          "type": "address"
        },
        {
          "indexed": false,
          "internalType": "uint256",
          "name": "treasuryAmount",
          "type": "uint256"
        },
        {
          "indexed": false,
          "internalType": "uint256",
          "name": "teamAmount",
          "type": "uint256"
        }
      ],
      "name": "HouseEdgeDistribution",
      "type": "event"
    },
    {
      "anonymous": false,
      "inputs": [
        {
          "indexed": true,
          "internalType": "address",
          "name": "token",
          "type": "address"
        },
        {
          "indexed": false,
          "internalType": "uint256",
          "name": "partnerAmount",
          "type": "uint256"
        }
      ],
      "name": "HouseEdgePartnerDistribution",
      "type": "event"
    },
    {
      "anonymous": false,
      "inputs": [
        {
          "indexed": true,
          "internalType": "address",
          "name": "token",
          "type": "address"
        },
        {
          "indexed": false,
          "internalType": "uint256",
          "name": "newBalance",
          "type": "uint256"
        },
        {
          "indexed": false,
          "internalType": "uint256",
          "name": "profit",
          "type": "uint256"
        }
      ],
      "name": "Payout",
      "type": "event"
    },
    {
      "anonymous": false,
      "inputs": [
        {
          "indexed": true,
          "internalType": "bytes32",
          "name": "role",
          "type": "bytes32"
        },
        {
          "indexed": true,
          "internalType": "bytes32",
          "name": "previousAdminRole",
          "type": "bytes32"
        },
        {
          "indexed": true,
          "internalType": "bytes32",
          "name": "newAdminRole",
          "type": "bytes32"
        }
      ],
      "name": "RoleAdminChanged",
      "type": "event"
    },
    {
      "anonymous": false,
      "inputs": [
        {
          "indexed": true,
          "internalType": "bytes32",
          "name": "role",
          "type": "bytes32"
        },
        {
          "indexed": true,
          "internalType": "address",
          "name": "account",
          "type": "address"
        },
        {
          "indexed": true,
          "internalType": "address",
          "name": "sender",
          "type": "address"
        }
      ],
      "name": "RoleGranted",
      "type": "event"
    },
    {
      "anonymous": false,
      "inputs": [
        {
          "indexed": true,
          "internalType": "bytes32",
          "name": "role",
          "type": "bytes32"
        },
        {
          "indexed": true,
          "internalType": "address",
          "name": "account",
          "type": "address"
        },
        {
          "indexed": true,
          "internalType": "address",
          "name": "sender",
          "type": "address"
        }
      ],
      "name": "RoleRevoked",
      "type": "event"
    },
    {
      "anonymous": false,
      "inputs": [
        {
          "indexed": true,
          "internalType": "address",
          "name": "token",
          "type": "address"
        },
        {
          "indexed": false,
          "internalType": "bool",
          "name": "allowed",
          "type": "bool"
        }
      ],
      "name": "SetAllowedToken",
      "type": "event"
    },
    {
      "anonymous": false,
      "inputs": [
        {
          "indexed": true,
          "internalType": "address",
          "name": "token",
          "type": "address"
        },
        {
          "indexed": false,
          "internalType": "uint16",
          "name": "balanceRisk",
          "type": "uint16"
        }
      ],
      "name": "SetBalanceRisk",
      "type": "event"
    },
    {
      "anonymous": false,
      "inputs": [
        {
          "indexed": true,
          "internalType": "address",
          "name": "token",
          "type": "address"
        },
        {
          "indexed": false,
          "internalType": "uint256",
          "name": "minHouseEdgeWithdrawAmount",
          "type": "uint256"
        }
      ],
      "name": "SetMinHouseEdgeWithdrawAmount",
      "type": "event"
    },
    {
      "anonymous": false,
      "inputs": [
        {
          "indexed": true,
          "internalType": "address",
          "name": "token",
          "type": "address"
        },
        {
          "indexed": false,
          "internalType": "bool",
          "name": "paused",
          "type": "bool"
        }
      ],
      "name": "SetPausedToken",
      "type": "event"
    },
    {
      "anonymous": false,
      "inputs": [
        {
          "indexed": false,
          "internalType": "address",
          "name": "teamWallet",
          "type": "address"
        }
      ],
      "name": "SetTeamWallet",
      "type": "event"
    },
    {
      "anonymous": false,
      "inputs": [
        {
          "indexed": true,
          "internalType": "address",
          "name": "token",
          "type": "address"
        },
        {
          "indexed": false,
          "internalType": "uint16",
          "name": "bank",
          "type": "uint16"
        },
        {
          "indexed": false,
          "internalType": "uint16",
          "name": "dividend",
          "type": "uint16"
        },
        {
          "indexed": false,
          "internalType": "uint16",
          "name": "partner",
          "type": "uint16"
        },
        {
          "indexed": false,
          "internalType": "uint16",
          "name": "treasury",
          "type": "uint16"
        },
        {
          "indexed": false,
          "internalType": "uint16",
          "name": "team",
          "type": "uint16"
        }
      ],
      "name": "SetTokenHouseEdgeSplit",
      "type": "event"
    },
    {
      "anonymous": false,
      "inputs": [
        {
          "indexed": true,
          "internalType": "address",
          "name": "token",
          "type": "address"
        },
        {
          "indexed": false,
          "internalType": "uint256",
          "name": "minBetAmount",
          "type": "uint256"
        }
      ],
      "name": "SetTokenMinBetAmount",
      "type": "event"
    },
    {
      "anonymous": false,
      "inputs": [
        {
          "indexed": true,
          "internalType": "address",
          "name": "token",
          "type": "address"
        },
        {
          "indexed": false,
          "internalType": "address",
          "name": "partner",
          "type": "address"
        }
      ],
      "name": "SetTokenPartner",
      "type": "event"
    },
    {
      "anonymous": false,
      "inputs": [
        {
          "indexed": true,
          "internalType": "address",
          "name": "token",
          "type": "address"
        },
        {
          "indexed": false,
          "internalType": "uint64",
          "name": "subId",
          "type": "uint64"
        }
      ],
      "name": "SetTokenVRFSubId",
      "type": "event"
    },
    {
      "anonymous": false,
      "inputs": [
        {
          "indexed": true,
          "internalType": "address",
          "name": "token",
          "type": "address"
        },
        {
          "indexed": false,
          "internalType": "uint256",
          "name": "amount",
          "type": "uint256"
        }
      ],
      "name": "Withdraw",
      "type": "event"
    },
    {
      "inputs": [],
      "name": "DEFAULT_ADMIN_ROLE",
      "outputs": [
        {
          "internalType": "bytes32",
          "name": "",
          "type": "bytes32"
        }
      ],
      "stateMutability": "view",
      "type": "function"
    },
    {
      "inputs": [],
      "name": "GAME_ROLE",
      "outputs": [
        {
          "internalType": "bytes32",
          "name": "",
          "type": "bytes32"
        }
      ],
      "stateMutability": "view",
      "type": "function"
    },
    {
      "inputs": [],
      "name": "HARVESTER_ROLE",
      "outputs": [
        {
          "internalType": "bytes32",
          "name": "",
          "type": "bytes32"
        }
      ],
      "stateMutability": "view",
      "type": "function"
    },
    {
      "inputs": [
        {
          "internalType": "address",
          "name": "token",
          "type": "address"
        }
      ],
      "name": "addToken",
      "outputs": [],
      "stateMutability": "nonpayable",
      "type": "function"
    },
    {
      "inputs": [
        {
          "internalType": "address",
          "name": "tokenAddress",
          "type": "address"
        },
        {
          "internalType": "uint256",
          "name": "amount",
          "type": "uint256"
        },
        {
          "internalType": "uint256",
          "name": "fees",
          "type": "uint256"
        }
      ],
      "name": "cashIn",
      "outputs": [],
      "stateMutability": "payable",
      "type": "function"
    },
    {
      "inputs": [
        {
          "internalType": "bytes",
          "name": "checkData",
          "type": "bytes"
        }
      ],
      "name": "checkUpkeep",
      "outputs": [
        {
          "internalType": "bool",
          "name": "upkeepNeeded",
          "type": "bool"
        },
        {
          "internalType": "bytes",
          "name": "performData",
          "type": "bytes"
        }
      ],
      "stateMutability": "view",
      "type": "function"
    },
    {
      "inputs": [
        {
          "internalType": "address",
          "name": "token",
          "type": "address"
        },
        {
          "internalType": "uint256",
          "name": "amount",
          "type": "uint256"
        }
      ],
      "name": "deposit",
      "outputs": [],
      "stateMutability": "payable",
      "type": "function"
    },
    {
      "inputs": [
        {
          "internalType": "address",
          "name": "token",
          "type": "address"
        }
      ],
      "name": "getBalance",
      "outputs": [
        {
          "internalType": "uint256",
          "name": "",
          "type": "uint256"
        }
      ],
      "stateMutability": "view",
      "type": "function"
    },
    {
      "inputs": [
        {
          "internalType": "address",
          "name": "token",
          "type": "address"
        },
        {
          "internalType": "uint256",
          "name": "multiplier",
          "type": "uint256"
        }
      ],
      "name": "getMaxBetAmount",
      "outputs": [
        {
          "internalType": "uint256",
          "name": "",
          "type": "uint256"
        }
      ],
      "stateMutability": "view",
      "type": "function"
    },
    {
      "inputs": [
        {
          "internalType": "address",
          "name": "token",
          "type": "address"
        }
      ],
      "name": "getMinBetAmount",
      "outputs": [
        {
          "internalType": "uint256",
          "name": "minBetAmount",
          "type": "uint256"
        }
      ],
      "stateMutability": "view",
      "type": "function"
    },
    {
      "inputs": [
        {
          "internalType": "bytes32",
          "name": "role",
          "type": "bytes32"
        }
      ],
      "name": "getRoleAdmin",
      "outputs": [
        {
          "internalType": "bytes32",
          "name": "",
          "type": "bytes32"
        }
      ],
      "stateMutability": "view",
      "type": "function"
    },
    {
      "inputs": [
        {
          "internalType": "bytes32",
          "name": "role",
          "type": "bytes32"
        },
        {
          "internalType": "uint256",
          "name": "index",
          "type": "uint256"
        }
      ],
      "name": "getRoleMember",
      "outputs": [
        {
          "internalType": "address",
          "name": "",
          "type": "address"
        }
      ],
      "stateMutability": "view",
      "type": "function"
    },
    {
      "inputs": [
        {
          "internalType": "bytes32",
          "name": "role",
          "type": "bytes32"
        }
      ],
      "name": "getRoleMemberCount",
      "outputs": [
        {
          "internalType": "uint256",
          "name": "",
          "type": "uint256"
        }
      ],
      "stateMutability": "view",
      "type": "function"
    },
    {
      "inputs": [
        {
          "internalType": "address",
          "name": "token",
          "type": "address"
        }
      ],
      "name": "getTokenOwner",
      "outputs": [
        {
          "internalType": "address",
          "name": "",
          "type": "address"
        }
      ],
      "stateMutability": "view",
      "type": "function"
    },
    {
      "inputs": [],
      "name": "getTokens",
      "outputs": [
        {
          "components": [
            {
              "internalType": "uint8",
              "name": "decimals",
              "type": "uint8"
            },
            {
              "internalType": "address",
              "name": "tokenAddress",
              "type": "address"
            },
            {
              "internalType": "string",
              "name": "name",
              "type": "string"
            },
            {
              "internalType": "string",
              "name": "symbol",
              "type": "string"
            },
            {
              "components": [
                {
                  "internalType": "bool",
                  "name": "allowed",
                  "type": "bool"
                },
                {
                  "internalType": "bool",
                  "name": "paused",
                  "type": "bool"
                },
                {
                  "internalType": "uint16",
                  "name": "balanceRisk",
                  "type": "uint16"
                },
                {
                  "internalType": "uint64",
                  "name": "VRFSubId",
                  "type": "uint64"
                },
                {
                  "internalType": "address",
                  "name": "partner",
                  "type": "address"
                },
                {
                  "internalType": "uint256",
                  "name": "minBetAmount",
                  "type": "uint256"
                },
                {
                  "internalType": "uint256",
                  "name": "minHouseEdgeWithdrawAmount",
                  "type": "uint256"
                },
                {
                  "components": [
                    {
                      "internalType": "uint16",
                      "name": "bank",
                      "type": "uint16"
                    },
                    {
                      "internalType": "uint16",
                      "name": "dividend",
                      "type": "uint16"
                    },
                    {
                      "internalType": "uint16",
                      "name": "partner",
                      "type": "uint16"
                    },
                    {
                      "internalType": "uint16",
                      "name": "treasury",
                      "type": "uint16"
                    },
                    {
                      "internalType": "uint16",
                      "name": "team",
                      "type": "uint16"
                    },
                    {
                      "internalType": "uint256",
                      "name": "dividendAmount",
                      "type": "uint256"
                    },
                    {
                      "internalType": "uint256",
                      "name": "partnerAmount",
                      "type": "uint256"
                    },
                    {
                      "internalType": "uint256",
                      "name": "treasuryAmount",
                      "type": "uint256"
                    },
                    {
                      "internalType": "uint256",
                      "name": "teamAmount",
                      "type": "uint256"
                    }
                  ],
                  "internalType": "struct Bank.HouseEdgeSplit",
                  "name": "houseEdgeSplit",
                  "type": "tuple"
                }
              ],
              "internalType": "struct Bank.Token",
              "name": "token",
              "type": "tuple"
            }
          ],
          "internalType": "struct Bank.TokenMetadata[]",
          "name": "",
          "type": "tuple[]"
        }
      ],
      "stateMutability": "view",
      "type": "function"
    },
    {
      "inputs": [
        {
          "internalType": "address",
          "name": "token",
          "type": "address"
        }
      ],
      "name": "getVRFSubId",
      "outputs": [
        {
          "internalType": "uint64",
          "name": "",
          "type": "uint64"
        }
      ],
      "stateMutability": "view",
      "type": "function"
    },
    {
      "inputs": [
        {
          "internalType": "bytes32",
          "name": "role",
          "type": "bytes32"
        },
        {
          "internalType": "address",
          "name": "account",
          "type": "address"
        }
      ],
      "name": "grantRole",
      "outputs": [],
      "stateMutability": "nonpayable",
      "type": "function"
    },
    {
      "inputs": [],
      "name": "harvestDividends",
      "outputs": [],
      "stateMutability": "nonpayable",
      "type": "function"
    },
    {
      "inputs": [
        {
          "internalType": "bytes32",
          "name": "role",
          "type": "bytes32"
        },
        {
          "internalType": "address",
          "name": "account",
          "type": "address"
        }
      ],
      "name": "hasRole",
      "outputs": [
        {
          "internalType": "bool",
          "name": "",
          "type": "bool"
        }
      ],
      "stateMutability": "view",
      "type": "function"
    },
    {
      "inputs": [
        {
          "internalType": "address",
          "name": "tokenAddress",
          "type": "address"
        }
      ],
      "name": "isAllowedToken",
      "outputs": [
        {
          "internalType": "bool",
          "name": "",
          "type": "bool"
        }
      ],
      "stateMutability": "view",
      "type": "function"
    },
    {
      "inputs": [
        {
          "internalType": "bytes[]",
          "name": "data",
          "type": "bytes[]"
        }
      ],
      "name": "multicall",
      "outputs": [
        {
          "internalType": "bytes[]",
          "name": "results",
          "type": "bytes[]"
        }
      ],
      "stateMutability": "nonpayable",
      "type": "function"
    },
    {
      "inputs": [
        {
          "internalType": "address",
          "name": "user",
          "type": "address"
        },
        {
          "internalType": "address",
          "name": "token",
          "type": "address"
        },
        {
          "internalType": "uint256",
          "name": "profit",
          "type": "uint256"
        },
        {
          "internalType": "uint256",
          "name": "fees",
          "type": "uint256"
        }
      ],
      "name": "payout",
      "outputs": [],
      "stateMutability": "payable",
      "type": "function"
    },
    {
      "inputs": [
        {
          "internalType": "bytes",
          "name": "performData",
          "type": "bytes"
        }
      ],
      "name": "performUpkeep",
      "outputs": [],
      "stateMutability": "nonpayable",
      "type": "function"
    },
    {
      "inputs": [
        {
          "internalType": "bytes32",
          "name": "role",
          "type": "bytes32"
        },
        {
          "internalType": "address",
          "name": "account",
          "type": "address"
        }
      ],
      "name": "renounceRole",
      "outputs": [],
      "stateMutability": "nonpayable",
      "type": "function"
    },
    {
      "inputs": [
        {
          "internalType": "bytes32",
          "name": "role",
          "type": "bytes32"
        },
        {
          "internalType": "address",
          "name": "account",
          "type": "address"
        }
      ],
      "name": "revokeRole",
      "outputs": [],
      "stateMutability": "nonpayable",
      "type": "function"
    },
    {
      "inputs": [
        {
          "internalType": "address",
          "name": "token",
          "type": "address"
        },
        {
          "internalType": "bool",
          "name": "allowed",
          "type": "bool"
        }
      ],
      "name": "setAllowedToken",
      "outputs": [],
      "stateMutability": "nonpayable",
      "type": "function"
    },
    {
      "inputs": [
        {
          "internalType": "address",
          "name": "token",
          "type": "address"
        },
        {
          "internalType": "uint16",
          "name": "balanceRisk",
          "type": "uint16"
        }
      ],
      "name": "setBalanceRisk",
      "outputs": [],
      "stateMutability": "nonpayable",
      "type": "function"
    },
    {
      "inputs": [
        {
          "internalType": "address",
          "name": "token",
          "type": "address"
        },
        {
          "internalType": "uint16",
          "name": "bank",
          "type": "uint16"
        },
        {
          "internalType": "uint16",
          "name": "dividend",
          "type": "uint16"
        },
        {
          "internalType": "uint16",
          "name": "partner",
          "type": "uint16"
        },
        {
          "internalType": "uint16",
          "name": "_treasury",
          "type": "uint16"
        },
        {
          "internalType": "uint16",
          "name": "team",
          "type": "uint16"
        }
      ],
      "name": "setHouseEdgeSplit",
      "outputs": [],
      "stateMutability": "nonpayable",
      "type": "function"
    },
    {
      "inputs": [
        {
          "internalType": "address",
          "name": "token",
          "type": "address"
        },
        {
          "internalType": "uint256",
          "name": "minHouseEdgeWithdrawAmount",
          "type": "uint256"
        }
      ],
      "name": "setMinHouseEdgeWithdrawAmount",
      "outputs": [],
      "stateMutability": "nonpayable",
      "type": "function"
    },
    {
      "inputs": [
        {
          "internalType": "address",
          "name": "token",
          "type": "address"
        },
        {
          "internalType": "bool",
          "name": "paused",
          "type": "bool"
        }
      ],
      "name": "setPausedToken",
      "outputs": [],
      "stateMutability": "nonpayable",
      "type": "function"
    },
    {
      "inputs": [
        {
          "internalType": "address",
          "name": "_teamWallet",
          "type": "address"
        }
      ],
      "name": "setTeamWallet",
      "outputs": [],
      "stateMutability": "nonpayable",
      "type": "function"
    },
    {
      "inputs": [
        {
          "internalType": "address",
          "name": "token",
          "type": "address"
        },
        {
          "internalType": "uint256",
          "name": "tokenMinBetAmount",
          "type": "uint256"
        }
      ],
      "name": "setTokenMinBetAmount",
      "outputs": [],
      "stateMutability": "nonpayable",
      "type": "function"
    },
    {
      "inputs": [
        {
          "internalType": "address",
          "name": "token",
          "type": "address"
        },
        {
          "internalType": "address",
          "name": "partner",
          "type": "address"
        }
      ],
      "name": "setTokenPartner",
      "outputs": [],
      "stateMutability": "nonpayable",
      "type": "function"
    },
    {
      "inputs": [
        {
          "internalType": "address",
          "name": "token",
          "type": "address"
        },
        {
          "internalType": "uint64",
          "name": "subId",
          "type": "uint64"
        }
      ],
      "name": "setTokenVRFSubId",
      "outputs": [],
      "stateMutability": "nonpayable",
      "type": "function"
    },
    {
      "inputs": [
        {
          "internalType": "bytes4",
          "name": "interfaceId",
          "type": "bytes4"
        }
      ],
      "name": "supportsInterface",
      "outputs": [
        {
          "internalType": "bool",
          "name": "",
          "type": "bool"
        }
      ],
      "stateMutability": "view",
      "type": "function"
    },
    {
      "inputs": [],
      "name": "teamWallet",
      "outputs": [
        {
          "internalType": "address",
          "name": "",
          "type": "address"
        }
      ],
      "stateMutability": "view",
      "type": "function"
    },
    {
      "inputs": [
        {
          "internalType": "address",
          "name": "",
          "type": "address"
        }
      ],
      "name": "tokens",
      "outputs": [
        {
          "internalType": "bool",
          "name": "allowed",
          "type": "bool"
        },
        {
          "internalType": "bool",
          "name": "paused",
          "type": "bool"
        },
        {
          "internalType": "uint16",
          "name": "balanceRisk",
          "type": "uint16"
        },
        {
          "internalType": "uint64",
          "name": "VRFSubId",
          "type": "uint64"
        },
        {
          "internalType": "address",
          "name": "partner",
          "type": "address"
        },
        {
          "internalType": "uint256",
          "name": "minBetAmount",
          "type": "uint256"
        },
        {
          "internalType": "uint256",
          "name": "minHouseEdgeWithdrawAmount",
          "type": "uint256"
        },
        {
          "components": [
            {
              "internalType": "uint16",
              "name": "bank",
              "type": "uint16"
            },
            {
              "internalType": "uint16",
              "name": "dividend",
              "type": "uint16"
            },
            {
              "internalType": "uint16",
              "name": "partner",
              "type": "uint16"
            },
            {
              "internalType": "uint16",
              "name": "treasury",
              "type": "uint16"
            },
            {
              "internalType": "uint16",
              "name": "team",
              "type": "uint16"
            },
            {
              "internalType": "uint256",
              "name": "dividendAmount",
              "type": "uint256"
            },
            {
              "internalType": "uint256",
              "name": "partnerAmount",
              "type": "uint256"
            },
            {
              "internalType": "uint256",
              "name": "treasuryAmount",
              "type": "uint256"
            },
            {
              "internalType": "uint256",
              "name": "teamAmount",
              "type": "uint256"
            }
          ],
          "internalType": "struct Bank.HouseEdgeSplit",
          "name": "houseEdgeSplit",
          "type": "tuple"
        }
      ],
      "stateMutability": "view",
      "type": "function"
    },
    {
      "inputs": [],
      "name": "treasury",
      "outputs": [
        {
          "internalType": "address",
          "name": "",
          "type": "address"
        }
      ],
      "stateMutability": "view",
      "type": "function"
    },
    {
      "inputs": [
        {
          "internalType": "address",
          "name": "token",
          "type": "address"
        },
        {
          "internalType": "uint256",
          "name": "amount",
          "type": "uint256"
        }
      ],
      "name": "withdraw",
      "outputs": [],
      "stateMutability": "nonpayable",
      "type": "function"
    },
    {
      "inputs": [
        {
          "internalType": "address",
          "name": "tokenAddress",
          "type": "address"
        }
      ],
      "name": "withdrawHouseEdgeAmount",
      "outputs": [],
      "stateMutability": "nonpayable",
      "type": "function"
    },
    {
      "inputs": [
        {
          "internalType": "address",
          "name": "tokenAddress",
          "type": "address"
        }
      ],
      "name": "withdrawPartnerAmount",
      "outputs": [],
      "stateMutability": "nonpayable",
      "type": "function"
    }
  ],
  "transactionHash": "0x3cdd4c8694b702134ee191768a4e2ada922149903dd27b35680ba7040e7992ff",
  "args": [
    "0xc627Cbc4027E1B2C392Cd4FD204dbD55483561f2",
    "0xb6A2f9b8fd10E7AfBac15b3DB96828B018A909d7"
  ],
  "solcInputHash": "ce7a40fa501889c21d564559156935d6",
  "bytecode": "0x60a06040523480156200001157600080fd5b50604051620042ac380380620042ac83398101604081905262000034916200050c565b6001600160a01b0382166200005c57604051630d23cf4160e11b815260040160405180910390fd5b6001600160a01b0382166080526200007660003362000089565b620000818162000099565b5050620006a4565b6200009582826200012e565b5050565b6000620000a68162000171565b6001600160a01b038216620000ce57604051630d23cf4160e11b815260040160405180910390fd5b60028054610100600160a81b0319166101006001600160a01b038581168202929092179283905560405192041681527fc6a5dd316fe9d0339f2769deab7e31f64c8f5b101ffd85dfc9a83dbeaf2e69da9060200160405180910390a15050565b6200014582826200018060201b620024931760201c565b60008281526001602090815260409091206200016c9183906200251762000220821b17901c565b505050565b6200017d813362000240565b50565b6000828152602081815260408083206001600160a01b038516845290915290205460ff1662000095576000828152602081815260408083206001600160a01b03851684529091529020805460ff19166001179055620001dc3390565b6001600160a01b0316816001600160a01b0316837f2f8788117e7eff1d82e926ec794901d17c78024a50270940304540a733656f0d60405160405180910390a45050565b600062000237836001600160a01b038416620002e4565b90505b92915050565b6000828152602081815260408083206001600160a01b038516845290915290205460ff1662000095576200028a816001600160a01b031660146200033660201b6200252c1760201c565b620002a08360206200252c62000336821b17811c565b604051602001620002b39291906200056a565b60408051601f198184030181529082905262461bcd60e51b8252620002db91600401620005e3565b60405180910390fd5b60008181526001830160205260408120546200032d575081546001818101845560008481526020808220909301849055845484825282860190935260409020919091556200023a565b5060006200023a565b60606000620003478360026200062e565b6200035490600262000648565b6001600160401b038111156200036e576200036e6200065e565b6040519080825280601f01601f19166020018201604052801562000399576020820181803683370190505b509050600360fc1b81600081518110620003b757620003b762000674565b60200101906001600160f81b031916908160001a905350600f60fb1b81600181518110620003e957620003e962000674565b60200101906001600160f81b031916908160001a90535060006200040f8460026200062e565b6200041c90600162000648565b90505b60018111156200049e576f181899199a1a9b1b9c1cb0b131b232b360811b85600f166010811062000454576200045462000674565b1a60f81b8282815181106200046d576200046d62000674565b60200101906001600160f81b031916908160001a90535060049490941c9362000496816200068a565b90506200041f565b508315620002375760405162461bcd60e51b815260206004820181905260248201527f537472696e67733a20686578206c656e67746820696e73756666696369656e746044820152606401620002db565b80516001600160a01b03811681146200050757600080fd5b919050565b600080604083850312156200052057600080fd5b6200052b83620004ef565b91506200053b60208401620004ef565b90509250929050565b60005b838110156200056157818101518382015260200162000547565b50506000910152565b7f416363657373436f6e74726f6c3a206163636f756e7420000000000000000000815260008351620005a481601785016020880162000544565b7001034b99036b4b9b9b4b733903937b6329607d1b6017918401918201528351620005d781602884016020880162000544565b01602801949350505050565b60208152600082518060208401526200060481604085016020870162000544565b601f01601f19169190910160400192915050565b634e487b7160e01b600052601160045260246000fd5b80820281158282048414176200023a576200023a62000618565b808201808211156200023a576200023a62000618565b634e487b7160e01b600052604160045260246000fd5b634e487b7160e01b600052603260045260246000fd5b6000816200069c576200069c62000618565b506000190190565b608051613be5620006c7600039600081816104d3015261094f0152613be56000f3fe6080604052600436106102465760003560e01c8063802ad8fb11610139578063ca15c873116100b6578063dc17c9ca1161007a578063dc17c9ca14610745578063e486033914610765578063f3fef3a314610867578063f6b2a2f114610887578063f743b84c146108a7578063f8b2cb4f146108c757600080fd5b8063ca15c873146106b2578063cbe230c3146106d2578063d41b8c6f146106f2578063d48bfca714610705578063d547741f1461072557600080fd5b8063aa6ca808116100fd578063aa6ca80814610601578063ab40070614610623578063ac9650d814610645578063bc3ec38314610672578063c437afde1461069257600080fd5b8063802ad8fb146105775780638aaa22841461058c5780639010d07c146105ac57806391d14854146105cc578063a217fddf146105ec57600080fd5b806338c64d2f116101c7578063599270441161018b578063599270441461048457806361d027b3146104c157806363a560ec146104f55780636dfa8e52146105295780636e04ff0d1461054957600080fd5b806338c64d2f146103f15780634297dcbe146104115780634585e33b1461043157806347e7ef241461045157806356f0406d1461046457600080fd5b8063278b39de1161020e578063278b39de14610313578063279e3415146103335780632ee99d3e146103915780632f2ff15d146103b157806336568abe146103d157600080fd5b806301ffc9a71461024b5780630ae30cb0146102805780631525ff7d146102a25780631f615023146102c2578063248a9ca3146102d5575b600080fd5b34801561025757600080fd5b5061026b610266366004613158565b6108e7565b60405190151581526020015b60405180910390f35b34801561028c57600080fd5b506102a061029b366004613197565b610912565b005b3480156102ae57600080fd5b506102a06102bd366004613197565b6109fc565b6102a06102d03660046131b4565b610a8f565b3480156102e157600080fd5b506103056102f03660046131fa565b60009081526020819052604090206001015490565b604051908152602001610277565b34801561031f57600080fd5b5061030561032e366004613213565b610b0f565b34801561033f57600080fd5b5061037961034e366004613197565b6001600160a01b0316600090815260036020526040902054600160201b90046001600160401b031690565b6040516001600160401b039091168152602001610277565b34801561039d57600080fd5b506102a06103ac366004613251565b610b58565b3480156103bd57600080fd5b506102a06103cc3660046132c7565b610d06565b3480156103dd57600080fd5b506102a06103ec3660046132c7565b610d30565b3480156103fd57600080fd5b506102a061040c366004613197565b610dae565b34801561041d57600080fd5b506102a061042c366004613213565b610e5b565b34801561043d57600080fd5b506102a061044c3660046132f7565b610f0e565b6102a061045f366004613213565b6110c4565b34801561047057600080fd5b506102a061047f366004613368565b61118d565b34801561049057600080fd5b506002546104a99061010090046001600160a01b031681565b6040516001600160a01b039091168152602001610277565b3480156104cd57600080fd5b506104a97f000000000000000000000000000000000000000000000000000000000000000081565b34801561050157600080fd5b506103057f3fc733b4d20d27a28452ddf0e9351aced28242fe03389a653cdb783955316b9b81565b34801561053557600080fd5b506102a061054436600461339d565b611255565b34801561055557600080fd5b506105696105643660046132f7565b6112d3565b604051610277929190613427565b34801561058357600080fd5b506102a06114a2565b34801561059857600080fd5b506102a06105a7366004613450565b611580565b3480156105b857600080fd5b506104a96105c736600461347e565b6115e3565b3480156105d857600080fd5b5061026b6105e73660046132c7565b6115fb565b3480156105f857600080fd5b50610305600081565b34801561060d57600080fd5b50610616611624565b6040516102779190613518565b34801561062f57600080fd5b50610305600080516020613b6983398151915281565b34801561065157600080fd5b50610665610660366004613648565b6119f8565b60405161027791906136aa565b34801561067e57600080fd5b506102a061068d36600461370c565b611aec565b34801561069e57600080fd5b506102a06106ad366004613450565b611c89565b3480156106be57600080fd5b506103056106cd3660046131fa565b611d4b565b3480156106de57600080fd5b5061026b6106ed366004613197565b611d62565b6102a061070036600461373a565b611e8b565b34801561071157600080fd5b506102a0610720366004613197565b611efb565b34801561073157600080fd5b506102a06107403660046132c7565b61200f565b34801561075157600080fd5b506104a9610760366004613197565b612034565b34801561077157600080fd5b50610853610780366004613197565b6003602081815260009283526040928390208054600182015460028301548651610120810188529584015461ffff808216885262010000808304821697890197909752600160201b808304821699890199909952600160301b820481166060890152600160401b90910481166080880152600485015460a0880152600585015460c0880152600685015460e08801526007909401546101008088019190915260ff808516989185041696958404909416949383046001600160401b031693600160601b9093046001600160a01b03169288565b60405161027798979695949392919061376f565b34801561087357600080fd5b506102a0610882366004613213565b612069565b34801561089357600080fd5b506103056108a2366004613197565b61225c565b3480156108b357600080fd5b506102a06108c2366004613213565b61228c565b3480156108d357600080fd5b506103056108e2366004613197565b61233f565b60006001600160e01b03198216635a05180f60e01b148061090c575061090c826126c7565b92915050565b6001600160a01b038116600090815260036020819052604090912060068101546007820154919092019190811561097557600060038401556109757f000000000000000000000000000000000000000000000000000000000000000085846126fc565b801561099e576000600484015560025461099e9061010090046001600160a01b031685836126fc565b811515806109ab57508015155b156109f65760408051838152602081018390526001600160a01b038616917f0146f1701c23c89f761280798d36d6c4e3acb349438456f5da8f83a2f5dd8cdc91015b60405180910390a25b50505050565b6000610a0781612728565b6001600160a01b038216610a2e57604051630d23cf4160e11b815260040160405180910390fd5b60028054610100600160a81b0319166101006001600160a01b038581168202929092179283905560405192041681527fc6a5dd316fe9d0339f2769deab7e31f64c8f5b101ffd85dfc9a83dbeaf2e69da906020015b60405180910390a15050565b600080516020613b69833981519152610aa781612728565b610ab18483612735565b610abc8585856126fc565b836001600160a01b03167f634235fcf5af0adbca1a405ec65f6f6c08f55e1f379c2c45cd10f23cb29e0e31610af08661233f565b6040805191825260208201879052015b60405180910390a25050505050565b6001600160a01b038216600090815260036020526040812054829062010000900461ffff16610b3d8561233f565b610b4791906137e7565b610b5191906137fe565b9392505050565b6000610b6381612728565b6000838584610b72898b613820565b610b7c9190613820565b610b869190613820565b610b909190613820565b90508061ffff1661271014610bc3576040516318410e1160e21b815261ffff821660048201526024015b60405180910390fd5b6000600360008a6001600160a01b03166001600160a01b031681526020019081526020016000206003019050878160000160006101000a81548161ffff021916908361ffff160217905550868160000160026101000a81548161ffff021916908361ffff160217905550858160000160046101000a81548161ffff021916908361ffff160217905550848160000160066101000a81548161ffff021916908361ffff160217905550838160000160086101000a81548161ffff021916908361ffff160217905550886001600160a01b03167f87512489f5b5226512d8f1bfede20d9e809ff4042f028da79c833ed04baa83978989898989604051610cf395949392919061ffff95861681529385166020850152918416604084015283166060830152909116608082015260a00190565b60405180910390a2505050505050505050565b600082815260208190526040902060010154610d2181612728565b610d2b83836128f6565b505050565b6001600160a01b0381163314610da05760405162461bcd60e51b815260206004820152602f60248201527f416363657373436f6e74726f6c3a2063616e206f6e6c792072656e6f756e636560448201526e103937b632b9903337b91039b2b63360891b6064820152608401610bba565b610daa8282612918565b5050565b6001600160a01b038116600090815260036020526040902060058101548015801590610dea57508154600160601b90046001600160a01b031615155b15610d2b57600060058301558154610e1390600160601b90046001600160a01b031684836126fc565b826001600160a01b03167f1aa0fc6b9bc54a055d93b640b2c7313e0bd2944482e0b6b5fec7048bbdaacd8182604051610e4e91815260200190565b60405180910390a2505050565b6001600160a01b0380831660009081526003602052604081205490918491600160601b90041680610e9557610e90833361293a565b610ebe565b336001600160a01b03821614610ebe57604051634ca8886760e01b815260040160405180910390fd5b6001600160a01b03851660008181526003602052604090819020600101869055517f8b4a07860448b613116df3f175c837980eceaca7d1dc5143c46a20ab31ec00f990610b009087815260200190565b600080610f1d8385018561383b565b6001600160a01b03818116600090815260036020818152604080842081516101008082018452825460ff80821615158452828204161515838701526201000080820461ffff90811685880152600160201b8084046001600160401b0316606080880191909152600160601b909404909b16608080870191909152600187015460a080880191909152600288015460c080890191909152895161012081018b529b8901548085168d5294850484169a8c019a909a529b83048216978a0197909752600160301b8204811692890192909252600160401b90041693860193909352600482015496850196909652600581015492840192909252600682015460e08085019190915260079092015490830152830152929450909250908360018111156110485761104861385d565b14801561106057508060c001518160e0015160c00151115b156110735761106e82610dae565b6110bd565b60018360018111156110875761108761385d565b1480156110af575060c081015160e0808301516101008101519101516110ad9190613873565b115b156110bd576110bd82610912565b5050505050565b6001600160a01b0380831660009081526003602052604081205490918491600160601b900416806110fe576110f9833361293a565b611127565b336001600160a01b0382161461112757604051634ca8886760e01b815260040160405180910390fd5b6001600160a01b03851661113d57349350611152565b6111526001600160a01b03861633308761299e565b846001600160a01b03167fe1fffcc4923d04b559f4d29a8bfc6cda04eb5b0d3c460751c2402c5c5cc9109c85604051610b0091815260200190565b6001600160a01b0380831660009081526003602052604081205490918491600160601b900416806111c7576111c2833361293a565b6111f0565b336001600160a01b038216146111f057604051634ca8886760e01b815260040160405180910390fd5b6001600160a01b038516600081815260036020908152604091829020805463ffff000019166201000061ffff8a169081029190911790915591519182527f68288b0936dd994d19323ee940b2703e7bf46fae2552319d60dc1239ba52ec689101610b00565b600061126081612728565b6001600160a01b03831660008181526003602090815260409182902080546bffffffffffffffff000000001916600160201b6001600160401b0388169081029190911790915591519182527fae367543cf47ca7e51a9f3f92711553aa33777847f719f7e2821ea8d846ed0e19101610e4e565b6000606081806112e58587018761383b565b6001600160a01b03818116600090815260036020818152604080842081516101008082018452825460ff80821615158452828204161515838701526201000080820461ffff90811685880152600160201b8084046001600160401b0316606080880191909152600160601b909404909b16608080870191909152600187015460a080880191909152600288015460c080890191909152895161012081018b529b8901548085168d5294850484169a8c019a909a529b83048216978a0197909752600160301b8204811692890192909252600160401b90041693860193909352600482015496850196909652600581015492840192909252600682015460e08085019190915260079092015490830152830152929450909250908360018111156114105761141061385d565b14801561142857508060c001518160e0015160c00151115b8061146a575060018360018111156114425761144261385d565b14801561146a575060c081015160e0808301516101008101519101516114689190613873565b115b1561149857600194508282604051602001611486929190613886565b60405160208183030381529060405293505b5050509250929050565b7f3fc733b4d20d27a28452ddf0e9351aced28242fe03389a653cdb783955316b9b6114cc81612728565b60005b60025460ff9081169082161015610daa5760ff81166000908152600460208181526040808420546001600160a01b0316808552600390925290922090810154801561156a57600060048301556115263384836126fc565b826001600160a01b03167fca64dbcaf91abfb066e7a5163f1d135f8f48f2cbdb0395e3b35cc278ebbd340b8260405161156191815260200190565b60405180910390a25b5050508080611578906138c0565b9150506114cf565b600061158b81612728565b6001600160a01b038316600081815260036020908152604091829020805460ff191686151590811790915591519182527fe589eb036e62c07e307aa4d441bd39c81e8bd86f349eaacb0caa06b1477f7f9a9101610e4e565b6000828152600160205260408120610b519083612a09565b6000918252602082815260408084206001600160a01b0393909316845291905290205460ff1690565b60025460609060009060ff166001600160401b03811115611647576116476138df565b60405190808252806020026020018201604052801561168057816020015b61166d61309b565b8152602001906001900390816116655790505b50905060005b60025460ff90811690821610156119f25760ff8181166000908152600460208181526040808420546001600160a01b03908116808652600380855295839020835161010080820186528254808b1615158352818104909a1615158288015262010000808b0461ffff90811684890152600160201b808d046001600160401b0316606080870191909152600160601b909d04909716608080860191909152600186015460a080870191909152600287015460c0808801919091528a5161012081018c529d8801548085168f5294850484169b8e019b909b529783048216988c0198909852600160301b820481169b8b019b909b52600160401b9004909916948801949094529485015491860191909152600584015492850192909252600683015460e08086019190915260079093015494840194909452908301919091529081611858576040518060a00160405280601260ff168152602001836001600160a01b031681526020016040518060400160405280600381526020016208aa8960eb1b81525081526020016040518060400160405280600381526020016208aa8960eb1b815250815260200182815250848460ff1681518110611848576118486138f5565b60200260200101819052506119dd565b60008290506040518060a00160405280826001600160a01b031663313ce5676040518163ffffffff1660e01b8152600401602060405180830381865afa1580156118a6573d6000803e3d6000fd5b505050506040513d601f19601f820116820180604052508101906118ca919061390b565b60ff168152602001846001600160a01b03168152602001826001600160a01b03166306fdde036040518163ffffffff1660e01b8152600401600060405180830381865afa15801561191f573d6000803e3d6000fd5b505050506040513d6000823e601f3d908101601f19168201604052611947919081019061392e565b8152602001826001600160a01b03166395d89b416040518163ffffffff1660e01b8152600401600060405180830381865afa15801561198a573d6000803e3d6000fd5b505050506040513d6000823e601f3d908101601f191682016040526119b2919081019061392e565b815260200183815250858560ff16815181106119d0576119d06138f5565b6020026020010181905250505b505080806119ea906138c0565b915050611686565b50919050565b6060816001600160401b03811115611a1257611a126138df565b604051908082528060200260200182016040528015611a4557816020015b6060815260200190600190039081611a305790505b50905060005b82811015611ae557611ab530858584818110611a6957611a696138f5565b9050602002810190611a7b91906139cf565b8080601f016020809104026020016040519081016040528093929190818152602001838380828437600092019190915250612a1592505050565b828281518110611ac757611ac76138f5565b60200260200101819052508080611add90613a1c565b915050611a4b565b5092915050565b6001600160a01b0380831660009081526003602052604081205490918491600160601b90041680611b2657611b21833361293a565b611b4f565b336001600160a01b03821614611b4f57604051634ca8886760e01b815260040160405180910390fd5b6000611b68600080516020613b69833981519152611d4b565b905060005b81811015611bfd57611b8d600080516020613b69833981519152826115e3565b60405163383e6aaf60e11b81526001600160a01b038981166004830152919091169063707cd55e90602401600060405180830381600087803b158015611bd257600080fd5b505af1158015611be6573d6000803e3d6000fd5b505050508080611bf590613a1c565b915050611b6d565b50611c0786610dae565b611c14866108828861233f565b6001600160a01b0386811660008181526003602090815260409182902080546bffffffffffffffffffffffff16600160601b958b16958602179055905192835290917fc991529379552af6d0789cc899d5180a270a4bc3b1a3892adcac3d95f93dda1d910160405180910390a2505050505050565b6001600160a01b0380831660009081526003602052604081205490918491600160601b90041680611cc357611cbe833361293a565b611cec565b336001600160a01b03821614611cec57604051634ca8886760e01b815260040160405180910390fd5b6001600160a01b0385166000818152600360205260409081902080548715156101000261ff0019909116179055517f624dd6809915867c3c11279c2699633040681f0e4efb0fa9a193217a11903c6090610b0090871515815260200190565b600081815260016020526040812061090c90612a3a565b6001600160a01b03818116600090815260036020818152604080842081516101008082018452825460ff80821615158452828204161515838701526201000080820461ffff90811685880152600160201b8084046001600160401b0316606080880191909152600160601b909404909b16608080870191909152600187015460a080880191909152600288015460c080890191909152895161012081018b529b8901548085168d5294850484169a8c019a909a529b83048216978a0197909752600160301b8204811692890192909252600160401b90041693860193909352600482015496850196909652600581015492840192909252600682015460e0808501919091526007909201549083015283015281519091908015610b515750602001511592915050565b600080516020613b69833981519152611ea381612728565b8115611eb357611eb38483612735565b836001600160a01b03167f812b76b477469edc716929cbf7ed54e3d9c1a68d8b9f8290dbabcda54d96fcbe611ee78661233f565b6040805191825260208201879052016109ed565b6000611f0681612728565b60025460ff1615611f775760005b60025460ff9081169082161015611f755760ff81166000908152600460205260409020546001600160a01b03808516911603611f6357604051632ae3f45d60e11b815260040160405180910390fd5b80611f6d816138c0565b915050611f14565b505b6002805460ff908116600090815260046020526040812080546001600160a01b0319166001600160a01b038716179055825460019392611fb991859116613a35565b92506101000a81548160ff021916908360ff1602179055507fe473c74f34be27c1464d6624f14a0d7fd4e301cbfa29c3eba425d378c8a7ebe082604051610a8391906001600160a01b0391909116815260200190565b60008281526020819052604090206001015461202a81612728565b610d2b8383612918565b6001600160a01b038082166000908152600360205260408120549091600160601b909104168061090c57610b516000806115e3565b6001600160a01b0380831660009081526003602052604081205490918491600160601b900416806120a35761209e833361293a565b6120cc565b336001600160a01b038216146120cc57604051634ca8886760e01b815260040160405180910390fd5b60006120d78661233f565b90508015612254576001600160a01b038616600090815260036020526040902054610100900460ff1661211d576040516393b3a85d60e01b815260040160405180910390fd5b6000612136600080516020613b69833981519152611d4b565b905060005b818110156121f75761215b600080516020613b69833981519152826115e3565b60405163594043fd60e01b81526001600160a01b038a81166004830152919091169063594043fd90602401602060405180830381865afa1580156121a3573d6000803e3d6000fd5b505050506040513d601f19601f820116820180604052508101906121c79190613a4e565b156121e55760405163055212b760e51b815260040160405180910390fd5b806121ef81613a1c565b91505061213b565b5081861115612204578195505b61220f3388886126fc565b866001600160a01b03167f884edad9ce6fa2440d8a54cc123490eb96d2768479d49ff9c7366125a94243648760405161224a91815260200190565b60405180910390a2505b505050505050565b6001600160a01b03811660009081526003602052604090206001015461271081101561228757506127105b919050565b6001600160a01b0380831660009081526003602052604081205490918491600160601b900416806122c6576122c1833361293a565b6122ef565b336001600160a01b038216146122ef57604051634ca8886760e01b815260040160405180910390fd5b6001600160a01b03851660008181526003602052604090819020600201869055517f2c799d8bd0ce047a73ee6661740b3e780a2a13dd04c1201fca543f181bdff5ff90610b009087815260200190565b6000806001600160a01b0383166123575750476123c2565b6040516370a0823160e01b81523060048201526001600160a01b038416906370a0823190602401602060405180830381865afa15801561239b573d6000803e3d6000fd5b505050506040513d601f19601f820116820180604052508101906123bf9190613a6b565b90505b6001600160a01b0383166000908152600360208181526040928390208351610120810185529281015461ffff8082168552620100008204811693850193909352600160201b8104831694840194909452600160301b840482166060840152600160401b909304166080820152600482015460a08201819052600583015460c08301819052600684015460e08401819052600790940154610100840181905292939161246d9086613a84565b6124779190613a84565b6124819190613a84565b61248b9190613a84565b949350505050565b61249d82826115fb565b610daa576000828152602081815260408083206001600160a01b03851684529091529020805460ff191660011790556124d33390565b6001600160a01b0316816001600160a01b0316837f2f8788117e7eff1d82e926ec794901d17c78024a50270940304540a733656f0d60405160405180910390a45050565b6000610b51836001600160a01b038416612a44565b6060600061253b8360026137e7565b612546906002613873565b6001600160401b0381111561255d5761255d6138df565b6040519080825280601f01601f191660200182016040528015612587576020820181803683370190505b509050600360fc1b816000815181106125a2576125a26138f5565b60200101906001600160f81b031916908160001a905350600f60fb1b816001815181106125d1576125d16138f5565b60200101906001600160f81b031916908160001a90535060006125f58460026137e7565b612600906001613873565b90505b6001811115612678576f181899199a1a9b1b9c1cb0b131b232b360811b85600f1660108110612634576126346138f5565b1a60f81b82828151811061264a5761264a6138f5565b60200101906001600160f81b031916908160001a90535060049490941c9361267181613a97565b9050612603565b508315610b515760405162461bcd60e51b815260206004820181905260248201527f537472696e67733a20686578206c656e67746820696e73756666696369656e746044820152606401610bba565b60006001600160e01b03198216637965db0b60e01b148061090c57506301ffc9a760e01b6001600160e01b031983161461090c565b6001600160a01b03821661271457610d2b8382612a93565b610d2b6001600160a01b0383168483612bac565b612732813361293a565b50565b6001600160a01b03821660009081526003602081905260408220018054909190600160201b900461ffff16156127a65781546127109061278090600160201b900461ffff16856137e7565b61278a91906137fe565b9050808260020160008282546127a09190613873565b90915550505b8154600090612710906127c39062010000900461ffff16866137e7565b6127cd91906137fe565b9050808360010160008282546127e39190613873565b90915550508254600090612710906127ff9061ffff16876137e7565b61280991906137fe565b84549091506000906127109061282a90600160301b900461ffff16886137e7565b61283491906137fe565b90508085600301600082825461284a9190613873565b909155505084546000906127109061286d90600160401b900461ffff16896137e7565b61287791906137fe565b90508086600401600082825461288d9190613873565b9091555050604080518481526020810186905290810186905260608101839052608081018290526001600160a01b038916907fc73e6f5bcd4395126567ead7e4c14b7c52a5f0b9eabd3335a05e631646a127e39060a00160405180910390a25050505050505050565b6129008282612493565b6000828152600160205260409020610d2b9082612517565b6129228282612bdc565b6000828152600160205260409020610d2b9082612c41565b61294482826115fb565b610daa5761295c816001600160a01b0316601461252c565b61296783602061252c565b604051602001612978929190613aae565b60408051601f198184030181529082905262461bcd60e51b8252610bba91600401613b23565b6040516001600160a01b03808516602483015283166044820152606481018290526109f69085906323b872dd60e01b906084015b60408051601f198184030181529190526020810180516001600160e01b03166001600160e01b031990931692909217909152612c56565b6000610b518383612d28565b6060610b518383604051806060016040528060278152602001613b8960279139612d52565b600061090c825490565b6000818152600183016020526040812054612a8b5750815460018181018455600084815260208082209093018490558454848252828601909352604090209190915561090c565b50600061090c565b80471015612ae35760405162461bcd60e51b815260206004820152601d60248201527f416464726573733a20696e73756666696369656e742062616c616e63650000006044820152606401610bba565b6000826001600160a01b03168260405160006040518083038185875af1925050503d8060008114612b30576040519150601f19603f3d011682016040523d82523d6000602084013e612b35565b606091505b5050905080610d2b5760405162461bcd60e51b815260206004820152603a60248201527f416464726573733a20756e61626c6520746f2073656e642076616c75652c207260448201527f6563697069656e74206d617920686176652072657665727465640000000000006064820152608401610bba565b6040516001600160a01b038316602482015260448101829052610d2b90849063a9059cbb60e01b906064016129d2565b612be682826115fb565b15610daa576000828152602081815260408083206001600160a01b0385168085529252808320805460ff1916905551339285917ff6391f5c32d9c69d2a47ea670b442974b53935d1edc7fd64eb21e047a839171b9190a45050565b6000610b51836001600160a01b038416612e2f565b6000612cab826040518060400160405280602081526020017f5361666545524332303a206c6f772d6c6576656c2063616c6c206661696c6564815250856001600160a01b0316612f229092919063ffffffff16565b805190915015610d2b5780806020019051810190612cc99190613a4e565b610d2b5760405162461bcd60e51b815260206004820152602a60248201527f5361666545524332303a204552433230206f7065726174696f6e20646964206e6044820152691bdd081cdd58d8d9595960b21b6064820152608401610bba565b6000826000018281548110612d3f57612d3f6138f5565b9060005260206000200154905092915050565b60606001600160a01b0384163b612dba5760405162461bcd60e51b815260206004820152602660248201527f416464726573733a2064656c65676174652063616c6c20746f206e6f6e2d636f6044820152651b9d1c9858dd60d21b6064820152608401610bba565b600080856001600160a01b031685604051612dd59190613b36565b600060405180830381855af49150503d8060008114612e10576040519150601f19603f3d011682016040523d82523d6000602084013e612e15565b606091505b5091509150612e25828286612f31565b9695505050505050565b60008181526001830160205260408120548015612f18576000612e53600183613a84565b8554909150600090612e6790600190613a84565b9050818114612ecc576000866000018281548110612e8757612e876138f5565b9060005260206000200154905080876000018481548110612eaa57612eaa6138f5565b6000918252602080832090910192909255918252600188019052604090208390555b8554869080612edd57612edd613b52565b60019003818190600052602060002001600090559055856001016000868152602001908152602001600020600090556001935050505061090c565b600091505061090c565b606061248b8484600085612f6a565b60608315612f40575081610b51565b825115612f505782518084602001fd5b8160405162461bcd60e51b8152600401610bba9190613b23565b606082471015612fcb5760405162461bcd60e51b815260206004820152602660248201527f416464726573733a20696e73756666696369656e742062616c616e636520666f6044820152651c8818d85b1b60d21b6064820152608401610bba565b6001600160a01b0385163b6130225760405162461bcd60e51b815260206004820152601d60248201527f416464726573733a2063616c6c20746f206e6f6e2d636f6e74726163740000006044820152606401610bba565b600080866001600160a01b0316858760405161303e9190613b36565b60006040518083038185875af1925050503d806000811461307b576040519150601f19603f3d011682016040523d82523d6000602084013e613080565b606091505b5091509150613090828286612f31565b979650505050505050565b6040518060a00160405280600060ff16815260200160006001600160a01b031681526020016060815260200160608152602001613153604080516101008082018352600080835260208084018290528385018290526060808501839052608080860184905260a080870185905260c0808801869052885161012081018a528681529485018690529784018590529183018490528201839052810182905293840181905260e08481018290529184015290919082015290565b905290565b60006020828403121561316a57600080fd5b81356001600160e01b031981168114610b5157600080fd5b6001600160a01b038116811461273257600080fd5b6000602082840312156131a957600080fd5b8135610b5181613182565b600080600080608085870312156131ca57600080fd5b84356131d581613182565b935060208501356131e581613182565b93969395505050506040820135916060013590565b60006020828403121561320c57600080fd5b5035919050565b6000806040838503121561322657600080fd5b823561323181613182565b946020939093013593505050565b803561ffff8116811461228757600080fd5b60008060008060008060c0878903121561326a57600080fd5b863561327581613182565b95506132836020880161323f565b94506132916040880161323f565b935061329f6060880161323f565b92506132ad6080880161323f565b91506132bb60a0880161323f565b90509295509295509295565b600080604083850312156132da57600080fd5b8235915060208301356132ec81613182565b809150509250929050565b6000806020838503121561330a57600080fd5b82356001600160401b038082111561332157600080fd5b818501915085601f83011261333557600080fd5b81358181111561334457600080fd5b86602082850101111561335657600080fd5b60209290920196919550909350505050565b6000806040838503121561337b57600080fd5b823561338681613182565b91506133946020840161323f565b90509250929050565b600080604083850312156133b057600080fd5b82356133bb81613182565b915060208301356001600160401b03811681146132ec57600080fd5b60005b838110156133f25781810151838201526020016133da565b50506000910152565b600081518084526134138160208601602086016133d7565b601f01601f19169290920160200192915050565b821515815260406020820152600061248b60408301846133fb565b801515811461273257600080fd5b6000806040838503121561346357600080fd5b823561346e81613182565b915060208301356132ec81613442565b6000806040838503121561349157600080fd5b50508035926020909101359150565b61ffff8082511683528060208301511660208401528060408301511660408401525060608101516134d7606084018261ffff169052565b5060808101516134ed608084018261ffff169052565b5060a0818101519083015260c0808201519083015260e0808201519083015261010090810151910152565b60006020808301818452808551808352604092508286019150828160051b87010184880160005b8381101561363a57888303603f190185528151805160ff168452878101516001600160a01b0316888501528681015161028088860181905290613584828701826133fb565b9150506060808301518683038288015261359e83826133fb565b925050608080840151935083511515818801528a84015160a0811515818a01528b860151915060c061ffff8316818b015284870151945060e092506135ed838b01866001600160401b03169052565b928601516001600160a01b03166101008a0152850151610120890152908401516101408801529092015191506136276101608601836134a0565b958801959350509086019060010161353f565b509098975050505050505050565b6000806020838503121561365b57600080fd5b82356001600160401b038082111561367257600080fd5b818501915085601f83011261368657600080fd5b81358181111561369557600080fd5b8660208260051b850101111561335657600080fd5b6000602080830181845280855180835260408601915060408160051b870101925083870160005b828110156136ff57603f198886030184526136ed8583516133fb565b945092850192908501906001016136d1565b5092979650505050505050565b6000806040838503121561371f57600080fd5b823561372a81613182565b915060208301356132ec81613182565b60008060006060848603121561374f57600080fd5b833561375a81613182565b95602085013595506040909401359392505050565b8815158152871515602082015261ffff871660408201526001600160401b03861660608201526001600160a01b038516608082015260a0810184905260c0810183905261020081016137c460e08301846134a0565b9998505050505050505050565b634e487b7160e01b600052601160045260246000fd5b808202811582820484141761090c5761090c6137d1565b60008261381b57634e487b7160e01b600052601260045260246000fd5b500490565b61ffff818116838216019080821115611ae557611ae56137d1565b6000806040838503121561384e57600080fd5b82356002811061372a57600080fd5b634e487b7160e01b600052602160045260246000fd5b8082018082111561090c5761090c6137d1565b60408101600284106138a857634e487b7160e01b600052602160045260246000fd5b9281526001600160a01b039190911660209091015290565b600060ff821660ff81036138d6576138d66137d1565b60010192915050565b634e487b7160e01b600052604160045260246000fd5b634e487b7160e01b600052603260045260246000fd5b60006020828403121561391d57600080fd5b815160ff81168114610b5157600080fd5b60006020828403121561394057600080fd5b81516001600160401b038082111561395757600080fd5b818401915084601f83011261396b57600080fd5b81518181111561397d5761397d6138df565b604051601f8201601f19908116603f011681019083821181831017156139a5576139a56138df565b816040528281528760208487010111156139be57600080fd5b6130908360208301602088016133d7565b6000808335601e198436030181126139e657600080fd5b8301803591506001600160401b03821115613a0057600080fd5b602001915036819003821315613a1557600080fd5b9250929050565b600060018201613a2e57613a2e6137d1565b5060010190565b60ff818116838216019081111561090c5761090c6137d1565b600060208284031215613a6057600080fd5b8151610b5181613442565b600060208284031215613a7d57600080fd5b5051919050565b8181038181111561090c5761090c6137d1565b600081613aa657613aa66137d1565b506000190190565b7f416363657373436f6e74726f6c3a206163636f756e7420000000000000000000815260008351613ae68160178501602088016133d7565b7001034b99036b4b9b9b4b733903937b6329607d1b6017918401918201528351613b178160288401602088016133d7565b01602801949350505050565b602081526000610b5160208301846133fb565b60008251613b488184602087016133d7565b9190910192915050565b634e487b7160e01b600052603160045260246000fdfe6a64baf327d646d1bca72653e2a075d15fd6ac6d8cbd7f6ee03fc55875e0fa88416464726573733a206c6f772d6c6576656c2064656c65676174652063616c6c206661696c6564a2646970667358221220041ed88ba201ae3acecea0e93e9bf1d28478b4eb813f4e901b2919231c68351064736f6c63430008120033",
  "devdoc": {
    "author": "Romuald Hog",
    "details": "All rates are in basis point.",
    "errors": {
      "WrongHouseEdgeSplit(uint16)": [
        {
          "params": {
            "splitSum": "Sum of the house edge allocations rates."
          }
        }
      ]
    },
    "events": {
      "AddToken(address)": {
        "params": {
          "token": "Address of the token."
        }
      },
      "AllocateHouseEdgeAmount(address,uint256,uint256,uint256,uint256,uint256)": {
        "params": {
          "bank": "The number of tokens allocated to bank.",
          "dividend": "The number of tokens allocated as staking rewards.",
          "partner": "The number of tokens allocated to the partner.",
          "team": "The number of tokens allocated to the team.",
          "token": "Address of the token.",
          "treasury": "The number of tokens allocated to the treasury."
        }
      },
      "CashIn(address,uint256,uint256)": {
        "params": {
          "amount": "Bet amount collected.",
          "newBalance": "New token balance.",
          "token": "Address of the token."
        }
      },
      "Deposit(address,uint256)": {
        "params": {
          "amount": "The number of token deposited.",
          "token": "Address of the token."
        }
      },
      "HarvestDividend(address,uint256)": {
        "params": {
          "amount": "The number of tokens sent to the Harvester.",
          "token": "Address of the token."
        }
      },
      "HouseEdgeDistribution(address,uint256,uint256)": {
        "params": {
          "teamAmount": "The number of tokens sent to the team.",
          "token": "Address of the token.",
          "treasuryAmount": "The number of tokens sent to the treasury."
        }
      },
      "HouseEdgePartnerDistribution(address,uint256)": {
        "params": {
          "partnerAmount": "The number of tokens sent to the partner.",
          "token": "Address of the token."
        }
      },
      "Payout(address,uint256,uint256)": {
        "params": {
          "newBalance": "New token balance.",
          "profit": "Bet profit amount sent.",
          "token": "Address of the token."
        }
      },
      "RoleAdminChanged(bytes32,bytes32,bytes32)": {
        "details": "Emitted when `newAdminRole` is set as ``role``'s admin role, replacing `previousAdminRole` `DEFAULT_ADMIN_ROLE` is the starting admin for all roles, despite {RoleAdminChanged} not being emitted signaling this. _Available since v3.1._"
      },
      "RoleGranted(bytes32,address,address)": {
        "details": "Emitted when `account` is granted `role`. `sender` is the account that originated the contract call, an admin role bearer except when using {AccessControl-_setupRole}."
      },
      "RoleRevoked(bytes32,address,address)": {
        "details": "Emitted when `account` is revoked `role`. `sender` is the account that originated the contract call:   - if using `revokeRole`, it is the admin role bearer   - if using `renounceRole`, it is the role bearer (i.e. `account`)"
      },
      "SetAllowedToken(address,bool)": {
        "params": {
          "allowed": "Whether the token is allowed for betting.",
          "token": "Address of the token."
        }
      },
      "SetBalanceRisk(address,uint16)": {
        "params": {
          "balanceRisk": "Rate defining the balance risk."
        }
      },
      "SetMinHouseEdgeWithdrawAmount(address,uint256)": {
        "params": {
          "minHouseEdgeWithdrawAmount": "Minimum amount of token to allow transfer.",
          "token": "Address of the token."
        }
      },
      "SetPausedToken(address,bool)": {
        "params": {
          "paused": "Whether the token is paused for betting.",
          "token": "Address of the token."
        }
      },
      "SetTeamWallet(address)": {
        "params": {
          "teamWallet": "The team wallet address."
        }
      },
      "SetTokenHouseEdgeSplit(address,uint16,uint16,uint16,uint16,uint16)": {
        "params": {
          "bank": "Rate to be allocated to the bank, on bet payout.",
          "dividend": "Rate to be allocated as staking rewards, on bet payout.",
          "partner": "Rate to be allocated to the partner, on bet payout.",
          "team": "Rate to be allocated to the team, on bet payout.",
          "token": "Address of the token.",
          "treasury": "Rate to be allocated to the treasury, on bet payout."
        }
      },
      "SetTokenMinBetAmount(address,uint256)": {
        "params": {
          "minBetAmount": "Minimum bet amount.",
          "token": "Address of the token."
        }
      },
      "SetTokenPartner(address,address)": {
        "params": {
          "partner": "Address of the partner.",
          "token": "Address of the token."
        }
      },
      "SetTokenVRFSubId(address,uint64)": {
        "params": {
          "subId": "Subscription ID.",
          "token": "Address of the token."
        }
      },
      "Withdraw(address,uint256)": {
        "params": {
          "amount": "The number of token withdrawn.",
          "token": "Address of the token."
        }
      }
    },
    "kind": "dev",
    "methods": {
      "addToken(address)": {
        "params": {
          "token": "Address of the token."
        }
      },
      "cashIn(address,uint256,uint256)": {
        "details": "In case of an ERC20, the bet amount should be transfered prior to this tx.In case of the gas token, the bet amount is sent along with this tx.",
        "params": {
          "amount": "Loss bet amount.",
          "fees": "Bet amount and bet profit fees amount.",
          "tokenAddress": "Address of the token."
        }
      },
      "checkUpkeep(bytes)": {
        "details": "`checkData` and `performData` are encoded with types (uint8, address).",
        "params": {
          "checkData": "Fixed and specified at Upkeep registration."
        },
        "returns": {
          "performData": "Bytes that will be used as input parameter when calling performUpkeep.",
          "upkeepNeeded": "Boolean that when True will trigger the on-chain performUpkeep call."
        }
      },
      "constructor": {
        "params": {
          "teamWalletAddress": "Team wallet.",
          "treasuryAddress": "Treasury multi-sig wallet."
        }
      },
      "deposit(address,uint256)": {
        "params": {
          "amount": "Number of tokens.",
          "token": "Address of the token."
        }
      },
      "getBalance(address)": {
        "params": {
          "token": "Address of the token."
        },
        "returns": {
          "_0": "The amount of token available for profits."
        }
      },
      "getMaxBetAmount(address,uint256)": {
        "details": "The multiplier should be at least 10000.",
        "params": {
          "multiplier": "The bet amount leverage determines the user's profit amount. 10000 = 100% = no profit.",
          "token": "Address of the token."
        },
        "returns": {
          "_0": "Maximum bet amount for the token."
        }
      },
      "getMinBetAmount(address)": {
        "details": "The min bet amount should be at least 10000 cause of the `getMaxBetAmount` calculation.",
        "params": {
          "token": "Address of the token."
        },
        "returns": {
          "minBetAmount": "Min bet amount."
        }
      },
      "getRoleAdmin(bytes32)": {
        "details": "Returns the admin role that controls `role`. See {grantRole} and {revokeRole}. To change a role's admin, use {_setRoleAdmin}."
      },
      "getRoleMember(bytes32,uint256)": {
        "details": "Returns one of the accounts that have `role`. `index` must be a value between 0 and {getRoleMemberCount}, non-inclusive. Role bearers are not sorted in any particular way, and their ordering may change at any point. WARNING: When using {getRoleMember} and {getRoleMemberCount}, make sure you perform all queries on the same block. See the following https://forum.openzeppelin.com/t/iterating-over-elements-on-enumerableset-in-openzeppelin-contracts/2296[forum post] for more information."
      },
      "getRoleMemberCount(bytes32)": {
        "details": "Returns the number of accounts that have `role`. Can be used together with {getRoleMember} to enumerate all bearers of a role."
      },
      "getTokenOwner(address)": {
        "params": {
          "token": "Address of the token."
        },
        "returns": {
          "_0": "Address of the owner."
        }
      },
      "getTokens()": {
        "details": "For the front-end"
      },
      "getVRFSubId(address)": {
        "params": {
          "token": "Address of the token."
        },
        "returns": {
          "_0": "Chainlink VRF v2 Subscription ID."
        }
      },
      "grantRole(bytes32,address)": {
        "details": "Grants `role` to `account`. If `account` had not been already granted `role`, emits a {RoleGranted} event. Requirements: - the caller must have ``role``'s admin role. May emit a {RoleGranted} event."
      },
      "hasRole(bytes32,address)": {
        "details": "Returns `true` if `account` has been granted `role`."
      },
      "isAllowedToken(address)": {
        "params": {
          "tokenAddress": "Address of the token."
        },
        "returns": {
          "_0": "Whether the token is enabled for bets."
        }
      },
      "multicall(bytes[])": {
        "details": "Receives and executes a batch of function calls on this contract."
      },
      "payout(address,address,uint256,uint256)": {
        "params": {
          "fees": "Bet amount and bet profit fees amount.",
          "profit": "Number of tokens to be sent to the gamer.",
          "token": "Address of the token.",
          "user": "Address of the gamer."
        }
      },
      "performUpkeep(bytes)": {
        "params": {
          "performData": "Data which was passed back from `checkUpkeep`."
        }
      },
      "renounceRole(bytes32,address)": {
        "details": "Revokes `role` from the calling account. Roles are often managed via {grantRole} and {revokeRole}: this function's purpose is to provide a mechanism for accounts to lose their privileges if they are compromised (such as when a trusted device is misplaced). If the calling account had been revoked `role`, emits a {RoleRevoked} event. Requirements: - the caller must be `account`. May emit a {RoleRevoked} event."
      },
      "revokeRole(bytes32,address)": {
        "details": "Revokes `role` from `account`. If `account` had been granted `role`, emits a {RoleRevoked} event. Requirements: - the caller must have ``role``'s admin role. May emit a {RoleRevoked} event."
      },
      "setAllowedToken(address,bool)": {
        "params": {
          "allowed": "Whether the token is enabled for bets.",
          "token": "Address of the token."
        }
      },
      "setBalanceRisk(address,uint16)": {
        "params": {
          "balanceRisk": "Risk rate.",
          "token": "Address of the token."
        }
      },
      "setHouseEdgeSplit(address,uint16,uint16,uint16,uint16,uint16)": {
        "details": "`bank`, `dividend`, `_treasury` and `team` rates sum must equals 10000.",
        "params": {
          "_treasury": "Rate to be allocated to the treasury, on bet payout.",
          "bank": "Rate to be allocated to the bank, on bet payout.",
          "dividend": "Rate to be allocated as staking rewards, on bet payout.",
          "partner": "Rate to be allocated to the partner, on bet payout.",
          "team": "Rate to be allocated to the team, on bet payout.",
          "token": "Address of the token."
        }
      },
      "setMinHouseEdgeWithdrawAmount(address,uint256)": {
        "params": {
          "minHouseEdgeWithdrawAmount": "Minimum amount of token to allow transfer.",
          "token": "Address of the token."
        }
      },
      "setPausedToken(address,bool)": {
        "params": {
          "paused": "Whether the token is paused.",
          "token": "Address of the token."
        }
      },
      "setTeamWallet(address)": {
        "params": {
          "_teamWallet": "The team wallet address."
        }
      },
      "setTokenMinBetAmount(address,uint256)": {
        "params": {
          "token": "Address of the token.",
          "tokenMinBetAmount": "Minimum bet amount."
        }
      },
      "setTokenPartner(address,address)": {
        "params": {
          "partner": "Address of the partner.",
          "token": "Address of the token."
        }
      },
      "setTokenVRFSubId(address,uint64)": {
        "params": {
          "subId": "Subscription ID.",
          "token": "Address of the token."
        }
      },
      "supportsInterface(bytes4)": {
        "details": "See {IERC165-supportsInterface}."
      },
      "withdraw(address,uint256)": {
        "params": {
          "amount": "Number of tokens.",
          "token": "Address of the token."
        }
      },
      "withdrawHouseEdgeAmount(address)": {
        "params": {
          "tokenAddress": "Address of the token."
        }
      },
      "withdrawPartnerAmount(address)": {
        "params": {
          "tokenAddress": "Address of the token."
        }
      }
    },
    "title": "BetSwirl's Bank",
    "version": 1
  },
  "userdoc": {
    "errors": {
      "AccessDenied()": [
        {
          "notice": "Reverting error when sender isn't allowed."
        }
      ],
      "TokenExists()": [
        {
          "notice": "Reverting error when trying to add an existing token."
        }
      ],
      "TokenHasPendingBets()": [
        {
          "notice": "Reverting error when token has pending bets on a game."
        }
      ],
      "TokenNotPaused()": [
        {
          "notice": "Reverting error when withdrawing a non paused token."
        }
      ],
      "WrongAddress()": [
        {
          "notice": "Reverting error when team wallet or treasury is the zero address."
        }
      ],
      "WrongHouseEdgeSplit(uint16)": [
        {
          "notice": "Reverting error when setting the house edge allocations, but the sum isn't 100%."
        }
      ]
    },
    "events": {
      "AddToken(address)": {
        "notice": "Emitted after a token is added."
      },
      "AllocateHouseEdgeAmount(address,uint256,uint256,uint256,uint256,uint256)": {
        "notice": "Emitted after the token's house edge is allocated."
      },
      "CashIn(address,uint256,uint256)": {
        "notice": "Emitted after the bet amount is collected from the game smart contract."
      },
      "Deposit(address,uint256)": {
        "notice": "Emitted after a token deposit."
      },
      "HarvestDividend(address,uint256)": {
        "notice": "Emitted after the token's dividend allocation is distributed."
      },
      "HouseEdgeDistribution(address,uint256,uint256)": {
        "notice": "Emitted after the token's treasury and team allocations are distributed."
      },
      "HouseEdgePartnerDistribution(address,uint256)": {
        "notice": "Emitted after the token's partner allocation is distributed."
      },
      "Payout(address,uint256,uint256)": {
        "notice": "Emitted after the bet profit amount is sent to the user."
      },
      "SetAllowedToken(address,bool)": {
        "notice": "Emitted after a token is allowed."
      },
      "SetBalanceRisk(address,uint16)": {
        "notice": "Emitted after the balance risk is set."
      },
      "SetMinHouseEdgeWithdrawAmount(address,uint256)": {
        "notice": "Emitted after the Upkeep minimum transfer amount is set."
      },
      "SetPausedToken(address,bool)": {
        "notice": "Emitted after a token is paused."
      },
      "SetTeamWallet(address)": {
        "notice": "Emitted after the team wallet is set."
      },
      "SetTokenHouseEdgeSplit(address,uint16,uint16,uint16,uint16,uint16)": {
        "notice": "Emitted after the token's house edge allocations for bet payout is set."
      },
      "SetTokenMinBetAmount(address,uint256)": {
        "notice": "Emitted after the minimum bet amount is set for a token."
      },
      "SetTokenPartner(address,address)": {
        "notice": "Emitted after a token partner is set."
      },
      "SetTokenVRFSubId(address,uint64)": {
        "notice": "Emitted after the token's VRF subscription ID is set."
      },
      "Withdraw(address,uint256)": {
        "notice": "Emitted after a token withdrawal."
      }
    },
    "kind": "user",
    "methods": {
      "GAME_ROLE()": {
        "notice": "Role associated to Games smart contracts."
      },
      "HARVESTER_ROLE()": {
        "notice": "Role associated to harvester smart contract."
      },
      "addToken(address)": {
        "notice": "Adds a new token that'll be enabled for the games' betting. Token shouldn't exist yet."
      },
      "cashIn(address,uint256,uint256)": {
        "notice": "Accounts a loss bet."
      },
      "checkUpkeep(bytes)": {
        "notice": "Runs by Chainlink Keepers at every block to determine if `performUpkeep` should be called."
      },
      "deposit(address,uint256)": {
        "notice": "Deposit funds in the bank to allow gamers to win more. ERC20 token allowance should be given prior to deposit."
      },
      "getBalance(address)": {
        "notice": "Gets the token's balance. The token's house edge allocation amounts are subtracted from the balance."
      },
      "getMaxBetAmount(address,uint256)": {
        "notice": "Calculates the max bet amount based on the token balance, the balance risk, and the game multiplier."
      },
      "getMinBetAmount(address)": {
        "notice": "Gets the token's min bet amount."
      },
      "getTokenOwner(address)": {
        "notice": "Gets the token's owner."
      },
      "getVRFSubId(address)": {
        "notice": "Gets the token's Chainlink VRF v2 Subscription ID."
      },
      "harvestDividends()": {
        "notice": "Harvests tokens dividends."
      },
      "isAllowedToken(address)": {
        "notice": "Gets the token's allow status used on the games smart contracts."
      },
      "payout(address,address,uint256,uint256)": {
        "notice": "Payouts a winning bet, and allocate the house edge fee."
      },
      "performUpkeep(bytes)": {
        "notice": "Executed by Chainlink Keepers when `upkeepNeeded` is true."
      },
      "setAllowedToken(address,bool)": {
        "notice": "Changes the token's bet permission."
      },
      "setBalanceRisk(address,uint16)": {
        "notice": "Sets the new token balance risk."
      },
      "setHouseEdgeSplit(address,uint16,uint16,uint16,uint16,uint16)": {
        "notice": "Sets the token's house edge allocations for bet payout."
      },
      "setMinHouseEdgeWithdrawAmount(address,uint256)": {
        "notice": "Changes the token's Upkeep min transfer amount."
      },
      "setPausedToken(address,bool)": {
        "notice": "Changes the token's paused status."
      },
      "setTeamWallet(address)": {
        "notice": "Sets the new team wallet."
      },
      "setTokenMinBetAmount(address,uint256)": {
        "notice": "Sets the minimum bet amount for a specific token."
      },
      "setTokenPartner(address,address)": {
        "notice": "Changes the token's partner address. It withdraw the available balance, the partner allocation, and the games' VRF fees."
      },
      "setTokenVRFSubId(address,uint64)": {
        "notice": "Sets the Chainlink VRF subscription ID for a specific token."
      },
      "teamWallet()": {
        "notice": "Team wallet."
      },
      "tokens(address)": {
        "notice": "Maps tokens addresses to token configuration."
      },
      "treasury()": {
        "notice": "Treasury multi-sig wallet."
      },
      "withdraw(address,uint256)": {
        "notice": "Withdraw funds from the bank. Token has to be paused and no pending bet resolution on games."
      },
      "withdrawHouseEdgeAmount(address)": {
        "notice": "Distributes the token's treasury and team allocations amounts."
      },
      "withdrawPartnerAmount(address)": {
        "notice": "Distributes the token's partner amount."
      }
    },
    "notice": "The Bank contract holds the casino's funds, whitelist the games betting tokens, define the max bet amount based on a risk, payout the bet profit to user and collect the loss bet amount from the game's contract, split and allocate the house edge taken from each bet (won or loss). The admin role is transfered to a Timelock that execute administrative tasks, only the Games could payout the bet profit from the bank, and send the loss bet amount to the bank.",
    "version": 1
  },
  "storageLayout": {
    "storage": [
      {
        "astId": 244,
        "contract": "contracts/bank/Bank.sol:Bank",
        "label": "_roles",
        "offset": 0,
        "slot": "0",
        "type": "t_mapping(t_bytes32,t_struct(RoleData)239_storage)"
      },
      {
        "astId": 558,
        "contract": "contracts/bank/Bank.sol:Bank",
        "label": "_roleMembers",
        "offset": 0,
        "slot": "1",
        "type": "t_mapping(t_bytes32,t_struct(AddressSet)2975_storage)"
      },
      {
        "astId": 3357,
        "contract": "contracts/bank/Bank.sol:Bank",
        "label": "_tokensCount",
        "offset": 0,
        "slot": "2",
        "type": "t_uint8"
      },
      {
        "astId": 3363,
        "contract": "contracts/bank/Bank.sol:Bank",
        "label": "teamWallet",
        "offset": 1,
        "slot": "2",
        "type": "t_address"
      },
      {
        "astId": 3381,
        "contract": "contracts/bank/Bank.sol:Bank",
        "label": "tokens",
        "offset": 0,
        "slot": "3",
        "type": "t_mapping(t_address,t_struct(Token)3342_storage)"
      },
      {
        "astId": 3386,
        "contract": "contracts/bank/Bank.sol:Bank",
        "label": "_tokensList",
        "offset": 0,
        "slot": "4",
        "type": "t_mapping(t_uint8,t_address)"
      }
    ],
    "types": {
      "t_address": {
        "encoding": "inplace",
        "label": "address",
        "numberOfBytes": "20"
      },
      "t_array(t_bytes32)dyn_storage": {
        "base": "t_bytes32",
        "encoding": "dynamic_array",
        "label": "bytes32[]",
        "numberOfBytes": "32"
      },
      "t_bool": {
        "encoding": "inplace",
        "label": "bool",
        "numberOfBytes": "1"
      },
      "t_bytes32": {
        "encoding": "inplace",
        "label": "bytes32",
        "numberOfBytes": "32"
      },
      "t_mapping(t_address,t_bool)": {
        "encoding": "mapping",
        "key": "t_address",
        "label": "mapping(address => bool)",
        "numberOfBytes": "32",
        "value": "t_bool"
      },
      "t_mapping(t_address,t_struct(Token)3342_storage)": {
        "encoding": "mapping",
        "key": "t_address",
        "label": "mapping(address => struct Bank.Token)",
        "numberOfBytes": "32",
        "value": "t_struct(Token)3342_storage"
      },
      "t_mapping(t_bytes32,t_struct(AddressSet)2975_storage)": {
        "encoding": "mapping",
        "key": "t_bytes32",
        "label": "mapping(bytes32 => struct EnumerableSet.AddressSet)",
        "numberOfBytes": "32",
        "value": "t_struct(AddressSet)2975_storage"
      },
      "t_mapping(t_bytes32,t_struct(RoleData)239_storage)": {
        "encoding": "mapping",
        "key": "t_bytes32",
        "label": "mapping(bytes32 => struct AccessControl.RoleData)",
        "numberOfBytes": "32",
        "value": "t_struct(RoleData)239_storage"
      },
      "t_mapping(t_bytes32,t_uint256)": {
        "encoding": "mapping",
        "key": "t_bytes32",
        "label": "mapping(bytes32 => uint256)",
        "numberOfBytes": "32",
        "value": "t_uint256"
      },
      "t_mapping(t_uint8,t_address)": {
        "encoding": "mapping",
        "key": "t_uint8",
        "label": "mapping(uint8 => address)",
        "numberOfBytes": "32",
        "value": "t_address"
      },
      "t_struct(AddressSet)2975_storage": {
        "encoding": "inplace",
        "label": "struct EnumerableSet.AddressSet",
        "members": [
          {
            "astId": 2974,
            "contract": "contracts/bank/Bank.sol:Bank",
            "label": "_inner",
            "offset": 0,
            "slot": "0",
            "type": "t_struct(Set)2674_storage"
          }
        ],
        "numberOfBytes": "64"
      },
      "t_struct(HouseEdgeSplit)3324_storage": {
        "encoding": "inplace",
        "label": "struct Bank.HouseEdgeSplit",
        "members": [
          {
            "astId": 3307,
            "contract": "contracts/bank/Bank.sol:Bank",
            "label": "bank",
            "offset": 0,
            "slot": "0",
            "type": "t_uint16"
          },
          {
            "astId": 3309,
            "contract": "contracts/bank/Bank.sol:Bank",
            "label": "dividend",
            "offset": 2,
            "slot": "0",
            "type": "t_uint16"
          },
          {
            "astId": 3311,
            "contract": "contracts/bank/Bank.sol:Bank",
            "label": "partner",
            "offset": 4,
            "slot": "0",
            "type": "t_uint16"
          },
          {
            "astId": 3313,
            "contract": "contracts/bank/Bank.sol:Bank",
            "label": "treasury",
            "offset": 6,
            "slot": "0",
            "type": "t_uint16"
          },
          {
            "astId": 3315,
            "contract": "contracts/bank/Bank.sol:Bank",
            "label": "team",
            "offset": 8,
            "slot": "0",
            "type": "t_uint16"
          },
          {
            "astId": 3317,
            "contract": "contracts/bank/Bank.sol:Bank",
            "label": "dividendAmount",
            "offset": 0,
            "slot": "1",
            "type": "t_uint256"
          },
          {
            "astId": 3319,
            "contract": "contracts/bank/Bank.sol:Bank",
            "label": "partnerAmount",
            "offset": 0,
            "slot": "2",
            "type": "t_uint256"
          },
          {
            "astId": 3321,
            "contract": "contracts/bank/Bank.sol:Bank",
            "label": "treasuryAmount",
            "offset": 0,
            "slot": "3",
            "type": "t_uint256"
          },
          {
            "astId": 3323,
            "contract": "contracts/bank/Bank.sol:Bank",
            "label": "teamAmount",
            "offset": 0,
            "slot": "4",
            "type": "t_uint256"
          }
        ],
        "numberOfBytes": "160"
      },
      "t_struct(RoleData)239_storage": {
        "encoding": "inplace",
        "label": "struct AccessControl.RoleData",
        "members": [
          {
            "astId": 236,
            "contract": "contracts/bank/Bank.sol:Bank",
            "label": "members",
            "offset": 0,
            "slot": "0",
            "type": "t_mapping(t_address,t_bool)"
          },
          {
            "astId": 238,
            "contract": "contracts/bank/Bank.sol:Bank",
            "label": "adminRole",
            "offset": 0,
            "slot": "1",
            "type": "t_bytes32"
          }
        ],
        "numberOfBytes": "64"
      },
      "t_struct(Set)2674_storage": {
        "encoding": "inplace",
        "label": "struct EnumerableSet.Set",
        "members": [
          {
            "astId": 2669,
            "contract": "contracts/bank/Bank.sol:Bank",
            "label": "_values",
            "offset": 0,
            "slot": "0",
            "type": "t_array(t_bytes32)dyn_storage"
          },
          {
            "astId": 2673,
            "contract": "contracts/bank/Bank.sol:Bank",
            "label": "_indexes",
            "offset": 0,
            "slot": "1",
            "type": "t_mapping(t_bytes32,t_uint256)"
          }
        ],
        "numberOfBytes": "64"
      },
      "t_struct(Token)3342_storage": {
        "encoding": "inplace",
        "label": "struct Bank.Token",
        "members": [
          {
            "astId": 3326,
            "contract": "contracts/bank/Bank.sol:Bank",
            "label": "allowed",
            "offset": 0,
            "slot": "0",
            "type": "t_bool"
          },
          {
            "astId": 3328,
            "contract": "contracts/bank/Bank.sol:Bank",
            "label": "paused",
            "offset": 1,
            "slot": "0",
            "type": "t_bool"
          },
          {
            "astId": 3330,
            "contract": "contracts/bank/Bank.sol:Bank",
            "label": "balanceRisk",
            "offset": 2,
            "slot": "0",
            "type": "t_uint16"
          },
          {
            "astId": 3332,
            "contract": "contracts/bank/Bank.sol:Bank",
            "label": "VRFSubId",
            "offset": 4,
            "slot": "0",
            "type": "t_uint64"
          },
          {
            "astId": 3334,
            "contract": "contracts/bank/Bank.sol:Bank",
            "label": "partner",
            "offset": 12,
            "slot": "0",
            "type": "t_address"
          },
          {
            "astId": 3336,
            "contract": "contracts/bank/Bank.sol:Bank",
            "label": "minBetAmount",
            "offset": 0,
            "slot": "1",
            "type": "t_uint256"
          },
          {
            "astId": 3338,
            "contract": "contracts/bank/Bank.sol:Bank",
            "label": "minHouseEdgeWithdrawAmount",
            "offset": 0,
            "slot": "2",
            "type": "t_uint256"
          },
          {
            "astId": 3341,
            "contract": "contracts/bank/Bank.sol:Bank",
            "label": "houseEdgeSplit",
            "offset": 0,
            "slot": "3",
            "type": "t_struct(HouseEdgeSplit)3324_storage"
          }
        ],
        "numberOfBytes": "256"
      },
      "t_uint16": {
        "encoding": "inplace",
        "label": "uint16",
        "numberOfBytes": "2"
      },
      "t_uint256": {
        "encoding": "inplace",
        "label": "uint256",
        "numberOfBytes": "32"
      },
      "t_uint64": {
        "encoding": "inplace",
        "label": "uint64",
        "numberOfBytes": "8"
      },
      "t_uint8": {
        "encoding": "inplace",
        "label": "uint8",
        "numberOfBytes": "1"
      }
    }
  }
}