{
  "address": "0x53b383408977375Bd4732D0eba6487a64c63593e",
  "abi": [
    {
      "inputs": [
        {
          "internalType": "address",
          "name": "bankAddress",
          "type": "address"
        },
        {
          "internalType": "address",
          "name": "chainlinkCoordinatorAddress",
          "type": "address"
        },
        {
          "internalType": "address",
          "name": "LINK_ETH_feedAddress",
          "type": "address"
        }
      ],
      "stateMutability": "nonpayable",
      "type": "constructor"
    },
    {
      "inputs": [],
      "name": "AccessDenied",
      "type": "error"
    },
    {
      "inputs": [],
      "name": "ExcessiveHouseEdge",
      "type": "error"
    },
    {
      "inputs": [],
      "name": "ForbiddenToken",
      "type": "error"
    },
    {
      "inputs": [],
      "name": "InvalidAddress",
      "type": "error"
    },
    {
      "inputs": [
        {
          "internalType": "int256",
          "name": "linkWei",
          "type": "int256"
        }
      ],
      "name": "InvalidLinkWeiPrice",
      "type": "error"
    },
    {
      "inputs": [],
      "name": "NoOverchargedVRFCost",
      "type": "error"
    },
    {
      "inputs": [],
      "name": "NotFulfilled",
      "type": "error"
    },
    {
      "inputs": [],
      "name": "NotPendingBet",
      "type": "error"
    },
    {
      "inputs": [],
      "name": "TokenHasPendingBets",
      "type": "error"
    },
    {
      "inputs": [
        {
          "internalType": "uint256",
          "name": "minBetAmount",
          "type": "uint256"
        }
      ],
      "name": "UnderMinBetAmount",
      "type": "error"
    },
    {
      "inputs": [],
      "name": "WrongGasValueToCoverFee",
      "type": "error"
    },
    {
      "anonymous": false,
      "inputs": [
        {
          "indexed": true,
          "internalType": "address",
          "name": "user",
          "type": "address"
        },
        {
          "indexed": false,
          "internalType": "uint256",
          "name": "overchargedVRFCost",
          "type": "uint256"
        }
      ],
      "name": "AccountOverchargedVRFCost",
      "type": "event"
    },
    {
      "anonymous": false,
      "inputs": [
        {
          "indexed": false,
          "internalType": "uint256",
          "name": "id",
          "type": "uint256"
        },
        {
          "indexed": false,
          "internalType": "address",
          "name": "user",
          "type": "address"
        },
        {
          "indexed": false,
          "internalType": "uint256",
          "name": "amount",
          "type": "uint256"
        },
        {
          "indexed": false,
          "internalType": "uint256",
          "name": "chainlinkVRFCost",
          "type": "uint256"
        }
      ],
      "name": "BetRefunded",
      "type": "event"
    },
    {
      "anonymous": false,
      "inputs": [
        {
          "indexed": true,
          "internalType": "address",
          "name": "user",
          "type": "address"
        },
        {
          "indexed": false,
          "internalType": "uint256",
          "name": "overchargedVRFCost",
          "type": "uint256"
        }
      ],
      "name": "DistributeOverchargedVRFCost",
      "type": "event"
    },
    {
      "anonymous": false,
      "inputs": [
        {
          "indexed": true,
          "internalType": "address",
          "name": "token",
          "type": "address"
        },
        {
          "indexed": false,
          "internalType": "uint256",
          "name": "amount",
          "type": "uint256"
        }
      ],
      "name": "DistributeTokenVRFFees",
      "type": "event"
    },
    {
      "anonymous": false,
      "inputs": [
        {
          "indexed": true,
          "internalType": "address",
          "name": "previousOwner",
          "type": "address"
        },
        {
          "indexed": true,
          "internalType": "address",
          "name": "newOwner",
          "type": "address"
        }
      ],
      "name": "OwnershipTransferred",
      "type": "event"
    },
    {
      "anonymous": false,
      "inputs": [
        {
          "indexed": false,
          "internalType": "address",
          "name": "account",
          "type": "address"
        }
      ],
      "name": "Paused",
      "type": "event"
    },
    {
      "anonymous": false,
      "inputs": [
        {
          "indexed": false,
          "internalType": "uint256",
          "name": "id",
          "type": "uint256"
        },
        {
          "indexed": false,
          "internalType": "string",
          "name": "_idstr",
          "type": "string"
        },
        {
          "indexed": true,
          "internalType": "address",
          "name": "user",
          "type": "address"
        },
        {
          "indexed": true,
          "internalType": "address",
          "name": "token",
          "type": "address"
        },
        {
          "indexed": false,
          "internalType": "uint256",
          "name": "amount",
          "type": "uint256"
        },
        {
          "indexed": false,
          "internalType": "uint256",
          "name": "vrfCost",
          "type": "uint256"
        },
        {
          "indexed": false,
          "internalType": "bool",
          "name": "face",
          "type": "bool"
        }
      ],
      "name": "PlaceBet",
      "type": "event"
    },
    {
      "anonymous": false,
      "inputs": [
        {
          "indexed": false,
          "internalType": "uint256",
          "name": "id",
          "type": "uint256"
        },
        {
          "indexed": true,
          "internalType": "address",
          "name": "user",
          "type": "address"
        },
        {
          "indexed": true,
          "internalType": "address",
          "name": "token",
          "type": "address"
        },
        {
          "indexed": false,
          "internalType": "uint256",
          "name": "amount",
          "type": "uint256"
        },
        {
          "indexed": false,
          "internalType": "bool",
          "name": "face",
          "type": "bool"
        },
        {
          "indexed": false,
          "internalType": "bool",
          "name": "rolled",
          "type": "bool"
        },
        {
          "indexed": false,
          "internalType": "bool",
          "name": "haswon",
          "type": "bool"
        },
        {
          "indexed": false,
          "internalType": "uint256",
          "name": "payout",
          "type": "uint256"
        }
      ],
      "name": "Roll",
      "type": "event"
    },
    {
      "anonymous": false,
      "inputs": [
        {
          "indexed": false,
          "internalType": "uint16",
          "name": "requestConfirmations",
          "type": "uint16"
        },
        {
          "indexed": false,
          "internalType": "bytes32",
          "name": "keyHash",
          "type": "bytes32"
        },
        {
          "indexed": false,
          "internalType": "uint256",
          "name": "gasAfterCalculation",
          "type": "uint256"
        }
      ],
      "name": "SetChainlinkConfig",
      "type": "event"
    },
    {
      "anonymous": false,
      "inputs": [
        {
          "indexed": true,
          "internalType": "address",
          "name": "token",
          "type": "address"
        },
        {
          "indexed": false,
          "internalType": "uint16",
          "name": "houseEdge",
          "type": "uint16"
        }
      ],
      "name": "SetHouseEdge",
      "type": "event"
    },
    {
      "anonymous": false,
      "inputs": [
        {
          "indexed": true,
          "internalType": "address",
          "name": "token",
          "type": "address"
        },
        {
          "indexed": false,
          "internalType": "uint32",
          "name": "callbackGasLimit",
          "type": "uint32"
        }
      ],
      "name": "SetVRFCallbackGasLimit",
      "type": "event"
    },
    {
      "anonymous": false,
      "inputs": [
        {
          "indexed": false,
          "internalType": "address",
          "name": "account",
          "type": "address"
        }
      ],
      "name": "Unpaused",
      "type": "event"
    },
    {
      "inputs": [],
      "name": "bank",
      "outputs": [
        {
          "internalType": "contract IBank",
          "name": "",
          "type": "address"
        }
      ],
      "stateMutability": "view",
      "type": "function"
    },
    {
      "inputs": [
        {
          "internalType": "uint256",
          "name": "",
          "type": "uint256"
        }
      ],
      "name": "bets",
      "outputs": [
        {
          "internalType": "bool",
          "name": "resolved",
          "type": "bool"
        },
        {
          "internalType": "bool",
          "name": "haswon",
          "type": "bool"
        },
        {
          "internalType": "address",
          "name": "user",
          "type": "address"
        },
        {
          "internalType": "address",
          "name": "token",
          "type": "address"
        },
        {
          "internalType": "uint256",
          "name": "id",
          "type": "uint256"
        },
        {
          "internalType": "string",
          "name": "_idstr",
          "type": "string"
        },
        {
          "internalType": "uint256",
          "name": "amount",
          "type": "uint256"
        },
        {
          "internalType": "uint256",
          "name": "blockNumber",
          "type": "uint256"
        },
        {
          "internalType": "uint256",
          "name": "payout",
          "type": "uint256"
        },
        {
          "internalType": "uint256",
          "name": "vrfCost",
          "type": "uint256"
        }
      ],
      "stateMutability": "view",
      "type": "function"
    },
    {
      "inputs": [
        {
          "internalType": "uint256",
          "name": "",
          "type": "uint256"
        }
      ],
      "name": "coinTossBets",
      "outputs": [
        {
          "internalType": "bool",
          "name": "face",
          "type": "bool"
        },
        {
          "internalType": "bool",
          "name": "rolled",
          "type": "bool"
        }
      ],
      "stateMutability": "view",
      "type": "function"
    },
    {
      "inputs": [],
      "name": "getChainlinkConfig",
      "outputs": [
        {
          "internalType": "uint16",
          "name": "requestConfirmations",
          "type": "uint16"
        },
        {
          "internalType": "bytes32",
          "name": "keyHash",
          "type": "bytes32"
        },
        {
          "internalType": "uint256",
          "name": "gasAfterCalculation",
          "type": "uint256"
        }
      ],
      "stateMutability": "view",
      "type": "function"
    },
    {
      "inputs": [
        {
          "internalType": "address",
          "name": "user",
          "type": "address"
        },
        {
          "internalType": "uint256",
          "name": "dataLength",
          "type": "uint256"
        }
      ],
      "name": "getLastUserBets",
      "outputs": [
        {
          "components": [
            {
              "components": [
                {
                  "internalType": "bool",
                  "name": "resolved",
                  "type": "bool"
                },
                {
                  "internalType": "bool",
                  "name": "haswon",
                  "type": "bool"
                },
                {
                  "internalType": "address",
                  "name": "user",
                  "type": "address"
                },
                {
                  "internalType": "address",
                  "name": "token",
                  "type": "address"
                },
                {
                  "internalType": "uint256",
                  "name": "id",
                  "type": "uint256"
                },
                {
                  "internalType": "string",
                  "name": "_idstr",
                  "type": "string"
                },
                {
                  "internalType": "uint256",
                  "name": "amount",
                  "type": "uint256"
                },
                {
                  "internalType": "uint256",
                  "name": "blockNumber",
                  "type": "uint256"
                },
                {
                  "internalType": "uint256",
                  "name": "payout",
                  "type": "uint256"
                },
                {
                  "internalType": "uint256",
                  "name": "vrfCost",
                  "type": "uint256"
                }
              ],
              "internalType": "struct Game.Bet",
              "name": "bet",
              "type": "tuple"
            },
            {
              "components": [
                {
                  "internalType": "bool",
                  "name": "face",
                  "type": "bool"
                },
                {
                  "internalType": "bool",
                  "name": "rolled",
                  "type": "bool"
                }
              ],
              "internalType": "struct CoinToss.CoinTossBet",
              "name": "coinTossBet",
              "type": "tuple"
            }
          ],
          "internalType": "struct CoinToss.FullCoinTossBet[]",
          "name": "",
          "type": "tuple[]"
        }
      ],
      "stateMutability": "view",
      "type": "function"
    },
    {
      "inputs": [
        {
          "internalType": "address",
          "name": "token",
          "type": "address"
        }
      ],
      "name": "hasPendingBets",
      "outputs": [
        {
          "internalType": "bool",
          "name": "",
          "type": "bool"
        }
      ],
      "stateMutability": "view",
      "type": "function"
    },
    {
      "inputs": [
        {
          "internalType": "bytes[]",
          "name": "data",
          "type": "bytes[]"
        }
      ],
      "name": "multicall",
      "outputs": [
        {
          "internalType": "bytes[]",
          "name": "results",
          "type": "bytes[]"
        }
      ],
      "stateMutability": "nonpayable",
      "type": "function"
    },
    {
      "inputs": [],
      "name": "owner",
      "outputs": [
        {
          "internalType": "address",
          "name": "",
          "type": "address"
        }
      ],
      "stateMutability": "view",
      "type": "function"
    },
    {
      "inputs": [],
      "name": "pause",
      "outputs": [],
      "stateMutability": "nonpayable",
      "type": "function"
    },
    {
      "inputs": [],
      "name": "paused",
      "outputs": [
        {
          "internalType": "bool",
          "name": "",
          "type": "bool"
        }
      ],
      "stateMutability": "view",
      "type": "function"
    },
    {
      "inputs": [
        {
          "internalType": "uint256",
          "name": "id",
          "type": "uint256"
        }
      ],
      "name": "refundBet",
      "outputs": [],
      "stateMutability": "nonpayable",
      "type": "function"
    },
    {
      "inputs": [],
      "name": "renounceOwnership",
      "outputs": [],
      "stateMutability": "nonpayable",
      "type": "function"
    },
    {
      "inputs": [
        {
          "internalType": "uint16",
          "name": "requestConfirmations",
          "type": "uint16"
        },
        {
          "internalType": "bytes32",
          "name": "keyHash",
          "type": "bytes32"
        },
        {
          "internalType": "uint256",
          "name": "gasAfterCalculation",
          "type": "uint256"
        }
      ],
      "name": "setChainlinkConfig",
      "outputs": [],
      "stateMutability": "nonpayable",
      "type": "function"
    },
    {
      "inputs": [
        {
          "internalType": "address",
          "name": "token",
          "type": "address"
        },
        {
          "internalType": "uint16",
          "name": "houseEdge",
          "type": "uint16"
        }
      ],
      "name": "setHouseEdge",
      "outputs": [],
      "stateMutability": "nonpayable",
      "type": "function"
    },
    {
      "inputs": [
        {
          "internalType": "address",
          "name": "token",
          "type": "address"
        },
        {
          "internalType": "uint32",
          "name": "callbackGasLimit",
          "type": "uint32"
        }
      ],
      "name": "setVRFCallbackGasLimit",
      "outputs": [],
      "stateMutability": "nonpayable",
      "type": "function"
    },
    {
      "inputs": [
        {
          "internalType": "address",
          "name": "",
          "type": "address"
        }
      ],
      "name": "tokens",
      "outputs": [
        {
          "internalType": "uint16",
          "name": "houseEdge",
          "type": "uint16"
        },
        {
          "internalType": "uint64",
          "name": "pendingCount",
          "type": "uint64"
        },
        {
          "internalType": "uint32",
          "name": "VRFCallbackGasLimit",
          "type": "uint32"
        },
        {
          "internalType": "uint256",
          "name": "VRFFees",
          "type": "uint256"
        }
      ],
      "stateMutability": "view",
      "type": "function"
    },
    {
      "inputs": [
        {
          "internalType": "address",
          "name": "newOwner",
          "type": "address"
        }
      ],
      "name": "transferOwnership",
      "outputs": [],
      "stateMutability": "nonpayable",
      "type": "function"
    },
    {
      "inputs": [
        {
          "internalType": "address",
          "name": "",
          "type": "address"
        }
      ],
      "name": "userOverchargedVRFCost",
      "outputs": [
        {
          "internalType": "uint256",
          "name": "",
          "type": "uint256"
        }
      ],
      "stateMutability": "view",
      "type": "function"
    },
    {
      "inputs": [
        {
          "internalType": "bool",
          "name": "face",
          "type": "bool"
        },
        {
          "internalType": "address",
          "name": "token",
          "type": "address"
        },
        {
          "internalType": "uint256",
          "name": "tokenAmount",
          "type": "uint256"
        }
      ],
      "name": "wager",
      "outputs": [
        {
          "internalType": "uint256",
          "name": "betID",
          "type": "uint256"
        }
      ],
      "stateMutability": "payable",
      "type": "function"
    },
    {
      "inputs": [
        {
          "internalType": "address",
          "name": "user",
          "type": "address"
        }
      ],
      "name": "withdrawOverchargedVRFCost",
      "outputs": [],
      "stateMutability": "nonpayable",
      "type": "function"
    },
    {
      "inputs": [
        {
          "internalType": "address",
          "name": "token",
          "type": "address"
        }
      ],
      "name": "withdrawTokensVRFFees",
      "outputs": [],
      "stateMutability": "nonpayable",
      "type": "function"
    }
  ],
  "transactionHash": "0xf25ffdd526bbfbbec3347a23819f4f27dfd389a86f827d019afabdcbcaa34e56",
  "args": [
    "0xF48a7416D114212B49629730b93048C460bE0dcC",
    "0x6a2aad07396b36fe02a22b33cf443582f682c82f",
    "0xdc530d9457755926550b59e8eccdae7624181557"
  ],
  "solcInputHash": "ce7a40fa501889c21d564559156935d6",
  "bytecode": "0x60a06040523480156200001157600080fd5b50604051620031e2380380620031e28339810160408190526200003491620001ce565b8282600183620000443362000161565b6000805460ff60a01b19169055600180556001600160a01b03811615806200007357506001600160a01b038316155b806200008657506001600160a01b038416155b15620000a55760405163e6c4247b60e01b815260040160405180910390fd5b61ffff821615801590620000bf57506101f48261ffff1611155b620001105760405162461bcd60e51b815260206004820152601e60248201527f57726f6e6720436861696e6c696e6b204e756d52616e646f6d576f7264730000604482015260640160405180910390fd5b506001600160a01b03928316608052600480546001600160a01b03191692909316919091179091556002805463ffff000019166201000061ffff909316929092029190911790555062000218915050565b600080546001600160a01b038381166001600160a01b0319831681178455604051919092169283917f8be0079c531659141344cd1fd0a4f28419497f9722a3daafe3b4186f6b6457e09190a35050565b80516001600160a01b0381168114620001c957600080fd5b919050565b600080600060608486031215620001e457600080fd5b620001ef84620001b1565b9250620001ff60208501620001b1565b91506200020f60408501620001b1565b90509250925092565b608051612f61620002816000396000818161029b0152818161089c015281816110a40152818161119d015281816112560152818161131d01528181611fe50152818161200c015281816121380152818161215f0152818161221c01526122430152612f616000f3fe60806040526004361061012a5760003560e01c80637d0807d7116100ab578063c2fb579f1161006f578063c2fb579f146103ab578063e051ece9146103d8578063e1fdb4b414610428578063e32fe50414610448578063e486033914610468578063f2fde38b146104f957600080fd5b80637d0807d7146102f557806382b0c00b1461032b5780638456cb591461034b5780638da5cb5b14610360578063ac9650d81461037e57600080fd5b80637038942f116100f25780637038942f14610232578063707cd55e14610254578063715018a61461027457806376cdb03b1461028957806378bcde22146102d557600080fd5b806322af00fa1461012f578063277d35af1461016e57806350462ea0146101a9578063594043fd146101bc5780635c975abb14610213575b600080fd5b34801561013b57600080fd5b5061014f61014a3660046126e5565b610519565b6040516101659a9998979695949392919061274e565b60405180910390f35b34801561017a57600080fd5b5061019b6101893660046127d3565b60096020526000908152604090205481565b604051908152602001610165565b61019b6101b73660046127fe565b610603565b3480156101c857600080fd5b506102036101d73660046127d3565b6001600160a01b03166000908152600860205260409020546201000090046001600160401b0316151590565b6040519015158152602001610165565b34801561021f57600080fd5b50600054600160a01b900460ff16610203565b34801561023e57600080fd5b5061025261024d3660046127d3565b61079c565b005b34801561026057600080fd5b5061025261026f3660046127d3565b610840565b34801561028057600080fd5b5061025261094c565b34801561029557600080fd5b506102bd7f000000000000000000000000000000000000000000000000000000000000000081565b6040516001600160a01b039091168152602001610165565b3480156102e157600080fd5b506102526102f0366004612856565b610960565b34801561030157600080fd5b506002546003546005546040805161ffff9094168452602084019290925290820152606001610165565b34801561033757600080fd5b5061025261034636600461288b565b610a30565b34801561035757600080fd5b50610252610a9b565b34801561036c57600080fd5b506000546001600160a01b03166102bd565b34801561038a57600080fd5b5061039e6103993660046128be565b610ac5565b6040516101659190612932565b3480156103b757600080fd5b506103cb6103c6366004612994565b610bba565b60405161016591906129c0565b3480156103e457600080fd5b506104116103f33660046126e5565b600b6020526000908152604090205460ff8082169161010090041682565b604080519215158352901515602083015201610165565b34801561043457600080fd5b506102526104433660046126e5565b610ced565b34801561045457600080fd5b50610252610463366004612af3565b610ec0565b34801561047457600080fd5b506104c16104833660046127d3565b6008602052600090815260409020805460019091015461ffff8216916201000081046001600160401b031691600160501b90910463ffffffff169084565b6040805161ffff90951685526001600160401b03909316602085015263ffffffff909116918301919091526060820152608001610165565b34801561050557600080fd5b506102526105143660046127d3565b610f33565b600660205260009081526040902080546001820154600283015460038401805460ff808616966101008704909116956001600160a01b0362010000909104811695169392909161056890612b35565b80601f016020809104026020016040519081016040528092919081815260200182805461059490612b35565b80156105e15780601f106105b6576101008083540402835291602001916105e1565b820191906000526020600020905b8154815290600101906020018083116105c457829003601f168201915b505050505090806004015490806005015490806006015490806007015490508a565b600061060d610fb1565b6000610624848461061f612710610ffe565b61100b565b6080810180516000908152600b6020908152604091829020805460ff19168a15151790558151808301909252601882527f436f696e746f73733a20456d6974656420746865206265740000000000000000908201529051919250610687916115f0565b80606001516001600160a01b031681604001516001600160a01b03167f1e0c5697a8f83b86abae722c415bbfc4f2a3e665b0333816fa142a7272190fcc83608001516106d68560800151611635565b8560c001518661012001518b6040516106f3959493929190612b6f565b60405180910390a3608081018051600a805460018101825560008290527fc65a7bb8d6351c1cf70c95a316cc6a92839c986682d98bc35f958f4883f9d2a80191909155905181546040805160208381028201810190925282815261078e949092909183018282801561078457602002820191906000526020600020905b815481526020019060010190808311610770575b505050505061173d565b6080015190505b9392505050565b6001600160a01b038116600090815260096020526040812054908190036107d657604051638ab4c5d760e01b815260040160405180910390fd5b6001600160a01b0382166000908152600960205260408120556107f982826118ba565b816001600160a01b03167f3f206d449945dd03c1742ee98a9c5b872ac6c165788363e06af2796dd5de1f548260405161083491815260200190565b60405180910390a25050565b6001600160a01b0381166000908152600860205260409020600101548015610948576001600160a01b038281166000818152600860205260408082206001019190915551636e0be4e560e11b8152600481019190915261090d917f0000000000000000000000000000000000000000000000000000000000000000169063dc17c9ca90602401602060405180830381865afa1580156108e3573d6000803e3d6000fd5b505050506040513d601f19601f820116820180604052508101906109079190612ba7565b826118ba565b816001600160a01b03167f1d3f9fc0810d9e182e982399cb91de735f6c415728fb9bc42664b84087c2af568260405161083491815260200190565b5050565b6109546119d8565b61095e6000611a32565b565b6109686119d8565b6101908161ffff16111561098f57604051631c2d5dd360e21b815260040160405180910390fd5b6001600160a01b0382166000908152600860205260409020546201000090046001600160401b0316156109d55760405163055212b760e51b815260040160405180910390fd5b6001600160a01b038216600081815260086020908152604091829020805461ffff191661ffff861690811790915591519182527f7dfd3ecb8ac83242184c019f85ca408558f2ac0a5a19af6be2a4aee697eac8129101610834565b610a386119d8565b6002805461ffff191661ffff851690811790915560038390556005829055604080519182526020820184905281018290527fdb0c33bbe22ccb7d7c379a53ef932b131d6fb1b3bd0a7cfe7247d9513ba2a22a9060600160405180910390a1505050565b610aa36119d8565b600054600160a01b900460ff1615610abd5761095e611a82565b61095e611ad7565b6060816001600160401b03811115610adf57610adf612bc4565b604051908082528060200260200182016040528015610b1257816020015b6060815260200190600190039081610afd5790505b50905060005b82811015610bb257610b8230858584818110610b3657610b36612bda565b9050602002810190610b489190612bf0565b8080601f016020809104026020016040519081016040528093929190818152602001838380828437600092019190915250611b1a92505050565b828281518110610b9457610b94612bda565b60200260200101819052508080610baa90612c53565b915050610b18565b505b92915050565b60606000610bc88484611b3f565b9050600081516001600160401b03811115610be557610be5612bc4565b604051908082528060200260200182016040528015610c1e57816020015b610c0b61263e565b815260200190600190039081610c035790505b50905060005b8251811015610ce4576040518060400160405280848381518110610c4a57610c4a612bda565b60200260200101518152602001600b6000868581518110610c6d57610c6d612bda565b60209081029190910181015160800151825281810192909252604090810160002081518083019092525460ff808216151583526101009091041615159181019190915290528251839083908110610cc657610cc6612bda565b60200260200101819052508080610cdc90612c53565b915050610c24565b50949350505050565b6000818152600660205260409020805460ff16151560011480610d1257506002810154155b15610d30576040516310d5f2bd60e11b815260040160405180910390fd5b6005810154610d4090601e612c6c565b431015610d60576040516303de361f60e11b815260040160405180910390fd5b60018101546001600160a01b0316600090815260086020526040902080546201000090046001600160401b0316816002610d9983612c7f565b82546001600160401b039182166101009390930a928302919092021990911617905550815460ff191660019081178355600483015460068401556007830154908301546001600160a01b0316610e195782546004840154610e14916201000090046001600160a01b031690610e0f908490612c6c565b6118ba565b610e60565b825460048401546001850154610e45926001600160a01b03918216926201000090910490911690611dbe565b8254610e60906201000090046001600160a01b0316826118ba565b8254600484015460408051878152620100009093046001600160a01b03166020840152820152606081018290527fe282fd838bb937af0c0f54e49ba5f86229ed0c90344c3cc4e2135cb673493e699060800160405180910390a150505050565b610ec86119d8565b6001600160a01b038216600081815260086020908152604091829020805463ffffffff60501b1916600160501b63ffffffff87169081029190911790915591519182527f9edb52532d26512950c91a14b132f6df3cd06bfb49e795e03e56736121cd24a89101610834565b610f3b6119d8565b6001600160a01b038116610fa55760405162461bcd60e51b815260206004820152602660248201527f4f776e61626c653a206e6577206f776e657220697320746865207a65726f206160448201526564647265737360d01b60648201526084015b60405180910390fd5b610fae81611a32565b50565b600054600160a01b900460ff161561095e5760405162461bcd60e51b815260206004820152601060248201526f14185d5cd8589b194e881c185d5cd95960821b6044820152606401610f9c565b6000610bb4826002612ca2565b61101361267c565b61101b610fb1565b60026001540361106d5760405162461bcd60e51b815260206004820152601f60248201527f5265656e7472616e637947756172643a207265656e7472616e742063616c6c006044820152606401610f9c565b60026001556001600160a01b0384811660008181526008602052604090819020905163cbe230c360e01b81526004810192909252917f0000000000000000000000000000000000000000000000000000000000000000169063cbe230c390602401602060405180830381865afa1580156110eb573d6000803e3d6000fd5b505050506040513d601f19601f8201168201806040525081019061110f9190612cb9565b158061111e5750805461ffff16155b1561113c5760405163c455905560e01b815260040160405180910390fd5b336001600160a01b03861615600081611155573461115f565b61115f8734612cd6565b905060008261116e5787611178565b6111788234612cd6565b60405163f6b2a2f160e01b81526001600160a01b038b811660048301529192506000917f0000000000000000000000000000000000000000000000000000000000000000169063f6b2a2f190602401602060405180830381865afa1580156111e4573d6000803e3d6000fd5b505050506040513d601f19601f820116820180604052508101906112089190612ce9565b90508082101561122d576040516289563d60e21b815260048101829052602401610f9c565b6040516313c59cef60e11b81526001600160a01b038b81166004830152602482018a90526000917f00000000000000000000000000000000000000000000000000000000000000009091169063278b39de90604401602060405180830381865afa15801561129f573d6000803e3d6000fd5b505050506040513d601f19601f820116820180604052508101906112c39190612ce9565b9050808311156112e55784156112e1576112e186610e0f8386612cd6565b8092505b50506004805460035460405163279e341560e01b81526001600160a01b038d81169482019490945260009392831692635d3b1d3092917f00000000000000000000000000000000000000000000000000000000000000009091169063279e341590602401602060405180830381865afa158015611366573d6000803e3d6000fd5b505050506040513d601f19601f8201168201806040525081019061138a9190612d02565b6002548a5460405160e086901b6001600160e01b031916815260048101949094526001600160401b03909216602484015261ffff8082166044850152600160501b90920463ffffffff16606484015262010000900416608482015260a4016020604051808303816000875af1158015611407573d6000803e3d6000fd5b505050506040513d601f19601f8201168201806040525081019061142b9190612ce9565b90506000604051806101400160405280600015158152602001600015158152602001876001600160a01b031681526020018c6001600160a01b0316815260200183815260200161147a84611635565b81526020808201869052436040808401919091526000606080850182905260809485018a90526001600160a01b038c8116835260078552838320805460018082018355918552868520018a9055898452600686529284902087518154968901519589015161ffff1990971690151561ff00191617610100951515959095029490941762010000600160b01b031916620100009582169590950294909417835585015190820180546001600160a01b031916919093161790915590820151600282015560a0820151919250829160038201906115559082612d79565b5060c0820151600482015560e0820151600582015561010082015160068201556101209091015160079091015586546201000090046001600160401b031687600261159f83612e38565b91906101000a8154816001600160401b0302191690836001600160401b0316021790555050846115de576115de6001600160a01b038c16873086611e21565b600180559a9950505050505050505050565b6109488282604051602401611606929190612e5e565b60408051601f198184030181529190526020810180516001600160e01b0316632d839cb360e21b179052611e5f565b60608160000361165c5750506040805180820190915260018152600360fc1b602082015290565b8160005b8115611686578061167081612c53565b915061167f9050600a83612e96565b9150611660565b6000816001600160401b038111156116a0576116a0612bc4565b6040519080825280601f01601f1916602001820160405280156116ca576020820181803683370190505b5090505b8415611735576116df600183612cd6565b91506116ec600a86612eaa565b6116f7906030612c6c565b60f81b81838151811061170c5761170c612bda565b60200101906001600160f81b031916908160001a90535061172e600a86612e96565b94506116ce565b949350505050565b6000828152600b60209081526040808320600690925282208351919290916002908590839061176e5761176e612bda565b60200260200101516117809190612eaa565b60408051808201909152600080825260016020830152919250908183600281106117ac576117ac612bda565b6020020151855461ff00198116610100831515908102918217895592935060ff9182169116171515146117e05760006117e3565b60015b845461ff00191661010091151582021780865560009161182191879160ff91041661180f576000611e80565b61181c8760040154610ffe565b611e80565b60018601548654600288015460048901548a5460408051938452602084019290925260ff90811615158383015287151560608401526101008404161515608083015260a08201859052519394506001600160a01b039283169362010000909204909216917f394be2fa9f95e647f7b59ec496e12e1ec0edbe1f4d4f09587027b5d8fa24e558919081900360c00190a35050505050505050565b8047101561190a5760405162461bcd60e51b815260206004820152601d60248201527f416464726573733a20696e73756666696369656e742062616c616e63650000006044820152606401610f9c565b6000826001600160a01b03168260405160006040518083038185875af1925050503d8060008114611957576040519150601f19603f3d011682016040523d82523d6000602084013e61195c565b606091505b50509050806119d35760405162461bcd60e51b815260206004820152603a60248201527f416464726573733a20756e61626c6520746f2073656e642076616c75652c207260448201527f6563697069656e74206d617920686176652072657665727465640000000000006064820152608401610f9c565b505050565b6000546001600160a01b0316331461095e5760405162461bcd60e51b815260206004820181905260248201527f4f776e61626c653a2063616c6c6572206973206e6f7420746865206f776e65726044820152606401610f9c565b600080546001600160a01b038381166001600160a01b0319831681178455604051919092169283917f8be0079c531659141344cd1fd0a4f28419497f9722a3daafe3b4186f6b6457e09190a35050565b611a8a6122f5565b6000805460ff60a01b191690557f5db9ee0a495bf2e6ff9c91a7834c1ba4fdd244a5e8aa4e537bd38aeae4b073aa335b6040516001600160a01b03909116815260200160405180910390a1565b611adf610fb1565b6000805460ff60a01b1916600160a01b1790557f62e78cea01bee320cd4e420270b5ea74000d11b0c9f74754ebdbfc544b05a258611aba3390565b60606107958383604051806060016040528060278152602001612f0560279139612345565b6001600160a01b0382166000908152600760209081526040808320805482518185028101850190935280835260609493830182828015611b9e57602002820191906000526020600020905b815481526020019060010190808311611b8a575b5050835193945050505083811015611bb4578093505b6000846001600160401b03811115611bce57611bce612bc4565b604051908082528060200260200182016040528015611c0757816020015b611bf461267c565b815260200190600190039081611bec5790505b5090508415611db5576000825b611c1e8785612cd6565b811115611db2576006600086611c35600185612cd6565b81518110611c4557611c45612bda565b6020908102919091018101518252818101929092526040908101600020815161014081018352815460ff80821615158352610100820416151594820194909452620100009093046001600160a01b0390811692840192909252600181015490911660608301526002810154608083015260038101805460a084019190611cca90612b35565b80601f0160208091040260200160405190810160405280929190818152602001828054611cf690612b35565b8015611d435780601f10611d1857610100808354040283529160200191611d43565b820191906000526020600020905b815481529060010190602001808311611d2657829003601f168201915b50505050508152602001600482015481526020016005820154815260200160068201548152602001600782015481525050838381518110611d8657611d86612bda565b60200260200101819052508180611d9c90612c53565b9250508080611daa90612ebe565b915050611c14565b50505b95945050505050565b6040516001600160a01b0383166024820152604481018290526119d390849063a9059cbb60e01b906064015b60408051601f198184030181529190526020810180516001600160e01b03166001600160e01b031990931692909217909152612422565b6040516001600160a01b0380851660248301528316604482015260648101829052611e599085906323b872dd60e01b90608401611dea565b50505050565b80516a636f6e736f6c652e6c6f67602083016000808483855afa5050505050565b815460009060ff16151560011480611e9a57506002830154155b15611eb8576040516310d5f2bd60e11b815260040160405180910390fd5b825460ff1916600190811784558301546001600160a01b0316600081815260086020526040902080546001600160401b036201000090910416906002611efd83612c7f565b82546001600160401b039182166101009390930a928302919092021990911617905550600484015460018501546001600160a01b031615818511156120c15785546201000090046001600160a01b03166000611f598488612cd6565b90506000611f6786866124f4565b90506000611f7587846124f4565b90506000611f838284612c6c565b9050611f8f818b612cd6565b99506000611f9d8489612cd6565b90506000611fab8487612cd6565b90508715611fc257611fbd87836118ba565b61200a565b611fd66001600160a01b038b168884611dbe565b61200a6001600160a01b038b167f000000000000000000000000000000000000000000000000000000000000000087611dbe565b7f00000000000000000000000000000000000000000000000000000000000000006001600160a01b0316631f61502389612045576000612047565b865b6040516001600160e01b031960e084901b1681526001600160a01b03808c1660048301528e16602482015260448101859052606481018790526084016000604051808303818588803b15801561209c57600080fd5b505af11580156120b0573d6000803e3d6000fd5b5050505050505050505050506122e5565b84156122085785546201000090046001600160a01b031660006120e485886124f4565b90506120f08188612cd6565b965060006120fe8886612cd6565b905083156121155761211083896118ba565b61215d565b6121296001600160a01b038716848a611dbe565b61215d6001600160a01b0387167f000000000000000000000000000000000000000000000000000000000000000083611dbe565b7f00000000000000000000000000000000000000000000000000000000000000006001600160a01b031663d41b8c6f8561219857600061219a565b825b6040516001600160e01b031960e084901b1681526001600160a01b038a16600482015260248101859052604481018690526064016000604051808303818588803b1580156121e757600080fd5b505af11580156121fb573d6000803e3d6000fd5b50505050505050506122e5565b80612241576122416001600160a01b0384167f000000000000000000000000000000000000000000000000000000000000000084611dbe565b7f00000000000000000000000000000000000000000000000000000000000000006001600160a01b031663d41b8c6f8261227c57600061227e565b835b6040516001600160e01b031960e084901b1681526001600160a01b038716600482015260248101869052600060448201526064016000604051808303818588803b1580156122cb57600080fd5b505af11580156122df573d6000803e3d6000fd5b50505050505b5050505060069190910181905590565b600054600160a01b900460ff1661095e5760405162461bcd60e51b815260206004820152601460248201527314185d5cd8589b194e881b9bdd081c185d5cd95960621b6044820152606401610f9c565b60606001600160a01b0384163b6123ad5760405162461bcd60e51b815260206004820152602660248201527f416464726573733a2064656c65676174652063616c6c20746f206e6f6e2d636f6044820152651b9d1c9858dd60d21b6064820152608401610f9c565b600080856001600160a01b0316856040516123c89190612ed5565b600060405180830381855af49150503d8060008114612403576040519150601f19603f3d011682016040523d82523d6000602084013e612408565b606091505b509150915061241882828661252a565b9695505050505050565b6000612477826040518060400160405280602081526020017f5361666545524332303a206c6f772d6c6576656c2063616c6c206661696c6564815250856001600160a01b03166125639092919063ffffffff16565b8051909150156119d357808060200190518101906124959190612cb9565b6119d35760405162461bcd60e51b815260206004820152602a60248201527f5361666545524332303a204552433230206f7065726174696f6e20646964206e6044820152691bdd081cdd58d8d9595960b21b6064820152608401610f9c565b6001600160a01b0382166000908152600860205260408120546127109061252090849061ffff16612ca2565b6107959190612e96565b60608315612539575081610795565b8251156125495782518084602001fd5b8160405162461bcd60e51b8152600401610f9c9190612ef1565b60606117358484600085856001600160a01b0385163b6125c55760405162461bcd60e51b815260206004820152601d60248201527f416464726573733a2063616c6c20746f206e6f6e2d636f6e74726163740000006044820152606401610f9c565b600080866001600160a01b031685876040516125e19190612ed5565b60006040518083038185875af1925050503d806000811461261e576040519150601f19603f3d011682016040523d82523d6000602084013e612623565b606091505b509150915061263382828661252a565b979650505050505050565b604051806040016040528061265161267c565b815260200161267760405180604001604052806000151581526020016000151581525090565b905290565b60405180610140016040528060001515815260200160001515815260200160006001600160a01b0316815260200160006001600160a01b031681526020016000815260200160608152602001600081526020016000815260200160008152602001600081525090565b6000602082840312156126f757600080fd5b5035919050565b60005b83811015612719578181015183820152602001612701565b50506000910152565b6000815180845261273a8160208601602086016126fe565b601f01601f19169290920160200192915050565b8a1515815289151560208201526001600160a01b038981166040830152881660608201526080810187905261014060a0820181905260009061279283820189612722565b9150508560c08301528460e083015283610100830152826101208301529b9a5050505050505050505050565b6001600160a01b0381168114610fae57600080fd5b6000602082840312156127e557600080fd5b8135610795816127be565b8015158114610fae57600080fd5b60008060006060848603121561281357600080fd5b833561281e816127f0565b9250602084013561282e816127be565b929592945050506040919091013590565b803561ffff8116811461285157600080fd5b919050565b6000806040838503121561286957600080fd5b8235612874816127be565b91506128826020840161283f565b90509250929050565b6000806000606084860312156128a057600080fd5b6128a98461283f565b95602085013595506040909401359392505050565b600080602083850312156128d157600080fd5b82356001600160401b03808211156128e857600080fd5b818501915085601f8301126128fc57600080fd5b81358181111561290b57600080fd5b8660208260051b850101111561292057600080fd5b60209290920196919550909350505050565b6000602080830181845280855180835260408601915060408160051b870101925083870160005b8281101561298757603f19888603018452612975858351612722565b94509285019290850190600101612959565b5092979650505050505050565b600080604083850312156129a757600080fd5b82356129b2816127be565b946020939093013593505050565b60006020808301818452808551808352604092508286019150828160051b87010184880160005b83811015612ae557888303603f19018552815180516060808652815115158187015290898101516080612a1d8189018315159052565b8a830151915060a0612a39818a01846001600160a01b03169052565b938301519360c09250612a56898401866001600160a01b03169052565b81840151945060e0915084828a01528084015194505061014061010081818b0152612a856101a08b0187612722565b938501516101208b81019190915292850151918a01919091528301516101608901529091015161018087015291890151919050612ad2898601838051151582526020908101511515910152565b95880195935050908601906001016129e7565b509098975050505050505050565b60008060408385031215612b0657600080fd5b8235612b11816127be565b9150602083013563ffffffff81168114612b2a57600080fd5b809150509250929050565b600181811c90821680612b4957607f821691505b602082108103612b6957634e487b7160e01b600052602260045260246000fd5b50919050565b85815260a060208201526000612b8860a0830187612722565b6040830195909552506060810192909252151560809091015292915050565b600060208284031215612bb957600080fd5b8151610795816127be565b634e487b7160e01b600052604160045260246000fd5b634e487b7160e01b600052603260045260246000fd5b6000808335601e19843603018112612c0757600080fd5b8301803591506001600160401b03821115612c2157600080fd5b602001915036819003821315612c3657600080fd5b9250929050565b634e487b7160e01b600052601160045260246000fd5b600060018201612c6557612c65612c3d565b5060010190565b80820180821115610bb457610bb4612c3d565b60006001600160401b03821680612c9857612c98612c3d565b6000190192915050565b8082028115828204841417610bb457610bb4612c3d565b600060208284031215612ccb57600080fd5b8151610795816127f0565b81810381811115610bb457610bb4612c3d565b600060208284031215612cfb57600080fd5b5051919050565b600060208284031215612d1457600080fd5b81516001600160401b038116811461079557600080fd5b601f8211156119d357600081815260208120601f850160051c81016020861015612d525750805b601f850160051c820191505b81811015612d7157828155600101612d5e565b505050505050565b81516001600160401b03811115612d9257612d92612bc4565b612da681612da08454612b35565b84612d2b565b602080601f831160018114612ddb5760008415612dc35750858301515b600019600386901b1c1916600185901b178555612d71565b600085815260208120601f198616915b82811015612e0a57888601518255948401946001909101908401612deb565b5085821015612e285787850151600019600388901b60f8161c191681555b5050505050600190811b01905550565b60006001600160401b03808316818103612e5457612e54612c3d565b6001019392505050565b604081526000612e716040830185612722565b90508260208301529392505050565b634e487b7160e01b600052601260045260246000fd5b600082612ea557612ea5612e80565b500490565b600082612eb957612eb9612e80565b500690565b600081612ecd57612ecd612c3d565b506000190190565b60008251612ee78184602087016126fe565b9190910192915050565b602081526000610795602083018461272256fe416464726573733a206c6f772d6c6576656c2064656c65676174652063616c6c206661696c6564a2646970667358221220550d7ac150b33d84f85eb7cd56b1eda8bf7167fd9b5472165f521956558cca9364736f6c63430008120033",
  "devdoc": {
    "author": "Romuald Hog (based on Yakitori's Coin Toss)",
    "errors": {
      "InvalidLinkWeiPrice(int256)": [
        {
          "params": {
            "linkWei": "LINK/ETH price returned."
          }
        }
      ],
      "UnderMinBetAmount(uint256)": [
        {
          "params": {
            "minBetAmount": "Bet amount."
          }
        }
      ]
    },
    "events": {
      "AccountOverchargedVRFCost(address,uint256)": {
        "params": {
          "overchargedVRFCost": "Number of tokens overcharged.",
          "user": "Address of the user."
        }
      },
      "BetRefunded(uint256,address,uint256,uint256)": {
        "params": {
          "amount": "Number of tokens refunded.",
          "chainlinkVRFCost": "The Chainlink VRF cost refunded to player.",
          "id": "The bet ID.",
          "user": "Address of the gamer."
        }
      },
      "DistributeOverchargedVRFCost(address,uint256)": {
        "params": {
          "overchargedVRFCost": "Number of tokens refunded.",
          "user": "Address of the user."
        }
      },
      "DistributeTokenVRFFees(address,uint256)": {
        "params": {
          "amount": "Number of tokens refunded.",
          "token": "Address of the token."
        }
      },
      "Paused(address)": {
        "details": "Emitted when the pause is triggered by `account`."
      },
      "PlaceBet(uint256,string,address,address,uint256,uint256,bool)": {
        "params": {
          "amount": "The bet amount.",
          "face": "The chosen coin face.",
          "id": "The bet ID.",
          "token": "Address of the token.",
          "user": "Address of the gamer.",
          "vrfCost": "The Chainlink VRF cost paid by player."
        }
      },
      "Roll(uint256,address,address,uint256,bool,bool,bool,uint256)": {
        "params": {
          "amount": "The bet amount.",
          "face": "The chosen coin face.",
          "id": "The bet ID.",
          "payout": "The payout amount.",
          "rolled": "The rolled coin face.",
          "token": "Address of the token.",
          "user": "Address of the gamer."
        }
      },
      "SetChainlinkConfig(uint16,bytes32,uint256)": {
        "params": {
          "gasAfterCalculation": "Gas to be added for VRF cost refund.",
          "keyHash": "Hash of the public key used to verify the VRF proof.",
          "requestConfirmations": "How many confirmations the Chainlink node should wait before responding."
        }
      },
      "SetHouseEdge(address,uint16)": {
        "params": {
          "houseEdge": "House edge rate.",
          "token": "Address of the token."
        }
      },
      "SetVRFCallbackGasLimit(address,uint32)": {
        "params": {
          "callbackGasLimit": "New Chainlink VRF callback gas limit.",
          "token": "Address of the token."
        }
      },
      "Unpaused(address)": {
        "details": "Emitted when the pause is lifted by `account`."
      }
    },
    "kind": "dev",
    "methods": {
      "constructor": {
        "details": "chainlinkCoordinatorAddress for bnb testnet is 0x6a2aad07396b36fe02a22b33cf443582f682c82fLINK_ETH_feedAddress for bnb testnet is 0x351ff08ff5077d6e8704a4763836fe187f074380",
        "params": {
          "LINK_ETH_feedAddress": "Address of the Chainlink LINK/ETH price feed.",
          "bankAddress": "The address of the bank.",
          "chainlinkCoordinatorAddress": "Address of the Chainlink VRF Coordinator."
        }
      },
      "getChainlinkConfig()": {
        "params": {
          "gasAfterCalculation": "Gas to be added for VRF cost refund.",
          "keyHash": "Hash of the public key used to verify the VRF proof.",
          "requestConfirmations": "How many confirmations the Chainlink node should wait before responding."
        }
      },
      "getLastUserBets(address,uint256)": {
        "params": {
          "dataLength": "The amount of bets to return.",
          "user": "Address of the gamer."
        },
        "returns": {
          "_0": "A list of Coin Toss bet."
        }
      },
      "hasPendingBets(address)": {
        "returns": {
          "_0": "Whether the token has pending bets."
        }
      },
      "multicall(bytes[])": {
        "details": "Receives and executes a batch of function calls on this contract."
      },
      "owner()": {
        "details": "Returns the address of the current owner."
      },
      "paused()": {
        "details": "Returns true if the contract is paused, and false otherwise."
      },
      "refundBet(uint256)": {
        "params": {
          "id": "The Bet ID."
        }
      },
      "renounceOwnership()": {
        "details": "Leaves the contract without owner. It will not be possible to call `onlyOwner` functions anymore. Can only be called by the current owner. NOTE: Renouncing ownership will leave the contract without an owner, thereby removing any functionality that is only available to the owner."
      },
      "setChainlinkConfig(uint16,bytes32,uint256)": {
        "params": {
          "gasAfterCalculation": "Gas to be added for VRF cost refund.",
          "keyHash": "Hash of the public key used to verify the VRF proof.",
          "requestConfirmations": "How many confirmations the Chainlink node should wait before responding."
        }
      },
      "setHouseEdge(address,uint16)": {
        "details": "The house edge rate couldn't exceed 4%.",
        "params": {
          "houseEdge": "House edge rate.",
          "token": "Address of the token."
        }
      },
      "setVRFCallbackGasLimit(address,uint32)": {
        "params": {
          "callbackGasLimit": "How much gas is needed in the Chainlink VRF callback."
        }
      },
      "transferOwnership(address)": {
        "details": "Transfers ownership of the contract to a new account (`newOwner`). Can only be called by the current owner."
      },
      "wager(bool,address,uint256)": {
        "params": {
          "face": "The chosen coin face.",
          "token": "Address of the token.",
          "tokenAmount": "The number of tokens bet."
        }
      },
      "withdrawTokensVRFFees(address)": {
        "params": {
          "token": "Address of the token."
        }
      }
    },
    "stateVariables": {
      "coinTossBets": {
        "details": "Coin faces: true = Tails, false = Heads."
      }
    },
    "title": "BetSwirl's Coin Toss game",
    "version": 1
  },
  "userdoc": {
    "errors": {
      "AccessDenied()": [
        {
          "notice": "Reverting error when sender isn't allowed."
        }
      ],
      "ExcessiveHouseEdge()": [
        {
          "notice": "House edge is capped at 4%."
        }
      ],
      "ForbiddenToken()": [
        {
          "notice": "Token is not allowed."
        }
      ],
      "InvalidAddress()": [
        {
          "notice": "Reverting error when provided address isn't valid."
        }
      ],
      "InvalidLinkWeiPrice(int256)": [
        {
          "notice": "Chainlink price feed not working"
        }
      ],
      "NoOverchargedVRFCost()": [
        {
          "notice": "No user's overcharged Chainlink fee."
        }
      ],
      "NotFulfilled()": [
        {
          "notice": "Bet isn't resolved yet."
        }
      ],
      "NotPendingBet()": [
        {
          "notice": "Bet provided doesn't exist or was already resolved."
        }
      ],
      "TokenHasPendingBets()": [
        {
          "notice": "Reverting error when token has pending bets."
        }
      ],
      "UnderMinBetAmount(uint256)": [
        {
          "notice": "Insufficient bet amount."
        }
      ],
      "WrongGasValueToCoverFee()": [
        {
          "notice": "The msg.value is not enough to cover Chainlink's fee."
        }
      ]
    },
    "events": {
      "AccountOverchargedVRFCost(address,uint256)": {
        "notice": "Emitted after the overcharged VRF cost amount is accounted."
      },
      "BetRefunded(uint256,address,uint256,uint256)": {
        "notice": "Emitted after the bet amount is transfered to the user."
      },
      "DistributeOverchargedVRFCost(address,uint256)": {
        "notice": "Emitted after the user's overcharged VRF cost amount is transfered."
      },
      "DistributeTokenVRFFees(address,uint256)": {
        "notice": "Emitted after the token's VRF fees amount is transfered to the user."
      },
      "PlaceBet(uint256,string,address,address,uint256,uint256,bool)": {
        "notice": "Emitted after a bet is placed."
      },
      "Roll(uint256,address,address,uint256,bool,bool,bool,uint256)": {
        "notice": "Emitted after a bet is rolled."
      },
      "SetChainlinkConfig(uint16,bytes32,uint256)": {
        "notice": "Emitted after the Chainlink config is set."
      },
      "SetHouseEdge(address,uint16)": {
        "notice": "Emitted after the house edge is set for a token."
      },
      "SetVRFCallbackGasLimit(address,uint32)": {
        "notice": "Emitted after the Chainlink callback gas limit is set for a token."
      }
    },
    "kind": "user",
    "methods": {
      "bank()": {
        "notice": "The bank that manage to payout a won bet and collect a loss bet."
      },
      "bets(uint256)": {
        "notice": "Maps bets IDs to Bet information."
      },
      "coinTossBets(uint256)": {
        "notice": "Maps bets IDs to chosen and rolled coin faces."
      },
      "constructor": {
        "notice": "Initialize the game base contract."
      },
      "getChainlinkConfig()": {
        "notice": "Returns the Chainlink VRF config."
      },
      "getLastUserBets(address,uint256)": {
        "notice": "Gets the list of the last user bets."
      },
      "hasPendingBets(address)": {
        "notice": "Returns whether the token has pending bets."
      },
      "pause()": {
        "notice": "Pauses the contract to disable new bets."
      },
      "refundBet(uint256)": {
        "notice": "Refunds the bet to the user if the Chainlink VRF callback failed."
      },
      "setChainlinkConfig(uint16,bytes32,uint256)": {
        "notice": "Sets the Chainlink VRF V2 configuration."
      },
      "setHouseEdge(address,uint16)": {
        "notice": "Sets the game house edge rate for a specific token."
      },
      "setVRFCallbackGasLimit(address,uint32)": {
        "notice": "Sets the Chainlink VRF V2 configuration."
      },
      "tokens(address)": {
        "notice": "Maps tokens addresses to token configuration."
      },
      "userOverchargedVRFCost(address)": {
        "notice": "Maps user addresses to VRF overcharged cost."
      },
      "wager(bool,address,uint256)": {
        "notice": "Creates a new bet and stores the chosen coin face."
      },
      "withdrawOverchargedVRFCost(address)": {
        "notice": "Withdraw user's overcharged Chainlink fees."
      },
      "withdrawTokensVRFFees(address)": {
        "notice": "Distributes the token's collected Chainlink fees."
      }
    },
    "notice": "The game is played with a two-sided coin. The game's goal is to guess whether the lucky coin face will be Heads or Tails.",
    "version": 1
  },
  "storageLayout": {
    "storage": [
      {
        "astId": 770,
        "contract": "contracts/games/CoinToss.sol:CoinToss",
        "label": "_owner",
        "offset": 0,
        "slot": "0",
        "type": "t_address"
      },
      {
        "astId": 893,
        "contract": "contracts/games/CoinToss.sol:CoinToss",
        "label": "_paused",
        "offset": 20,
        "slot": "0",
        "type": "t_bool"
      },
      {
        "astId": 994,
        "contract": "contracts/games/CoinToss.sol:CoinToss",
        "label": "_status",
        "offset": 0,
        "slot": "1",
        "type": "t_uint256"
      },
      {
        "astId": 5456,
        "contract": "contracts/games/CoinToss.sol:CoinToss",
        "label": "_chainlinkConfig",
        "offset": 0,
        "slot": "2",
        "type": "t_struct(ChainlinkConfig)5452_storage"
      },
      {
        "astId": 5462,
        "contract": "contracts/games/CoinToss.sol:CoinToss",
        "label": "bets",
        "offset": 0,
        "slot": "6",
        "type": "t_mapping(t_uint256,t_struct(Bet)5431_storage)"
      },
      {
        "astId": 5468,
        "contract": "contracts/games/CoinToss.sol:CoinToss",
        "label": "_userBets",
        "offset": 0,
        "slot": "7",
        "type": "t_mapping(t_address,t_array(t_uint256)dyn_storage)"
      },
      {
        "astId": 5474,
        "contract": "contracts/games/CoinToss.sol:CoinToss",
        "label": "tokens",
        "offset": 0,
        "slot": "8",
        "type": "t_mapping(t_address,t_struct(Token)5440_storage)"
      },
      {
        "astId": 5479,
        "contract": "contracts/games/CoinToss.sol:CoinToss",
        "label": "userOverchargedVRFCost",
        "offset": 0,
        "slot": "9",
        "type": "t_mapping(t_address,t_uint256)"
      },
      {
        "astId": 5025,
        "contract": "contracts/games/CoinToss.sol:CoinToss",
        "label": "_randomWords",
        "offset": 0,
        "slot": "10",
        "type": "t_array(t_uint256)dyn_storage"
      },
      {
        "astId": 5043,
        "contract": "contracts/games/CoinToss.sol:CoinToss",
        "label": "coinTossBets",
        "offset": 0,
        "slot": "11",
        "type": "t_mapping(t_uint256,t_struct(CoinTossBet)5037_storage)"
      }
    ],
    "types": {
      "t_address": {
        "encoding": "inplace",
        "label": "address",
        "numberOfBytes": "20"
      },
      "t_array(t_uint256)dyn_storage": {
        "base": "t_uint256",
        "encoding": "dynamic_array",
        "label": "uint256[]",
        "numberOfBytes": "32"
      },
      "t_bool": {
        "encoding": "inplace",
        "label": "bool",
        "numberOfBytes": "1"
      },
      "t_bytes32": {
        "encoding": "inplace",
        "label": "bytes32",
        "numberOfBytes": "32"
      },
      "t_contract(VRFCoordinatorV2Interface)219": {
        "encoding": "inplace",
        "label": "contract VRFCoordinatorV2Interface",
        "numberOfBytes": "20"
      },
      "t_mapping(t_address,t_array(t_uint256)dyn_storage)": {
        "encoding": "mapping",
        "key": "t_address",
        "label": "mapping(address => uint256[])",
        "numberOfBytes": "32",
        "value": "t_array(t_uint256)dyn_storage"
      },
      "t_mapping(t_address,t_struct(Token)5440_storage)": {
        "encoding": "mapping",
        "key": "t_address",
        "label": "mapping(address => struct Game.Token)",
        "numberOfBytes": "32",
        "value": "t_struct(Token)5440_storage"
      },
      "t_mapping(t_address,t_uint256)": {
        "encoding": "mapping",
        "key": "t_address",
        "label": "mapping(address => uint256)",
        "numberOfBytes": "32",
        "value": "t_uint256"
      },
      "t_mapping(t_uint256,t_struct(Bet)5431_storage)": {
        "encoding": "mapping",
        "key": "t_uint256",
        "label": "mapping(uint256 => struct Game.Bet)",
        "numberOfBytes": "32",
        "value": "t_struct(Bet)5431_storage"
      },
      "t_mapping(t_uint256,t_struct(CoinTossBet)5037_storage)": {
        "encoding": "mapping",
        "key": "t_uint256",
        "label": "mapping(uint256 => struct CoinToss.CoinTossBet)",
        "numberOfBytes": "32",
        "value": "t_struct(CoinTossBet)5037_storage"
      },
      "t_string_storage": {
        "encoding": "bytes",
        "label": "string",
        "numberOfBytes": "32"
      },
      "t_struct(Bet)5431_storage": {
        "encoding": "inplace",
        "label": "struct Game.Bet",
        "members": [
          {
            "astId": 5412,
            "contract": "contracts/games/CoinToss.sol:CoinToss",
            "label": "resolved",
            "offset": 0,
            "slot": "0",
            "type": "t_bool"
          },
          {
            "astId": 5414,
            "contract": "contracts/games/CoinToss.sol:CoinToss",
            "label": "haswon",
            "offset": 1,
            "slot": "0",
            "type": "t_bool"
          },
          {
            "astId": 5416,
            "contract": "contracts/games/CoinToss.sol:CoinToss",
            "label": "user",
            "offset": 2,
            "slot": "0",
            "type": "t_address"
          },
          {
            "astId": 5418,
            "contract": "contracts/games/CoinToss.sol:CoinToss",
            "label": "token",
            "offset": 0,
            "slot": "1",
            "type": "t_address"
          },
          {
            "astId": 5420,
            "contract": "contracts/games/CoinToss.sol:CoinToss",
            "label": "id",
            "offset": 0,
            "slot": "2",
            "type": "t_uint256"
          },
          {
            "astId": 5422,
            "contract": "contracts/games/CoinToss.sol:CoinToss",
            "label": "_idstr",
            "offset": 0,
            "slot": "3",
            "type": "t_string_storage"
          },
          {
            "astId": 5424,
            "contract": "contracts/games/CoinToss.sol:CoinToss",
            "label": "amount",
            "offset": 0,
            "slot": "4",
            "type": "t_uint256"
          },
          {
            "astId": 5426,
            "contract": "contracts/games/CoinToss.sol:CoinToss",
            "label": "blockNumber",
            "offset": 0,
            "slot": "5",
            "type": "t_uint256"
          },
          {
            "astId": 5428,
            "contract": "contracts/games/CoinToss.sol:CoinToss",
            "label": "payout",
            "offset": 0,
            "slot": "6",
            "type": "t_uint256"
          },
          {
            "astId": 5430,
            "contract": "contracts/games/CoinToss.sol:CoinToss",
            "label": "vrfCost",
            "offset": 0,
            "slot": "7",
            "type": "t_uint256"
          }
        ],
        "numberOfBytes": "256"
      },
      "t_struct(ChainlinkConfig)5452_storage": {
        "encoding": "inplace",
        "label": "struct Game.ChainlinkConfig",
        "members": [
          {
            "astId": 5442,
            "contract": "contracts/games/CoinToss.sol:CoinToss",
            "label": "requestConfirmations",
            "offset": 0,
            "slot": "0",
            "type": "t_uint16"
          },
          {
            "astId": 5444,
            "contract": "contracts/games/CoinToss.sol:CoinToss",
            "label": "numRandomWords",
            "offset": 2,
            "slot": "0",
            "type": "t_uint16"
          },
          {
            "astId": 5446,
            "contract": "contracts/games/CoinToss.sol:CoinToss",
            "label": "keyHash",
            "offset": 0,
            "slot": "1",
            "type": "t_bytes32"
          },
          {
            "astId": 5449,
            "contract": "contracts/games/CoinToss.sol:CoinToss",
            "label": "COORDINATOR",
            "offset": 0,
            "slot": "2",
            "type": "t_contract(VRFCoordinatorV2Interface)219"
          },
          {
            "astId": 5451,
            "contract": "contracts/games/CoinToss.sol:CoinToss",
            "label": "gasAfterCalculation",
            "offset": 0,
            "slot": "3",
            "type": "t_uint256"
          }
        ],
        "numberOfBytes": "128"
      },
      "t_struct(CoinTossBet)5037_storage": {
        "encoding": "inplace",
        "label": "struct CoinToss.CoinTossBet",
        "members": [
          {
            "astId": 5034,
            "contract": "contracts/games/CoinToss.sol:CoinToss",
            "label": "face",
            "offset": 0,
            "slot": "0",
            "type": "t_bool"
          },
          {
            "astId": 5036,
            "contract": "contracts/games/CoinToss.sol:CoinToss",
            "label": "rolled",
            "offset": 1,
            "slot": "0",
            "type": "t_bool"
          }
        ],
        "numberOfBytes": "32"
      },
      "t_struct(Token)5440_storage": {
        "encoding": "inplace",
        "label": "struct Game.Token",
        "members": [
          {
            "astId": 5433,
            "contract": "contracts/games/CoinToss.sol:CoinToss",
            "label": "houseEdge",
            "offset": 0,
            "slot": "0",
            "type": "t_uint16"
          },
          {
            "astId": 5435,
            "contract": "contracts/games/CoinToss.sol:CoinToss",
            "label": "pendingCount",
            "offset": 2,
            "slot": "0",
            "type": "t_uint64"
          },
          {
            "astId": 5437,
            "contract": "contracts/games/CoinToss.sol:CoinToss",
            "label": "VRFCallbackGasLimit",
            "offset": 10,
            "slot": "0",
            "type": "t_uint32"
          },
          {
            "astId": 5439,
            "contract": "contracts/games/CoinToss.sol:CoinToss",
            "label": "VRFFees",
            "offset": 0,
            "slot": "1",
            "type": "t_uint256"
          }
        ],
        "numberOfBytes": "64"
      },
      "t_uint16": {
        "encoding": "inplace",
        "label": "uint16",
        "numberOfBytes": "2"
      },
      "t_uint256": {
        "encoding": "inplace",
        "label": "uint256",
        "numberOfBytes": "32"
      },
      "t_uint32": {
        "encoding": "inplace",
        "label": "uint32",
        "numberOfBytes": "4"
      },
      "t_uint64": {
        "encoding": "inplace",
        "label": "uint64",
        "numberOfBytes": "8"
      }
    }
  }
}