{
  "address": "0x67F4d234aDAe224Ca84b2d69FbF626787a4eF90b",
  "abi": [
    {
      "inputs": [
        {
          "internalType": "address",
          "name": "bankAddress",
          "type": "address"
        },
        {
          "internalType": "address",
          "name": "chainlinkCoordinatorAddress",
          "type": "address"
        },
        {
          "internalType": "address",
          "name": "LINK_ETH_feedAddress",
          "type": "address"
        }
      ],
      "stateMutability": "nonpayable",
      "type": "constructor"
    },
    {
      "inputs": [],
      "name": "AccessDenied",
      "type": "error"
    },
    {
      "inputs": [],
      "name": "ExcessiveHouseEdge",
      "type": "error"
    },
    {
      "inputs": [],
      "name": "ForbiddenToken",
      "type": "error"
    },
    {
      "inputs": [],
      "name": "InvalidAddress",
      "type": "error"
    },
    {
      "inputs": [
        {
          "internalType": "int256",
          "name": "linkWei",
          "type": "int256"
        }
      ],
      "name": "InvalidLinkWeiPrice",
      "type": "error"
    },
    {
      "inputs": [],
      "name": "NoOverchargedVRFCost",
      "type": "error"
    },
    {
      "inputs": [],
      "name": "NotFulfilled",
      "type": "error"
    },
    {
      "inputs": [],
      "name": "NotPendingBet",
      "type": "error"
    },
    {
      "inputs": [],
      "name": "TokenHasPendingBets",
      "type": "error"
    },
    {
      "inputs": [
        {
          "internalType": "uint256",
          "name": "minBetAmount",
          "type": "uint256"
        }
      ],
      "name": "UnderMinBetAmount",
      "type": "error"
    },
    {
      "inputs": [],
      "name": "WrongGasValueToCoverFee",
      "type": "error"
    },
    {
      "anonymous": false,
      "inputs": [
        {
          "indexed": true,
          "internalType": "address",
          "name": "user",
          "type": "address"
        },
        {
          "indexed": false,
          "internalType": "uint256",
          "name": "overchargedVRFCost",
          "type": "uint256"
        }
      ],
      "name": "AccountOverchargedVRFCost",
      "type": "event"
    },
    {
      "anonymous": false,
      "inputs": [
        {
          "indexed": false,
          "internalType": "uint256",
          "name": "id",
          "type": "uint256"
        },
        {
          "indexed": false,
          "internalType": "address",
          "name": "user",
          "type": "address"
        },
        {
          "indexed": false,
          "internalType": "uint256",
          "name": "amount",
          "type": "uint256"
        },
        {
          "indexed": false,
          "internalType": "uint256",
          "name": "chainlinkVRFCost",
          "type": "uint256"
        }
      ],
      "name": "BetRefunded",
      "type": "event"
    },
    {
      "anonymous": false,
      "inputs": [
        {
          "indexed": true,
          "internalType": "address",
          "name": "user",
          "type": "address"
        },
        {
          "indexed": false,
          "internalType": "uint256",
          "name": "overchargedVRFCost",
          "type": "uint256"
        }
      ],
      "name": "DistributeOverchargedVRFCost",
      "type": "event"
    },
    {
      "anonymous": false,
      "inputs": [
        {
          "indexed": true,
          "internalType": "address",
          "name": "token",
          "type": "address"
        },
        {
          "indexed": false,
          "internalType": "uint256",
          "name": "amount",
          "type": "uint256"
        }
      ],
      "name": "DistributeTokenVRFFees",
      "type": "event"
    },
    {
      "anonymous": false,
      "inputs": [
        {
          "indexed": true,
          "internalType": "address",
          "name": "previousOwner",
          "type": "address"
        },
        {
          "indexed": true,
          "internalType": "address",
          "name": "newOwner",
          "type": "address"
        }
      ],
      "name": "OwnershipTransferred",
      "type": "event"
    },
    {
      "anonymous": false,
      "inputs": [
        {
          "indexed": false,
          "internalType": "address",
          "name": "account",
          "type": "address"
        }
      ],
      "name": "Paused",
      "type": "event"
    },
    {
      "anonymous": false,
      "inputs": [
        {
          "indexed": false,
          "internalType": "uint256",
          "name": "id",
          "type": "uint256"
        },
        {
          "indexed": true,
          "internalType": "address",
          "name": "user",
          "type": "address"
        },
        {
          "indexed": true,
          "internalType": "address",
          "name": "token",
          "type": "address"
        },
        {
          "indexed": false,
          "internalType": "uint256",
          "name": "amount",
          "type": "uint256"
        },
        {
          "indexed": false,
          "internalType": "uint256",
          "name": "vrfCost",
          "type": "uint256"
        },
        {
          "indexed": false,
          "internalType": "bool",
          "name": "face",
          "type": "bool"
        }
      ],
      "name": "PlaceBet",
      "type": "event"
    },
    {
      "anonymous": false,
      "inputs": [
        {
          "indexed": false,
          "internalType": "uint256",
          "name": "id",
          "type": "uint256"
        },
        {
          "indexed": true,
          "internalType": "address",
          "name": "user",
          "type": "address"
        },
        {
          "indexed": true,
          "internalType": "address",
          "name": "token",
          "type": "address"
        },
        {
          "indexed": false,
          "internalType": "uint256",
          "name": "amount",
          "type": "uint256"
        },
        {
          "indexed": false,
          "internalType": "bool",
          "name": "face",
          "type": "bool"
        },
        {
          "indexed": false,
          "internalType": "bool",
          "name": "rolled",
          "type": "bool"
        },
        {
          "indexed": false,
          "internalType": "uint256",
          "name": "payout",
          "type": "uint256"
        }
      ],
      "name": "Roll",
      "type": "event"
    },
    {
      "anonymous": false,
      "inputs": [
        {
          "indexed": false,
          "internalType": "uint16",
          "name": "requestConfirmations",
          "type": "uint16"
        },
        {
          "indexed": false,
          "internalType": "bytes32",
          "name": "keyHash",
          "type": "bytes32"
        },
        {
          "indexed": false,
          "internalType": "uint256",
          "name": "gasAfterCalculation",
          "type": "uint256"
        }
      ],
      "name": "SetChainlinkConfig",
      "type": "event"
    },
    {
      "anonymous": false,
      "inputs": [
        {
          "indexed": true,
          "internalType": "address",
          "name": "token",
          "type": "address"
        },
        {
          "indexed": false,
          "internalType": "uint16",
          "name": "houseEdge",
          "type": "uint16"
        }
      ],
      "name": "SetHouseEdge",
      "type": "event"
    },
    {
      "anonymous": false,
      "inputs": [
        {
          "indexed": true,
          "internalType": "address",
          "name": "token",
          "type": "address"
        },
        {
          "indexed": false,
          "internalType": "uint32",
          "name": "callbackGasLimit",
          "type": "uint32"
        }
      ],
      "name": "SetVRFCallbackGasLimit",
      "type": "event"
    },
    {
      "anonymous": false,
      "inputs": [
        {
          "indexed": false,
          "internalType": "address",
          "name": "account",
          "type": "address"
        }
      ],
      "name": "Unpaused",
      "type": "event"
    },
    {
      "inputs": [],
      "name": "bank",
      "outputs": [
        {
          "internalType": "contract IBank",
          "name": "",
          "type": "address"
        }
      ],
      "stateMutability": "view",
      "type": "function"
    },
    {
      "inputs": [
        {
          "internalType": "uint256",
          "name": "",
          "type": "uint256"
        }
      ],
      "name": "bets",
      "outputs": [
        {
          "internalType": "bool",
          "name": "resolved",
          "type": "bool"
        },
        {
          "internalType": "address",
          "name": "user",
          "type": "address"
        },
        {
          "internalType": "address",
          "name": "token",
          "type": "address"
        },
        {
          "internalType": "uint256",
          "name": "id",
          "type": "uint256"
        },
        {
          "internalType": "uint256",
          "name": "amount",
          "type": "uint256"
        },
        {
          "internalType": "uint256",
          "name": "blockNumber",
          "type": "uint256"
        },
        {
          "internalType": "uint256",
          "name": "payout",
          "type": "uint256"
        },
        {
          "internalType": "uint256",
          "name": "vrfCost",
          "type": "uint256"
        }
      ],
      "stateMutability": "view",
      "type": "function"
    },
    {
      "inputs": [
        {
          "internalType": "uint256",
          "name": "",
          "type": "uint256"
        }
      ],
      "name": "coinTossBets",
      "outputs": [
        {
          "internalType": "bool",
          "name": "face",
          "type": "bool"
        },
        {
          "internalType": "bool",
          "name": "rolled",
          "type": "bool"
        }
      ],
      "stateMutability": "view",
      "type": "function"
    },
    {
      "inputs": [],
      "name": "getChainlinkConfig",
      "outputs": [
        {
          "internalType": "uint16",
          "name": "requestConfirmations",
          "type": "uint16"
        },
        {
          "internalType": "bytes32",
          "name": "keyHash",
          "type": "bytes32"
        },
        {
          "internalType": "uint256",
          "name": "gasAfterCalculation",
          "type": "uint256"
        }
      ],
      "stateMutability": "view",
      "type": "function"
    },
    {
      "inputs": [
        {
          "internalType": "address",
          "name": "user",
          "type": "address"
        },
        {
          "internalType": "uint256",
          "name": "dataLength",
          "type": "uint256"
        }
      ],
      "name": "getLastUserBets",
      "outputs": [
        {
          "components": [
            {
              "components": [
                {
                  "internalType": "bool",
                  "name": "resolved",
                  "type": "bool"
                },
                {
                  "internalType": "address",
                  "name": "user",
                  "type": "address"
                },
                {
                  "internalType": "address",
                  "name": "token",
                  "type": "address"
                },
                {
                  "internalType": "uint256",
                  "name": "id",
                  "type": "uint256"
                },
                {
                  "internalType": "uint256",
                  "name": "amount",
                  "type": "uint256"
                },
                {
                  "internalType": "uint256",
                  "name": "blockNumber",
                  "type": "uint256"
                },
                {
                  "internalType": "uint256",
                  "name": "payout",
                  "type": "uint256"
                },
                {
                  "internalType": "uint256",
                  "name": "vrfCost",
                  "type": "uint256"
                }
              ],
              "internalType": "struct Game.Bet",
              "name": "bet",
              "type": "tuple"
            },
            {
              "components": [
                {
                  "internalType": "bool",
                  "name": "face",
                  "type": "bool"
                },
                {
                  "internalType": "bool",
                  "name": "rolled",
                  "type": "bool"
                }
              ],
              "internalType": "struct CoinToss.CoinTossBet",
              "name": "coinTossBet",
              "type": "tuple"
            }
          ],
          "internalType": "struct CoinToss.FullCoinTossBet[]",
          "name": "",
          "type": "tuple[]"
        }
      ],
      "stateMutability": "view",
      "type": "function"
    },
    {
      "inputs": [
        {
          "internalType": "address",
          "name": "token",
          "type": "address"
        }
      ],
      "name": "hasPendingBets",
      "outputs": [
        {
          "internalType": "bool",
          "name": "",
          "type": "bool"
        }
      ],
      "stateMutability": "view",
      "type": "function"
    },
    {
      "inputs": [
        {
          "internalType": "bytes[]",
          "name": "data",
          "type": "bytes[]"
        }
      ],
      "name": "multicall",
      "outputs": [
        {
          "internalType": "bytes[]",
          "name": "results",
          "type": "bytes[]"
        }
      ],
      "stateMutability": "nonpayable",
      "type": "function"
    },
    {
      "inputs": [],
      "name": "owner",
      "outputs": [
        {
          "internalType": "address",
          "name": "",
          "type": "address"
        }
      ],
      "stateMutability": "view",
      "type": "function"
    },
    {
      "inputs": [],
      "name": "pause",
      "outputs": [],
      "stateMutability": "nonpayable",
      "type": "function"
    },
    {
      "inputs": [],
      "name": "paused",
      "outputs": [
        {
          "internalType": "bool",
          "name": "",
          "type": "bool"
        }
      ],
      "stateMutability": "view",
      "type": "function"
    },
    {
      "inputs": [
        {
          "internalType": "uint256",
          "name": "id",
          "type": "uint256"
        }
      ],
      "name": "refundBet",
      "outputs": [],
      "stateMutability": "nonpayable",
      "type": "function"
    },
    {
      "inputs": [],
      "name": "renounceOwnership",
      "outputs": [],
      "stateMutability": "nonpayable",
      "type": "function"
    },
    {
      "inputs": [
        {
          "internalType": "uint16",
          "name": "requestConfirmations",
          "type": "uint16"
        },
        {
          "internalType": "bytes32",
          "name": "keyHash",
          "type": "bytes32"
        },
        {
          "internalType": "uint256",
          "name": "gasAfterCalculation",
          "type": "uint256"
        }
      ],
      "name": "setChainlinkConfig",
      "outputs": [],
      "stateMutability": "nonpayable",
      "type": "function"
    },
    {
      "inputs": [
        {
          "internalType": "address",
          "name": "token",
          "type": "address"
        },
        {
          "internalType": "uint16",
          "name": "houseEdge",
          "type": "uint16"
        }
      ],
      "name": "setHouseEdge",
      "outputs": [],
      "stateMutability": "nonpayable",
      "type": "function"
    },
    {
      "inputs": [
        {
          "internalType": "address",
          "name": "token",
          "type": "address"
        },
        {
          "internalType": "uint32",
          "name": "callbackGasLimit",
          "type": "uint32"
        }
      ],
      "name": "setVRFCallbackGasLimit",
      "outputs": [],
      "stateMutability": "nonpayable",
      "type": "function"
    },
    {
      "inputs": [
        {
          "internalType": "address",
          "name": "",
          "type": "address"
        }
      ],
      "name": "tokens",
      "outputs": [
        {
          "internalType": "uint16",
          "name": "houseEdge",
          "type": "uint16"
        },
        {
          "internalType": "uint64",
          "name": "pendingCount",
          "type": "uint64"
        },
        {
          "internalType": "uint32",
          "name": "VRFCallbackGasLimit",
          "type": "uint32"
        },
        {
          "internalType": "uint256",
          "name": "VRFFees",
          "type": "uint256"
        }
      ],
      "stateMutability": "view",
      "type": "function"
    },
    {
      "inputs": [
        {
          "internalType": "address",
          "name": "newOwner",
          "type": "address"
        }
      ],
      "name": "transferOwnership",
      "outputs": [],
      "stateMutability": "nonpayable",
      "type": "function"
    },
    {
      "inputs": [
        {
          "internalType": "address",
          "name": "",
          "type": "address"
        }
      ],
      "name": "userOverchargedVRFCost",
      "outputs": [
        {
          "internalType": "uint256",
          "name": "",
          "type": "uint256"
        }
      ],
      "stateMutability": "view",
      "type": "function"
    },
    {
      "inputs": [
        {
          "internalType": "bool",
          "name": "face",
          "type": "bool"
        },
        {
          "internalType": "address",
          "name": "token",
          "type": "address"
        },
        {
          "internalType": "uint256",
          "name": "tokenAmount",
          "type": "uint256"
        }
      ],
      "name": "wager",
      "outputs": [],
      "stateMutability": "payable",
      "type": "function"
    },
    {
      "inputs": [
        {
          "internalType": "address",
          "name": "user",
          "type": "address"
        }
      ],
      "name": "withdrawOverchargedVRFCost",
      "outputs": [],
      "stateMutability": "nonpayable",
      "type": "function"
    },
    {
      "inputs": [
        {
          "internalType": "address",
          "name": "token",
          "type": "address"
        }
      ],
      "name": "withdrawTokensVRFFees",
      "outputs": [],
      "stateMutability": "nonpayable",
      "type": "function"
    }
  ],
  "transactionHash": "0x823cef331f865c037d3a9172e5a38b17313262001903467bbbffcd168696f7e6",
  "args": [
    "0x0c3c4026a2D83965a5D0923332117A266Cbfb5c4",
    "0x6a2aad07396b36fe02a22b33cf443582f682c82f",
    "0xdc530d9457755926550b59e8eccdae7624181557"
  ],
  "solcInputHash": "76e85dfa1aef479a85f0072352fa9353",
  "bytecode": "0x60a06040523480156200001157600080fd5b5060405162002a0f38038062002a0f8339810160408190526200003491620002f7565b828260018362000044336200021b565b6000805460ff60a01b191690556001805560408051808201909152600f81526e10985b9ace925b9a5d1a5b1a5e9959608a1b60208083019190915262000094919062000f486200026b821b17901c565b6001600160a01b0381161580620000b257506001600160a01b038316155b80620000c557506001600160a01b038416155b156200011357620000fa6040518060600160405280602b8152602001620029e4602b91396200026b60201b62000f481760201c565b60405163e6c4247b60e01b815260040160405180910390fd5b61ffff8216158015906200012d57506101f48261ffff1611155b6200017e5760405162461bcd60e51b815260206004820152601e60248201527f57726f6e6720436861696e6c696e6b204e756d52616e646f6d576f7264730000604482015260640160405180910390fd5b506001600160a01b03928316608052600480546001600160a01b03191692909316919091179091556002805463ffff000019166201000061ffff9093169290920291909117905560408051808201909152601481527f436f696e746f737320696e697469616c697a65640000000000000000000000006020808301919091526200021291906200026b811b62000f4817901c565b50505062000391565b600080546001600160a01b038381166001600160a01b0319831681178455604051919092169283917f8be0079c531659141344cd1fd0a4f28419497f9722a3daafe3b4186f6b6457e09190a35050565b620002b68160405160240162000282919062000341565b60408051601f198184030181529190526020810180516001600160e01b0390811663104c13eb60e21b17909152620002b916565b50565b80516a636f6e736f6c652e6c6f67602083016000808483855afa5050505050565b80516001600160a01b0381168114620002f257600080fd5b919050565b6000806000606084860312156200030d57600080fd5b6200031884620002da565b92506200032860208501620002da565b91506200033860408501620002da565b90509250925092565b600060208083528351808285015260005b81811015620003705785810183015185820160400152820162000352565b506000604082860101526040601f19601f8301168501019250505092915050565b608051612614620003d06000396000818161031901528181610837015281816110bb015281816111b40152818161126d015261137201526126146000f3fe60806040526004361061012a5760003560e01c80637d0807d7116100ab578063c2fb579f1161006f578063c2fb579f14610429578063e051ece914610456578063e1fdb4b4146104a6578063e32fe504146104c6578063e4860339146104e6578063f2fde38b1461057757600080fd5b80637d0807d71461037357806382b0c00b146103a95780638456cb59146103c95780638da5cb5b146103de578063ac9650d8146103fc57600080fd5b80637038942f116100f25780637038942f146102b2578063707cd55e146102d2578063715018a6146102f257806376cdb03b1461030757806378bcde221461035357600080fd5b806322af00fa1461012f578063277d35af146101ec57806350462ea014610227578063594043fd1461023c5780635c975abb14610293575b600080fd5b34801561013b57600080fd5b5061019e61014a36600461201e565b6006602081905260009182526040909120805460018201546002830154600384015460048501546005860154959096015460ff8516966101009095046001600160a01b039081169694169492939192919088565b6040805198151589526001600160a01b0397881660208a015295909616948701949094526060860192909252608085015260a084015260c083015260e0820152610100015b60405180910390f35b3480156101f857600080fd5b5061021961020736600461204c565b60096020526000908152604090205481565b6040519081526020016101e3565b61023a610235366004612077565b610597565b005b34801561024857600080fd5b5061028361025736600461204c565b6001600160a01b03166000908152600860205260409020546201000090046001600160401b0316151590565b60405190151581526020016101e3565b34801561029f57600080fd5b50600054600160a01b900460ff16610283565b3480156102be57600080fd5b5061023a6102cd36600461204c565b610737565b3480156102de57600080fd5b5061023a6102ed36600461204c565b6107db565b3480156102fe57600080fd5b5061023a6108e7565b34801561031357600080fd5b5061033b7f000000000000000000000000000000000000000000000000000000000000000081565b6040516001600160a01b0390911681526020016101e3565b34801561035f57600080fd5b5061023a61036e3660046120cf565b6108fb565b34801561037f57600080fd5b506002546003546005546040805161ffff90941684526020840192909252908201526060016101e3565b3480156103b557600080fd5b5061023a6103c4366004612104565b6109cb565b3480156103d557600080fd5b5061023a610a36565b3480156103ea57600080fd5b506000546001600160a01b031661033b565b34801561040857600080fd5b5061041c610417366004612137565b610a60565b6040516101e391906121fb565b34801561043557600080fd5b5061044961044436600461225d565b610b55565b6040516101e39190612289565b34801561046257600080fd5b5061048f61047136600461201e565b600a6020526000908152604090205460ff8082169161010090041682565b6040805192151583529015156020830152016101e3565b3480156104b257600080fd5b5061023a6104c136600461201e565b610c88565b3480156104d257600080fd5b5061023a6104e136600461233f565b610e57565b3480156104f257600080fd5b5061053f61050136600461204c565b6008602052600090815260409020805460019091015461ffff8216916201000081046001600160401b031691600160501b90910463ffffffff169084565b6040805161ffff90951685526001600160401b03909316602085015263ffffffff9091169183019190915260608201526080016101e3565b34801561058357600080fd5b5061023a61059236600461204c565b610eca565b61059f610f8b565b6105dd6040518060400160405280601b81526020017f436f696e746f73733a20506c6163696e672061206e6577206265740000000000815250610f48565b60006105f483836105ef612710610fd8565b610fe5565b90506106346040518060400160405280601b81526020017f436f696e746f73733a20506c6163696e672061206e6577206265740000000000815250610f48565b6060818101516000908152600a6020908152604091829020805460ff191688151517905581519283019091526024808352610676929161259490830139610f48565b6106b46040518060400160405280601881526020017f436f696e746f73733a20456d6974656420746865206265740000000000000000815250610f48565b80604001516001600160a01b031681602001516001600160a01b03167fa056e15b055f378463e53b317d9503bc9aba54ace23957ea9ff7fbfa0bf2efc0836060015184608001518560e00151896040516107299493929190938452602084019290925260408301521515606082015260800190565b60405180910390a350505050565b6001600160a01b0381166000908152600960205260408120549081900361077157604051638ab4c5d760e01b815260040160405180910390fd5b6001600160a01b03821660009081526009602052604081205561079482826116e3565b816001600160a01b03167f3f206d449945dd03c1742ee98a9c5b872ac6c165788363e06af2796dd5de1f54826040516107cf91815260200190565b60405180910390a25050565b6001600160a01b03811660009081526008602052604090206001015480156108e3576001600160a01b038281166000818152600860205260408082206001019190915551636e0be4e560e11b815260048101919091526108a8917f0000000000000000000000000000000000000000000000000000000000000000169063dc17c9ca90602401602060405180830381865afa15801561087e573d6000803e3d6000fd5b505050506040513d601f19601f820116820180604052508101906108a29190612381565b826116e3565b816001600160a01b03167f1d3f9fc0810d9e182e982399cb91de735f6c415728fb9bc42664b84087c2af56826040516107cf91815260200190565b5050565b6108ef611801565b6108f9600061185b565b565b610903611801565b6101908161ffff16111561092a57604051631c2d5dd360e21b815260040160405180910390fd5b6001600160a01b0382166000908152600860205260409020546201000090046001600160401b0316156109705760405163055212b760e51b815260040160405180910390fd5b6001600160a01b038216600081815260086020908152604091829020805461ffff191661ffff861690811790915591519182527f7dfd3ecb8ac83242184c019f85ca408558f2ac0a5a19af6be2a4aee697eac81291016107cf565b6109d3611801565b6002805461ffff191661ffff851690811790915560038390556005829055604080519182526020820184905281018290527fdb0c33bbe22ccb7d7c379a53ef932b131d6fb1b3bd0a7cfe7247d9513ba2a22a9060600160405180910390a1505050565b610a3e611801565b600054600160a01b900460ff1615610a58576108f96118ab565b6108f9611900565b6060816001600160401b03811115610a7a57610a7a61239e565b604051908082528060200260200182016040528015610aad57816020015b6060815260200190600190039081610a985790505b50905060005b82811015610b4d57610b1d30858584818110610ad157610ad16123b4565b9050602002810190610ae391906123ca565b8080601f01602080910402602001604051908101604052809392919081815260200183838082843760009201919091525061194392505050565b828281518110610b2f57610b2f6123b4565b60200260200101819052508080610b459061242d565b915050610ab3565b505b92915050565b60606000610b63848461196f565b9050600081516001600160401b03811115610b8057610b8061239e565b604051908082528060200260200182016040528015610bb957816020015b610ba6611f87565b815260200190600190039081610b9e5790505b50905060005b8251811015610c7f576040518060400160405280848381518110610be557610be56123b4565b60200260200101518152602001600a6000868581518110610c0857610c086123b4565b60209081029190910181015160600151825281810192909252604090810160002081518083019092525460ff808216151583526101009091041615159181019190915290528251839083908110610c6157610c616123b4565b60200260200101819052508080610c779061242d565b915050610bbf565b50949350505050565b6000818152600660205260409020805460ff16151560011480610cad57506002810154155b15610ccb576040516310d5f2bd60e11b815260040160405180910390fd5b6004810154610cdb90601e612446565b431015610cfb576040516303de361f60e11b815260040160405180910390fd5b60018101546001600160a01b0316600090815260086020526040902080546201000090046001600160401b0316816002610d3483612459565b82546001600160401b039182166101009390930a928302919092021990911617905550815460ff191660019081178355600383015460058401556006830154908301546001600160a01b0316610db35782546003840154610dae9161010090046001600160a01b031690610da9908490612446565b6116e3565b610df8565b825460038401546001850154610dde926001600160a01b039182169261010090910490911690611b45565b8254610df89061010090046001600160a01b0316826116e3565b82546003840154604080518781526101009093046001600160a01b03166020840152820152606081018290527fe282fd838bb937af0c0f54e49ba5f86229ed0c90344c3cc4e2135cb673493e699060800160405180910390a150505050565b610e5f611801565b6001600160a01b038216600081815260086020908152604091829020805463ffffffff60501b1916600160501b63ffffffff87169081029190911790915591519182527f9edb52532d26512950c91a14b132f6df3cd06bfb49e795e03e56736121cd24a891016107cf565b610ed2611801565b6001600160a01b038116610f3c5760405162461bcd60e51b815260206004820152602660248201527f4f776e61626c653a206e6577206f776e657220697320746865207a65726f206160448201526564647265737360d01b60648201526084015b60405180910390fd5b610f458161185b565b50565b610f4581604051602401610f5c919061247c565b60408051601f198184030181529190526020810180516001600160e01b031663104c13eb60e21b179052611ba8565b600054600160a01b900460ff16156108f95760405162461bcd60e51b815260206004820152601060248201526f14185d5cd8589b194e881c185d5cd95960821b6044820152606401610f33565b6000610b4f82600261248f565b610fed611fc5565b610ff5610f8b565b6002600154036110475760405162461bcd60e51b815260206004820152601f60248201527f5265656e7472616e637947756172643a207265656e7472616e742063616c6c006044820152606401610f33565b600260015560408051808201909152601881527f42616e6b3a53657474696e6720746865206e6577206265740000000000000000602082015261108990610f48565b6001600160a01b0384811660008181526008602052604090819020905163cbe230c360e01b81526004810192909252917f0000000000000000000000000000000000000000000000000000000000000000169063cbe230c390602401602060405180830381865afa158015611102573d6000803e3d6000fd5b505050506040513d601f19601f8201168201806040525081019061112691906124a6565b15806111355750805461ffff16155b156111535760405163c455905560e01b815260040160405180910390fd5b336001600160a01b0386161560008161116c5734611176565b61117687346124c3565b9050600082611185578761118f565b61118f82346124c3565b60405163f6b2a2f160e01b81526001600160a01b038b811660048301529192506000917f0000000000000000000000000000000000000000000000000000000000000000169063f6b2a2f190602401602060405180830381865afa1580156111fb573d6000803e3d6000fd5b505050506040513d601f19601f8201168201806040525081019061121f91906124d6565b905080821015611244576040516289563d60e21b815260048101829052602401610f33565b6040516313c59cef60e11b81526001600160a01b038b81166004830152602482018a90526000917f00000000000000000000000000000000000000000000000000000000000000009091169063278b39de90604401602060405180830381865afa1580156112b6573d6000803e3d6000fd5b505050506040513d601f19601f820116820180604052508101906112da91906124d6565b9050808311156112fc5784156112f8576112f886610da983866124c3565b8092505b505061133c6040518060400160405280601781526020017f42616e6b3a73657474696e67206964203a6c6e3a333038000000000000000000815250610f48565b6004805460035460405163279e341560e01b81526001600160a01b038d81169482019490945260009392831692635d3b1d3092917f00000000000000000000000000000000000000000000000000000000000000009091169063279e341590602401602060405180830381865afa1580156113bb573d6000803e3d6000fd5b505050506040513d601f19601f820116820180604052508101906113df91906124ef565b6002548a5460405160e086901b6001600160e01b031916815260048101949094526001600160401b03909216602484015261ffff8082166044850152600160501b90920463ffffffff16606484015262010000900416608482015260a4016020604051808303816000875af115801561145c573d6000803e3d6000fd5b505050506040513d601f19601f8201168201806040525081019061148091906124d6565b90506114b76040518060400160405280601481526020017310985b9ace94dd1bdc9a5b99c81d1a194818995d60621b815250610f48565b6000604051806101000160405280600015158152602001876001600160a01b031681526020018c6001600160a01b031681526020018381526020018481526020014381526020016000815260200185815250905060076000876001600160a01b03166001600160a01b03168152602001908152602001600020829080600181540180825580915050600190039060005260206000200160009091909190915055806006600084815260200190815260200160002060008201518160000160006101000a81548160ff02191690831515021790555060208201518160000160016101000a8154816001600160a01b0302191690836001600160a01b0316021790555060408201518160010160006101000a8154816001600160a01b0302191690836001600160a01b03160217905550606082015181600201556080820151816003015560a0820151816004015560c0820151816005015560e0820151816006015590505086600001600281819054906101000a90046001600160401b03168092919061164190612518565b91906101000a8154816001600160401b0302191690836001600160401b0316021790555050846116a15761168c60405180606001604052806022815260200161257260229139610f48565b6116a16001600160a01b038c16873086611bc9565b6116d16040518060400160405280600f81526020016e10985b9ace94995d1d5c9b8818995d608a1b815250610f48565b600180559a9950505050505050505050565b804710156117335760405162461bcd60e51b815260206004820152601d60248201527f416464726573733a20696e73756666696369656e742062616c616e63650000006044820152606401610f33565b6000826001600160a01b03168260405160006040518083038185875af1925050503d8060008114611780576040519150601f19603f3d011682016040523d82523d6000602084013e611785565b606091505b50509050806117fc5760405162461bcd60e51b815260206004820152603a60248201527f416464726573733a20756e61626c6520746f2073656e642076616c75652c207260448201527f6563697069656e74206d617920686176652072657665727465640000000000006064820152608401610f33565b505050565b6000546001600160a01b031633146108f95760405162461bcd60e51b815260206004820181905260248201527f4f776e61626c653a2063616c6c6572206973206e6f7420746865206f776e65726044820152606401610f33565b600080546001600160a01b038381166001600160a01b0319831681178455604051919092169283917f8be0079c531659141344cd1fd0a4f28419497f9722a3daafe3b4186f6b6457e09190a35050565b6118b3611c07565b6000805460ff60a01b191690557f5db9ee0a495bf2e6ff9c91a7834c1ba4fdd244a5e8aa4e537bd38aeae4b073aa335b6040516001600160a01b03909116815260200160405180910390a1565b611908610f8b565b6000805460ff60a01b1916600160a01b1790557f62e78cea01bee320cd4e420270b5ea74000d11b0c9f74754ebdbfc544b05a2586118e33390565b606061196883836040518060600160405280602781526020016125b860279139611c57565b9392505050565b6001600160a01b03821660009081526007602090815260408083208054825181850281018501909352808352606094938301828280156119ce57602002820191906000526020600020905b8154815260200190600101908083116119ba575b50508351939450505050838110156119e4578093505b6000846001600160401b038111156119fe576119fe61239e565b604051908082528060200260200182016040528015611a3757816020015b611a24611fc5565b815260200190600190039081611a1c5790505b5090508415611b3c576000825b611a4e87856124c3565b811115611b39576006600086611a656001856124c3565b81518110611a7557611a756123b4565b602090810291909101810151825281810192909252604090810160002081516101008082018452825460ff811615158352046001600160a01b03908116948201949094526001820154909316918301919091526002810154606083015260038101546080830152600481015460a0830152600581015460c08301526006015460e08201528351849084908110611b0d57611b0d6123b4565b60200260200101819052508180611b239061242d565b9250508080611b319061253e565b915050611a44565b50505b95945050505050565b6040516001600160a01b0383166024820152604481018290526117fc90849063a9059cbb60e01b906064015b60408051601f198184030181529190526020810180516001600160e01b03166001600160e01b031990931692909217909152611d34565b80516a636f6e736f6c652e6c6f67602083016000808483855afa5050505050565b6040516001600160a01b0380851660248301528316604482015260648101829052611c019085906323b872dd60e01b90608401611b71565b50505050565b600054600160a01b900460ff166108f95760405162461bcd60e51b815260206004820152601460248201527314185d5cd8589b194e881b9bdd081c185d5cd95960621b6044820152606401610f33565b60606001600160a01b0384163b611cbf5760405162461bcd60e51b815260206004820152602660248201527f416464726573733a2064656c65676174652063616c6c20746f206e6f6e2d636f6044820152651b9d1c9858dd60d21b6064820152608401610f33565b600080856001600160a01b031685604051611cda9190612555565b600060405180830381855af49150503d8060008114611d15576040519150601f19603f3d011682016040523d82523d6000602084013e611d1a565b606091505b5091509150611d2a828286611e06565b9695505050505050565b6000611d89826040518060400160405280602081526020017f5361666545524332303a206c6f772d6c6576656c2063616c6c206661696c6564815250856001600160a01b0316611e3f9092919063ffffffff16565b8051909150156117fc5780806020019051810190611da791906124a6565b6117fc5760405162461bcd60e51b815260206004820152602a60248201527f5361666545524332303a204552433230206f7065726174696f6e20646964206e6044820152691bdd081cdd58d8d9595960b21b6064820152608401610f33565b60608315611e15575081611968565b825115611e255782518084602001fd5b8160405162461bcd60e51b8152600401610f33919061247c565b6060611e4e8484600085611e56565b949350505050565b606082471015611eb75760405162461bcd60e51b815260206004820152602660248201527f416464726573733a20696e73756666696369656e742062616c616e636520666f6044820152651c8818d85b1b60d21b6064820152608401610f33565b6001600160a01b0385163b611f0e5760405162461bcd60e51b815260206004820152601d60248201527f416464726573733a2063616c6c20746f206e6f6e2d636f6e74726163740000006044820152606401610f33565b600080866001600160a01b03168587604051611f2a9190612555565b60006040518083038185875af1925050503d8060008114611f67576040519150601f19603f3d011682016040523d82523d6000602084013e611f6c565b606091505b5091509150611f7c828286611e06565b979650505050505050565b6040518060400160405280611f9a611fc5565b8152602001611fc060405180604001604052806000151581526020016000151581525090565b905290565b60405180610100016040528060001515815260200160006001600160a01b0316815260200160006001600160a01b0316815260200160008152602001600081526020016000815260200160008152602001600081525090565b60006020828403121561203057600080fd5b5035919050565b6001600160a01b0381168114610f4557600080fd5b60006020828403121561205e57600080fd5b813561196881612037565b8015158114610f4557600080fd5b60008060006060848603121561208c57600080fd5b833561209781612069565b925060208401356120a781612037565b929592945050506040919091013590565b803561ffff811681146120ca57600080fd5b919050565b600080604083850312156120e257600080fd5b82356120ed81612037565b91506120fb602084016120b8565b90509250929050565b60008060006060848603121561211957600080fd5b612122846120b8565b95602085013595506040909401359392505050565b6000806020838503121561214a57600080fd5b82356001600160401b038082111561216157600080fd5b818501915085601f83011261217557600080fd5b81358181111561218457600080fd5b8660208260051b850101111561219957600080fd5b60209290920196919550909350505050565b60005b838110156121c65781810151838201526020016121ae565b50506000910152565b600081518084526121e78160208601602086016121ab565b601f01601f19169290920160200192915050565b6000602080830181845280855180835260408601915060408160051b870101925083870160005b8281101561225057603f1988860301845261223e8583516121cf565b94509285019290850190600101612222565b5092979650505050505050565b6000806040838503121561227057600080fd5b823561227b81612037565b946020939093013593505050565b602080825282518282018190526000919060409081850190868401855b828110156123325781518051805115158652878101516001600160a01b0390811689880152878201511687870152606080820151908701526080808201519087015260a0808201519087015260c0808201519087015260e090810151908601528601518051151561010086015260200151151561012085015261014090930192908501906001016122a6565b5091979650505050505050565b6000806040838503121561235257600080fd5b823561235d81612037565b9150602083013563ffffffff8116811461237657600080fd5b809150509250929050565b60006020828403121561239357600080fd5b815161196881612037565b634e487b7160e01b600052604160045260246000fd5b634e487b7160e01b600052603260045260246000fd5b6000808335601e198436030181126123e157600080fd5b8301803591506001600160401b038211156123fb57600080fd5b60200191503681900382131561241057600080fd5b9250929050565b634e487b7160e01b600052601160045260246000fd5b60006001820161243f5761243f612417565b5060010190565b80820180821115610b4f57610b4f612417565b60006001600160401b0382168061247257612472612417565b6000190192915050565b60208152600061196860208301846121cf565b8082028115828204841417610b4f57610b4f612417565b6000602082840312156124b857600080fd5b815161196881612069565b81810381811115610b4f57610b4f612417565b6000602082840312156124e857600080fd5b5051919050565b60006020828403121561250157600080fd5b81516001600160401b038116811461196857600080fd5b60006001600160401b0380831681810361253457612534612417565b6001019392505050565b60008161254d5761254d612417565b506000190190565b600082516125678184602087016121ab565b919091019291505056fe42616e6b3a49662045524332302c207472616e736665722074686520746f6b656e73436f696e746f73733a20506c6163696e67207365742074686520666163652076616c7565416464726573733a206c6f772d6c6576656c2064656c65676174652063616c6c206661696c6564a2646970667358221220b4b53ec849b542f4dfb10665b8483e2930e2f6d9cdecbefc87dcbb503baada2b64736f6c6343000812003342616e6b3a5265766572746564206279206475706c696361746564206163636f756e7473206c6e3a323237",
  "devdoc": {
    "author": "Romuald Hog (based on Yakitori's Coin Toss)",
    "errors": {
      "InvalidLinkWeiPrice(int256)": [
        {
          "params": {
            "linkWei": "LINK/ETH price returned."
          }
        }
      ],
      "UnderMinBetAmount(uint256)": [
        {
          "params": {
            "minBetAmount": "Bet amount."
          }
        }
      ]
    },
    "events": {
      "AccountOverchargedVRFCost(address,uint256)": {
        "params": {
          "overchargedVRFCost": "Number of tokens overcharged.",
          "user": "Address of the user."
        }
      },
      "BetRefunded(uint256,address,uint256,uint256)": {
        "params": {
          "amount": "Number of tokens refunded.",
          "chainlinkVRFCost": "The Chainlink VRF cost refunded to player.",
          "id": "The bet ID.",
          "user": "Address of the gamer."
        }
      },
      "DistributeOverchargedVRFCost(address,uint256)": {
        "params": {
          "overchargedVRFCost": "Number of tokens refunded.",
          "user": "Address of the user."
        }
      },
      "DistributeTokenVRFFees(address,uint256)": {
        "params": {
          "amount": "Number of tokens refunded.",
          "token": "Address of the token."
        }
      },
      "Paused(address)": {
        "details": "Emitted when the pause is triggered by `account`."
      },
      "PlaceBet(uint256,address,address,uint256,uint256,bool)": {
        "params": {
          "amount": "The bet amount.",
          "face": "The chosen coin face.",
          "id": "The bet ID.",
          "token": "Address of the token.",
          "user": "Address of the gamer.",
          "vrfCost": "The Chainlink VRF cost paid by player."
        }
      },
      "Roll(uint256,address,address,uint256,bool,bool,uint256)": {
        "params": {
          "amount": "The bet amount.",
          "face": "The chosen coin face.",
          "id": "The bet ID.",
          "payout": "The payout amount.",
          "rolled": "The rolled coin face.",
          "token": "Address of the token.",
          "user": "Address of the gamer."
        }
      },
      "SetChainlinkConfig(uint16,bytes32,uint256)": {
        "params": {
          "gasAfterCalculation": "Gas to be added for VRF cost refund.",
          "keyHash": "Hash of the public key used to verify the VRF proof.",
          "requestConfirmations": "How many confirmations the Chainlink node should wait before responding."
        }
      },
      "SetHouseEdge(address,uint16)": {
        "params": {
          "houseEdge": "House edge rate.",
          "token": "Address of the token."
        }
      },
      "SetVRFCallbackGasLimit(address,uint32)": {
        "params": {
          "callbackGasLimit": "New Chainlink VRF callback gas limit.",
          "token": "Address of the token."
        }
      },
      "Unpaused(address)": {
        "details": "Emitted when the pause is lifted by `account`."
      }
    },
    "kind": "dev",
    "methods": {
      "constructor": {
        "details": "chainlinkCoordinatorAddress for bnb testnet is 0x6a2aad07396b36fe02a22b33cf443582f682c82fLINK_ETH_feedAddress for bnb testnet is 0x351ff08ff5077d6e8704a4763836fe187f074380",
        "params": {
          "LINK_ETH_feedAddress": "Address of the Chainlink LINK/ETH price feed.",
          "bankAddress": "The address of the bank.",
          "chainlinkCoordinatorAddress": "Address of the Chainlink VRF Coordinator."
        }
      },
      "getChainlinkConfig()": {
        "params": {
          "gasAfterCalculation": "Gas to be added for VRF cost refund.",
          "keyHash": "Hash of the public key used to verify the VRF proof.",
          "requestConfirmations": "How many confirmations the Chainlink node should wait before responding."
        }
      },
      "getLastUserBets(address,uint256)": {
        "params": {
          "dataLength": "The amount of bets to return.",
          "user": "Address of the gamer."
        },
        "returns": {
          "_0": "A list of Coin Toss bet."
        }
      },
      "hasPendingBets(address)": {
        "returns": {
          "_0": "Whether the token has pending bets."
        }
      },
      "multicall(bytes[])": {
        "details": "Receives and executes a batch of function calls on this contract."
      },
      "owner()": {
        "details": "Returns the address of the current owner."
      },
      "paused()": {
        "details": "Returns true if the contract is paused, and false otherwise."
      },
      "refundBet(uint256)": {
        "params": {
          "id": "The Bet ID."
        }
      },
      "renounceOwnership()": {
        "details": "Leaves the contract without owner. It will not be possible to call `onlyOwner` functions anymore. Can only be called by the current owner. NOTE: Renouncing ownership will leave the contract without an owner, thereby removing any functionality that is only available to the owner."
      },
      "setChainlinkConfig(uint16,bytes32,uint256)": {
        "params": {
          "gasAfterCalculation": "Gas to be added for VRF cost refund.",
          "keyHash": "Hash of the public key used to verify the VRF proof.",
          "requestConfirmations": "How many confirmations the Chainlink node should wait before responding."
        }
      },
      "setHouseEdge(address,uint16)": {
        "details": "The house edge rate couldn't exceed 4%.",
        "params": {
          "houseEdge": "House edge rate.",
          "token": "Address of the token."
        }
      },
      "setVRFCallbackGasLimit(address,uint32)": {
        "params": {
          "callbackGasLimit": "How much gas is needed in the Chainlink VRF callback."
        }
      },
      "transferOwnership(address)": {
        "details": "Transfers ownership of the contract to a new account (`newOwner`). Can only be called by the current owner."
      },
      "wager(bool,address,uint256)": {
        "params": {
          "face": "The chosen coin face.",
          "token": "Address of the token.",
          "tokenAmount": "The number of tokens bet."
        }
      },
      "withdrawTokensVRFFees(address)": {
        "params": {
          "token": "Address of the token."
        }
      }
    },
    "stateVariables": {
      "coinTossBets": {
        "details": "Coin faces: true = Tails, false = Heads."
      }
    },
    "title": "BetSwirl's Coin Toss game",
    "version": 1
  },
  "userdoc": {
    "errors": {
      "AccessDenied()": [
        {
          "notice": "Reverting error when sender isn't allowed."
        }
      ],
      "ExcessiveHouseEdge()": [
        {
          "notice": "House edge is capped at 4%."
        }
      ],
      "ForbiddenToken()": [
        {
          "notice": "Token is not allowed."
        }
      ],
      "InvalidAddress()": [
        {
          "notice": "Reverting error when provided address isn't valid."
        }
      ],
      "InvalidLinkWeiPrice(int256)": [
        {
          "notice": "Chainlink price feed not working"
        }
      ],
      "NoOverchargedVRFCost()": [
        {
          "notice": "No user's overcharged Chainlink fee."
        }
      ],
      "NotFulfilled()": [
        {
          "notice": "Bet isn't resolved yet."
        }
      ],
      "NotPendingBet()": [
        {
          "notice": "Bet provided doesn't exist or was already resolved."
        }
      ],
      "TokenHasPendingBets()": [
        {
          "notice": "Reverting error when token has pending bets."
        }
      ],
      "UnderMinBetAmount(uint256)": [
        {
          "notice": "Insufficient bet amount."
        }
      ],
      "WrongGasValueToCoverFee()": [
        {
          "notice": "The msg.value is not enough to cover Chainlink's fee."
        }
      ]
    },
    "events": {
      "AccountOverchargedVRFCost(address,uint256)": {
        "notice": "Emitted after the overcharged VRF cost amount is accounted."
      },
      "BetRefunded(uint256,address,uint256,uint256)": {
        "notice": "Emitted after the bet amount is transfered to the user."
      },
      "DistributeOverchargedVRFCost(address,uint256)": {
        "notice": "Emitted after the user's overcharged VRF cost amount is transfered."
      },
      "DistributeTokenVRFFees(address,uint256)": {
        "notice": "Emitted after the token's VRF fees amount is transfered to the user."
      },
      "PlaceBet(uint256,address,address,uint256,uint256,bool)": {
        "notice": "Emitted after a bet is placed."
      },
      "Roll(uint256,address,address,uint256,bool,bool,uint256)": {
        "notice": "Emitted after a bet is rolled."
      },
      "SetChainlinkConfig(uint16,bytes32,uint256)": {
        "notice": "Emitted after the Chainlink config is set."
      },
      "SetHouseEdge(address,uint16)": {
        "notice": "Emitted after the house edge is set for a token."
      },
      "SetVRFCallbackGasLimit(address,uint32)": {
        "notice": "Emitted after the Chainlink callback gas limit is set for a token."
      }
    },
    "kind": "user",
    "methods": {
      "bank()": {
        "notice": "The bank that manage to payout a won bet and collect a loss bet."
      },
      "bets(uint256)": {
        "notice": "Maps bets IDs to Bet information."
      },
      "coinTossBets(uint256)": {
        "notice": "Maps bets IDs to chosen and rolled coin faces."
      },
      "constructor": {
        "notice": "Initialize the game base contract."
      },
      "getChainlinkConfig()": {
        "notice": "Returns the Chainlink VRF config."
      },
      "getLastUserBets(address,uint256)": {
        "notice": "Gets the list of the last user bets."
      },
      "hasPendingBets(address)": {
        "notice": "Returns whether the token has pending bets."
      },
      "pause()": {
        "notice": "Pauses the contract to disable new bets."
      },
      "refundBet(uint256)": {
        "notice": "Refunds the bet to the user if the Chainlink VRF callback failed."
      },
      "setChainlinkConfig(uint16,bytes32,uint256)": {
        "notice": "Sets the Chainlink VRF V2 configuration."
      },
      "setHouseEdge(address,uint16)": {
        "notice": "Sets the game house edge rate for a specific token."
      },
      "setVRFCallbackGasLimit(address,uint32)": {
        "notice": "Sets the Chainlink VRF V2 configuration."
      },
      "tokens(address)": {
        "notice": "Maps tokens addresses to token configuration."
      },
      "userOverchargedVRFCost(address)": {
        "notice": "Maps user addresses to VRF overcharged cost."
      },
      "wager(bool,address,uint256)": {
        "notice": "Creates a new bet and stores the chosen coin face."
      },
      "withdrawOverchargedVRFCost(address)": {
        "notice": "Withdraw user's overcharged Chainlink fees."
      },
      "withdrawTokensVRFFees(address)": {
        "notice": "Distributes the token's collected Chainlink fees."
      }
    },
    "notice": "The game is played with a two-sided coin. The game's goal is to guess whether the lucky coin face will be Heads or Tails.",
    "version": 1
  },
  "storageLayout": {
    "storage": [
      {
        "astId": 770,
        "contract": "contracts/games/CoinToss.sol:CoinToss",
        "label": "_owner",
        "offset": 0,
        "slot": "0",
        "type": "t_address"
      },
      {
        "astId": 893,
        "contract": "contracts/games/CoinToss.sol:CoinToss",
        "label": "_paused",
        "offset": 20,
        "slot": "0",
        "type": "t_bool"
      },
      {
        "astId": 994,
        "contract": "contracts/games/CoinToss.sol:CoinToss",
        "label": "_status",
        "offset": 0,
        "slot": "1",
        "type": "t_uint256"
      },
      {
        "astId": 5430,
        "contract": "contracts/games/CoinToss.sol:CoinToss",
        "label": "_chainlinkConfig",
        "offset": 0,
        "slot": "2",
        "type": "t_struct(ChainlinkConfig)5426_storage"
      },
      {
        "astId": 5436,
        "contract": "contracts/games/CoinToss.sol:CoinToss",
        "label": "bets",
        "offset": 0,
        "slot": "6",
        "type": "t_mapping(t_uint256,t_struct(Bet)5405_storage)"
      },
      {
        "astId": 5442,
        "contract": "contracts/games/CoinToss.sol:CoinToss",
        "label": "_userBets",
        "offset": 0,
        "slot": "7",
        "type": "t_mapping(t_address,t_array(t_uint256)dyn_storage)"
      },
      {
        "astId": 5448,
        "contract": "contracts/games/CoinToss.sol:CoinToss",
        "label": "tokens",
        "offset": 0,
        "slot": "8",
        "type": "t_mapping(t_address,t_struct(Token)5414_storage)"
      },
      {
        "astId": 5453,
        "contract": "contracts/games/CoinToss.sol:CoinToss",
        "label": "userOverchargedVRFCost",
        "offset": 0,
        "slot": "9",
        "type": "t_mapping(t_address,t_uint256)"
      },
      {
        "astId": 5039,
        "contract": "contracts/games/CoinToss.sol:CoinToss",
        "label": "coinTossBets",
        "offset": 0,
        "slot": "10",
        "type": "t_mapping(t_uint256,t_struct(CoinTossBet)5033_storage)"
      }
    ],
    "types": {
      "t_address": {
        "encoding": "inplace",
        "label": "address",
        "numberOfBytes": "20"
      },
      "t_array(t_uint256)dyn_storage": {
        "base": "t_uint256",
        "encoding": "dynamic_array",
        "label": "uint256[]",
        "numberOfBytes": "32"
      },
      "t_bool": {
        "encoding": "inplace",
        "label": "bool",
        "numberOfBytes": "1"
      },
      "t_bytes32": {
        "encoding": "inplace",
        "label": "bytes32",
        "numberOfBytes": "32"
      },
      "t_contract(VRFCoordinatorV2Interface)219": {
        "encoding": "inplace",
        "label": "contract VRFCoordinatorV2Interface",
        "numberOfBytes": "20"
      },
      "t_mapping(t_address,t_array(t_uint256)dyn_storage)": {
        "encoding": "mapping",
        "key": "t_address",
        "label": "mapping(address => uint256[])",
        "numberOfBytes": "32",
        "value": "t_array(t_uint256)dyn_storage"
      },
      "t_mapping(t_address,t_struct(Token)5414_storage)": {
        "encoding": "mapping",
        "key": "t_address",
        "label": "mapping(address => struct Game.Token)",
        "numberOfBytes": "32",
        "value": "t_struct(Token)5414_storage"
      },
      "t_mapping(t_address,t_uint256)": {
        "encoding": "mapping",
        "key": "t_address",
        "label": "mapping(address => uint256)",
        "numberOfBytes": "32",
        "value": "t_uint256"
      },
      "t_mapping(t_uint256,t_struct(Bet)5405_storage)": {
        "encoding": "mapping",
        "key": "t_uint256",
        "label": "mapping(uint256 => struct Game.Bet)",
        "numberOfBytes": "32",
        "value": "t_struct(Bet)5405_storage"
      },
      "t_mapping(t_uint256,t_struct(CoinTossBet)5033_storage)": {
        "encoding": "mapping",
        "key": "t_uint256",
        "label": "mapping(uint256 => struct CoinToss.CoinTossBet)",
        "numberOfBytes": "32",
        "value": "t_struct(CoinTossBet)5033_storage"
      },
      "t_struct(Bet)5405_storage": {
        "encoding": "inplace",
        "label": "struct Game.Bet",
        "members": [
          {
            "astId": 5390,
            "contract": "contracts/games/CoinToss.sol:CoinToss",
            "label": "resolved",
            "offset": 0,
            "slot": "0",
            "type": "t_bool"
          },
          {
            "astId": 5392,
            "contract": "contracts/games/CoinToss.sol:CoinToss",
            "label": "user",
            "offset": 1,
            "slot": "0",
            "type": "t_address"
          },
          {
            "astId": 5394,
            "contract": "contracts/games/CoinToss.sol:CoinToss",
            "label": "token",
            "offset": 0,
            "slot": "1",
            "type": "t_address"
          },
          {
            "astId": 5396,
            "contract": "contracts/games/CoinToss.sol:CoinToss",
            "label": "id",
            "offset": 0,
            "slot": "2",
            "type": "t_uint256"
          },
          {
            "astId": 5398,
            "contract": "contracts/games/CoinToss.sol:CoinToss",
            "label": "amount",
            "offset": 0,
            "slot": "3",
            "type": "t_uint256"
          },
          {
            "astId": 5400,
            "contract": "contracts/games/CoinToss.sol:CoinToss",
            "label": "blockNumber",
            "offset": 0,
            "slot": "4",
            "type": "t_uint256"
          },
          {
            "astId": 5402,
            "contract": "contracts/games/CoinToss.sol:CoinToss",
            "label": "payout",
            "offset": 0,
            "slot": "5",
            "type": "t_uint256"
          },
          {
            "astId": 5404,
            "contract": "contracts/games/CoinToss.sol:CoinToss",
            "label": "vrfCost",
            "offset": 0,
            "slot": "6",
            "type": "t_uint256"
          }
        ],
        "numberOfBytes": "224"
      },
      "t_struct(ChainlinkConfig)5426_storage": {
        "encoding": "inplace",
        "label": "struct Game.ChainlinkConfig",
        "members": [
          {
            "astId": 5416,
            "contract": "contracts/games/CoinToss.sol:CoinToss",
            "label": "requestConfirmations",
            "offset": 0,
            "slot": "0",
            "type": "t_uint16"
          },
          {
            "astId": 5418,
            "contract": "contracts/games/CoinToss.sol:CoinToss",
            "label": "numRandomWords",
            "offset": 2,
            "slot": "0",
            "type": "t_uint16"
          },
          {
            "astId": 5420,
            "contract": "contracts/games/CoinToss.sol:CoinToss",
            "label": "keyHash",
            "offset": 0,
            "slot": "1",
            "type": "t_bytes32"
          },
          {
            "astId": 5423,
            "contract": "contracts/games/CoinToss.sol:CoinToss",
            "label": "COORDINATOR",
            "offset": 0,
            "slot": "2",
            "type": "t_contract(VRFCoordinatorV2Interface)219"
          },
          {
            "astId": 5425,
            "contract": "contracts/games/CoinToss.sol:CoinToss",
            "label": "gasAfterCalculation",
            "offset": 0,
            "slot": "3",
            "type": "t_uint256"
          }
        ],
        "numberOfBytes": "128"
      },
      "t_struct(CoinTossBet)5033_storage": {
        "encoding": "inplace",
        "label": "struct CoinToss.CoinTossBet",
        "members": [
          {
            "astId": 5030,
            "contract": "contracts/games/CoinToss.sol:CoinToss",
            "label": "face",
            "offset": 0,
            "slot": "0",
            "type": "t_bool"
          },
          {
            "astId": 5032,
            "contract": "contracts/games/CoinToss.sol:CoinToss",
            "label": "rolled",
            "offset": 1,
            "slot": "0",
            "type": "t_bool"
          }
        ],
        "numberOfBytes": "32"
      },
      "t_struct(Token)5414_storage": {
        "encoding": "inplace",
        "label": "struct Game.Token",
        "members": [
          {
            "astId": 5407,
            "contract": "contracts/games/CoinToss.sol:CoinToss",
            "label": "houseEdge",
            "offset": 0,
            "slot": "0",
            "type": "t_uint16"
          },
          {
            "astId": 5409,
            "contract": "contracts/games/CoinToss.sol:CoinToss",
            "label": "pendingCount",
            "offset": 2,
            "slot": "0",
            "type": "t_uint64"
          },
          {
            "astId": 5411,
            "contract": "contracts/games/CoinToss.sol:CoinToss",
            "label": "VRFCallbackGasLimit",
            "offset": 10,
            "slot": "0",
            "type": "t_uint32"
          },
          {
            "astId": 5413,
            "contract": "contracts/games/CoinToss.sol:CoinToss",
            "label": "VRFFees",
            "offset": 0,
            "slot": "1",
            "type": "t_uint256"
          }
        ],
        "numberOfBytes": "64"
      },
      "t_uint16": {
        "encoding": "inplace",
        "label": "uint16",
        "numberOfBytes": "2"
      },
      "t_uint256": {
        "encoding": "inplace",
        "label": "uint256",
        "numberOfBytes": "32"
      },
      "t_uint32": {
        "encoding": "inplace",
        "label": "uint32",
        "numberOfBytes": "4"
      },
      "t_uint64": {
        "encoding": "inplace",
        "label": "uint64",
        "numberOfBytes": "8"
      }
    }
  }
}